:020000040800F2
:100000004807002029020008C5030008BD030008B6
:10001000C1030008D9020008C30C0008000000005A
:10002000000000000000000000000000210900089E
:10003000DD02000800000000F5070008390A00088A
:10004000430200084302000843020008430200087C
:10005000430200084302000843020008430200086C
:10006000430200084302000843020008430200085C
:10007000430200084302000843020008430200084C
:10008000430200084302000843020008430200083C
:10009000430200084302000843020008430200082C
:1000A000430200084302000843020008430200081C
:1000B000430200084302000843020008430200080C
:1000C00043020008430200084302000843020008FC
:1000D00043020008A50A0008430200084302000882
:1000E00043020008430200084302000843020008DC
:1000F00043020008430200084302000843020008CC
:1001000043020008430200084302000843020008BB
:1001100043020008430200084302000843020008AB
:10012000430200084302000843020008430200089B
:10013000430200084302000843020008430200088B
:10014000430200084302000843020008430200087B
:10015000430200084302000843020008430200086B
:10016000430200084302000843020008430200085B
:10017000430200084302000843020008430200084B
:10018000430200084302000800F002F800F03CF8C7
:100190000AA090E8000C82448344AAF10107DA45E2
:1001A00001D100F031F8AFF2090EBAE80F0013F0F8
:1001B000010F18BFFB1A43F0010318473815000060
:1001C00058150000103A24BF78C878C1FAD85207F1
:1001D00024BF30C830C144BF04680C6070470000C1
:1001E0000023002400250026103A28BF78C1FBD840
:1001F000520728BF30C148BF0B6070471FB500F0E1
:100200007BFE1FBD10B510BD00F033F81146FFF79F
:10021000F5FF00F0BBFD00F051F803B4FFF7F2FF6B
:1002200003BC00F050FD0000094880470948004722
:10023000FEE7FEE7FEE7FEE7FEE7FEE7FEE7FEE796
:10024000FEE7FEE704480549054A064B70470000F3
:100250003D0A0008890100084801002048070020E5
:1002600048030020480300207047704770477047DC
:100270007047754600F02CF8AE46050069465346B7
:1002800020F00700854618B020B5FFF7DBFFBDE87A
:1002900020404FF000064FF000074FF000084FF0ED
:1002A000000B21F00701AC46ACE8C009ACE8C0097E
:1002B000ACE8C009ACE8C0098D46704710B50446EB
:1002C000AFF300802046BDE81040FFF7A6BF000056
:1002D00000487047E400002000BFFEE77047F0B51B
:1002E0000A4600210023002400BF3DE0012505FA55
:1002F00001F3156805EA03049C4234D105684F00F8
:100300000326BE40B543056015794E00B54006682A
:10031000354305601579012D02D01579022D16D1CE
:1003200085684F000326BE40B543856055794E0071
:10033000B540866835438560456801268E40B543E3
:100340004560456896798E40B6B235434560C568CC
:100350004F000326BE40B543C560D5794E00B54079
:10036000C6683543C560491C1029BFD3F0BDF0B540
:10037000002300244D07ED0E02FA05F3CE1000F124
:10038000200555F826504E07F70E0F26BE40B54300
:10039000CF1000F1200646F82750CE1000F12005BE
:1003A00055F8265045EA0304CE1000F1200545F823
:1003B0002640F0BD418370470183704700BFFEE7D0
:1003C00000BFFEE77047000070B5002100230F2238
:1003D000C4781CB3174C246804F4E064C4F5E064EA
:1003E000C4F30721C1F10404E3B20A4144789C40FC
:1003F000E1B28478144021430C07210E0E4C05789D
:100400006155047804F01F050124AC4005786D1196
:10041000AD0005F1E025C5F8004109E0047804F0DD
:100420001F050124AC40054D0678761145F826409D
:1004300070BD00000CED00E000E400E080E100E0B1
:1004400002490143024A1160704700000000FA05AA
:100450000CED00E070B5002419E004F1B001C8B261
:10046000002100F097F90021084600F093F90021DF
:10047000102000F08FF9002505E00121002000F098
:1004800089F9681CC5B2802DF7DB601CC4B2082C4A
:10049000E3DB70BD1CB50121202000F0ADF90F2079
:1004A000009001208DF8040000208DF80600032044
:1004B0008DF8050001208DF8070069464748FFF7D1
:1004C0000EFF01214548FFF777FF642000F01CFC78
:1004D00001214248FFF76EFF642000F015FC012166
:1004E0003E48FFF769FF0021AE2000F053F90021DC
:1004F000084600F04FF90021102000F04BF90021D0
:10050000402000F047F90021812000F043F900214C
:10051000CF2000F03FF90021A12000F03BF900219D
:10052000C82000F037F90021A62000F033F900219F
:10053000A82000F02FF900213F2000F02BF9002126
:10054000D32000F027F90021084600F023F900210C
:10055000D52000F01FF90021802000F01BF90021B8
:10056000D92000F017F90021F12000F013F9002143
:10057000DA2000F00FF90021122000F00BF9002121
:10058000DB2000F007F90021402000F003F90021F2
:10059000202000F0FFF80021022000F0FBF80021ED
:1005A0008D2000F0F7F80021142000F0F3F800216E
:1005B000A42000F0EFF80021A62000F0EBF80021C5
:1005C000AF2000F0E7F80021AF2000F0E3F8FFF7DC
:1005D00041FF0021084600F003F81CBD0014024052
:1005E00070B504460D4605F1B001C8B2002100F017
:1005F000D1F8102141EA1410002100F0CBF804F0EA
:100600000F0141F00100002100F0C4F870BD0000AE
:100610002DE9F04180460E461546002731464046FA
:10062000FFF7DEFF00240AE0124A02EB8511085DA5
:10063000012100F0AFF8781CC7B2601CC4B2102CC6
:10064000F2DB701CC1B24046FFF7CAFF00240CE089
:100650006900491C074A02EB4111085D012100F0C5
:1006600099F8781CC7B2601CC4B2102CF0DBBDE84E
:10067000F0810000020F00082DE9F04107460E4608
:10068000904600250024A8F12000C5B27F2F02DD8E
:100690000027B01CC6B231463846FFF7A1FF002440
:1006A00008E004EB05110F4A505C012100F072F8DC
:1006B000601CC4B2082CF4DB701CC1B23846FFF7D2
:1006C0008FFF002409E004EB05110831054A505C56
:1006D000012100F05FF8601CC4B2082CF3DBBDE818
:1006E000F0810000021100082DE9F0470646894616
:1006F00090461D464FF0000A00242BE0281B401EA8
:10070000C1B20A2000F096FBB8FBF0F00A21B0FB62
:10071000F1F201FB1207BAF1000F0ED1681EA042E0
:100720000BDD47B9082101FB0461C8B230224946FC
:10073000FFF7A2FF0CE04FF0010A07F13001CAB247
:10074000082101FB0461C8B24946FFF795FF00BFCD
:10075000601CC4B2AC42D1DBBDE8F0872DE9F041AA
:1007600004460F46154600260EE0AA5D394620468F
:10077000FFF782FF04F10800C4B2782C02DD0024E8
:10078000B81CC7B2701CC6B2A85D0028EDD1BDE888
:10079000F081000070B504460E4626B102211448CF
:1007A000FFF70AFE03E002211148FFF703FE0025D0
:1007B00017E008210E48FFF7FDFD04F0800020B18E
:1007C00004210B48FFF7F8FD03E004210848FFF778
:1007D000F1FD08210648FFF7EFFD6006040E681CD6
:1007E000C5B2082DE5DB02210148FFF7E5FD70BD2C
:1007F000001402407047000029B1064A1268024303
:10080000044B1A6004E0034A12688243014B1A60E9
:10081000704700003038024029B1064A126802438E
:10082000044B1A6004E0034A12688243014B1A60C9
:100830007047000044380240F0B500210022002437
:10084000022500260223324F3F6807F00C0121B138
:10085000042905D0082937D105E02E4F076036E07E
:100860002D4F076033E02A4F3F1F3F68C7F3805684
:10087000274F3F1F3F6807F03F036EB1264FB7FB7E
:10088000F3F7DFF88CC0ACF1040CDCF800C0CCF35B
:10089000881C07FB0CF40CE01E4FB7FBF3F7DFF8E6
:1008A00070C0ACF1040CDCF800C0CCF3881C07FB72
:1008B0000CF4174F3F1F3F68C7F301477F1C7D00B3
:1008C000B4FBF5F7076002E0124F076000BF00BFFE
:1008D0000F4F3F6807F0F0010909104F7A5C076875
:1008E000D74047600A4F3F6807F4E051890A0B4F31
:1008F0007A5C4768D7408760054F3F6807F46041DE
:10090000490B064F7A5C4768D740C760F0BD0000CE
:10091000083802400024F40000127A000000002091
:10092000704700000CB5002001900090344800682A
:1009300040F480303249086000BF3148006800F45C
:10094000003000900198401C0190009818B901985F
:10095000B0F5A04FF1D12A48006800F4003010B182
:100960000120009001E0002000900098012846D16D
:1009700023484030006840F08050214940310860F1
:100980002048006840F440401E4908601C48083078
:1009900000681B49083108600846006840F40040C0
:1009A00008600846006840F4A05008601648091F17
:1009B0000860081F006840F08070091F086000BFD1
:1009C0000F48006800F000700028F9D040F2057070
:1009D0000E4908600A480830006820F00300084902
:1009E000083108600846006840F00200086000BF57
:1009F00003480830006800F00C000828F8D10CBD4E
:100A0000003802400070004008544007003C02409B
:100A1000042808D14FF0E021096941F004014FF0AA
:100A2000E022116107E04FF0E021096921F00401A3
:100A30004FF0E022116170477047000010B5154873
:100A4000006840F47000134908601348006840F0E3
:100A500001001149086000200F49083108600E4864
:100A600000680E4908400C4908600D48091D0860DF
:100A7000081F006820F48020091F08600020064934
:100A80000C310860FFF74EFF4FF0006001498039DC
:100A9000086010BD88ED00E000380240FFFFF6FE60
:100AA0001030002410B540F225511D4800F04AF8DE
:100AB00010B31B4800F000F9C4B21A48008800F4D3
:100AC0000040C8B91748008800F4804060B10A2C83
:100AD00003D000201349088020E01248008840F429
:100AE00000401049088019E00D2C06D10D480088FF
:100AF00040F480400B49088010E00A480088C0F3A9
:100B00000D0009490C5407480088401C054908801D
:100B100008460088C72801DD0020088010BD0000BD
:100B200000100140180000201C00002021B1828923
:100B300042F40052828104E082894DF6FF731A402C
:100B40008281704770B502460024002300250020F2
:100B500040F66A16B14200D100BFC1F3421501F060
:100B60001F03012606FA03F3012D02D196893340B3
:100B700006E0022D02D1168A334001E0968A334006
:100B80000C12012606FA04F41688344013B10CB195
:100B9000012000E0002070BDF0B5034600240026CF
:100BA0000025002040F66A17B94200D100BF184660
:100BB000C1F3421401F01F06012707FA06F5012CC4
:100BC00001D10C3004E0022C01D1103000E01430CF
:100BD0001AB107682F43076002E00768AF43076058
:100BE000F0BD00002DE9FF4705460E460024A14652
:100BF00000BFA046B08900B100BF2C8A24F4405445
:100C0000F08804432C82AC8941F20C608443B088A4
:100C100031890843718908430443AC81AC8A24F4C8
:100C20004074B0890443AC826846FFF705FE204853
:100C3000854202D01F48854202D1DDF80C9001E0C8
:100C4000DDF80890A88900F4004040B109EBC90024
:100C500000EB091031684900B0FBF1F707E009EB40
:100C6000C90000EB091031688900B0FBF1F764207E
:100C7000B7FBF0F004012009642101FB1078A8897A
:100C800000F4004040B1322000EBC800B0FBF1F0AE
:100C900000F00700044308E0322000EB0810642154
:100CA000B0FBF1F000F00F0004432C81BDE8FF879A
:100CB000001001400014014001468888C0F308007C
:100CC000704700BFFEE7014600BF704710B50446FD
:100CD0006FF00400FFF79CFEE11704EB5171C1F3C4
:100CE000C701074A11701046007800EB4001C1EBC4
:100CF000C0104FF6FF7101EAC0000249088010BD24
:100D0000100000201200002070B504464FF4077058
:100D100094FBF0F0C6B24FF4077094FBF0F100FBC7
:100D2000114085B205E04FF4077000F009F8701E1D
:100D3000C6B2002EF7D115B1284600F001F870BDFB
:100D40000146114A12884A434FF0E0235A610022BB
:100D50009A611A46126942F001021A6100BF4FF00F
:100D6000E022106900F001021AB100F48032002A7A
:100D7000F5D04FF0E022126922F001024FF0E0239B
:100D80001A6100229A617047120000204FF4A0609F
:100D9000FFF756FBA820FFF799FF4FF4E13000F072
:100DA00055F8FFF777FBFFF755FB00221146104679
:100DB000FFF72EFC012200211220FFF729FC02225E
:100DC00000212420FFF724FC032200213620FFF716
:100DD0001FFC042200214820FFF71AFC05220021F5
:100DE0005A20FFF715FC062202210020FFF710FC15
:100DF000072202211220FFF70BFC0AA20421002087
:100E0000FFF7ACFC00240BE0022322460621002061
:100E1000FFF76AFC4FF4FA70FFF776FF601CC4B26C
:100E2000F2E7000077656C636F6D6520746F207961
:100E30006F75000010B50246012000E050430B1E04
:100E4000A1F10104E1B2F9D110BD000010B588B0E4
:100E5000044601210846FFF7CFFC01211020FFF7CF
:100E6000DBFC072209212248FFF781FA07220A2129
:100E70001F48FFF77CFA4FF4C060069002208DF8FF
:100E80001C008DF81D0000208DF81E0001208DF83B
:100E90001F0006A91648FFF722FA02940020ADF8B9
:100EA0000C00ADF80E00ADF81000ADF814000C20E9
:100EB000ADF8120002A90F48FFF794FE01210D487A
:100EC000FFF734FE012240F225510A48FFF764FE85
:100ED00025208DF8040003208DF805008DF806000C
:100EE00001208DF8070001A8FFF76EFA08B010BDC9
:100EF00000000240001001404FF04070E1EE100A87
:100F000070471010D0FF901008C8494E48C8080814
:100F100000000000000000000000000000000000D1
:100F20000000040300FF0083001F0000003F40405A
:100F30007800000000000000000000000000000039
:100F4000000000B000FF0020C000FE0020C000FF35
:100F50000000000000000000000000000000000091
:100F600000008140300F000000003F00000000FF43
:100F70000000000000000000000000000000000071
:100F800000000000F888888888FF88888888F80032
:100F90000000000000000000000000000000000051
:100FA000000000001F080808087F888888889F8044
:100FB000F000000000000000000000000000000041
:100FC000000080828282828282E2A2928A8682806D
:100FD0008000000000000000000000000000000091
:100FE0000000000000000040807F000000000000C2
:100FF00000000000000000000000000000000000F1
:1010000000002424A4FEA3220022CC0000FF000044
:1010100000000000000000000000000000000000D0
:101020000000080601FF00010404040404FF02029A
:1010300002000000000000000000000000000000AE
:101040000000101010FF109008888888FF8888889A
:101050000800000000000000000000000000000088
:1010600000000444827F01808040432C1028468188
:1010700080000000000000000000000000000000F0
:10108000000020202020202020FF202020202020C1
:101090002000000000000000000000000000000030
:1010A000000080804020100C0300030C10204080C2
:1010B00080000000000000000000000000000000B0
:1010C0000000403011969090919690909814135093
:1010D00030000000000000000000000000000000E0
:1010E0000000040404040444847B0605040404048E
:1010F00004000000000000000000000000000000EC
:1011000000000000000000000000000000000000DF
:101110000000000000F80000000000000033300074
:10112000000000100C06100C06000000000000007B
:10113000000040C07840C0784000043F04043F04F1
:101140000400007088FC08300000001820FF211EF9
:101150000000F008F000E018000000211C031E2130
:101160001E0000F00888700000001E2123241927AB
:10117000211010160E00000000000000000000000A
:101180000000000000E01804020000000007182022
:10119000400000020418E000000000402018070092
:1011A0000000404080F0804040000202010F010238
:1011B0000200000000F0000000000101011F010119
:1011C0000100000000000000000080B0700000007E
:1011D000000000000000000000000001010101010A
:1011E000010100000000000000000030300000009D
:1011F0000000000000008060180400601806010074
:10120000000000E010080810E000000F102020107F
:101210000F00001010F8000000000020203F2020E8
:10122000000000700808088870000030282422217F
:101230003000003008888848300000182020201135
:101240000E000000C02010F8000000070424243F16
:10125000240000F8088888080800001921202011BF
:101260000E0000E0108888180000000F11202011E7
:101270000E0000380808C83808000000003F0000D1
:1012800000000070880808887000001C22212122BC
:101290001C0000E010080810E000000031222211BC
:1012A0000F00000000C0C00000000000003030004F
:1012B00000000000008000000000000080600000CE
:1012C0000000000080402010080000010204081007
:1012D0002000404040404040400004040404040416
:1012E00004000008102040800000002010080402C4
:1012F0000100007048080808F000000000303601C6
:101300000000C030C828E810E00007182724231484
:101310000B000000C038E0000000203C2302022740
:10132000382008F8888888700000203F202020118D
:101330000E00C030080808083800071820202010C8
:10134000080008F808080810E000203F20202010BE
:101350000F0008F88888E8081000203F202023208C
:10136000180008F88888E8081000203F20000300D3
:101370000000C03008080838000007182020221E8E
:10138000020008F808000008F808203F21010121A8
:101390003F20000808F8080800000020203F202017
:1013A000000000000808F8080800C08080807F0066
:1013B000000008F888C028180800203F20012638BF
:1013C000200008F8080000000000203F2020202016
:1013D000300008F8F800F8F80800203F003F003F10
:1013E000200008F830C00008F808203F2000071847
:1013F0003F00E01008080810E0000F102020201027
:101400000F0008F808080808F000203F210101013A
:101410000000E01008080810E0000F1824243850DD
:101420004F0008F8888888887000203F2000030C4F
:101430003020007088080808380000382021212258
:101440001C00180808F8080818000000203F2000B9
:10145000000008F808000008F808001F20202020DD
:101460001F000878880000C83808000007380E01FF
:101470000000F80800F80008F800033C0700073CEB
:101480000300081868808068180820302C03032C9B
:1014900030200838C800C83808000000203F20006D
:1014A000000010080808C83808002038262120202D
:1014B0001800000000FE020202000000007F404011
:1014C0004000000C30C000000000000000010638A1
:1014D000C00000020202FE000000004040407F0009
:1014E00000000000040202020400000000000000EE
:1014F00000000000000000000000808080808080EC
:1015000080800002020400000000000000000000D3
:101510000000000080808080000000192422222228
:101520003F2008F8008080000000003F11202011BB
:101530000E000000008080800000000E112020209E
:101540001100000000808088F800000E112020109B
:101550003F200000808080800000001F2222222285
:101560001300008080F0888888180020203F202009
:1015700000000000808080808000006B9494949331
:10158000600008F8008080800000203F21000020DB
:101590003F2000809898000000000020203F20207D
:1015A0000000000000809898000000C08080807FCC
:1015B000000008F8000080808000203F24022D30C9
:1015C0002000000808F8000000000020203F202034
:1015D00000008080808080808000203F20003F20AD
:1015E000003F8080008080800000203F210000209C
:1015F0003F200000808080800000001F20202020ED
:101600001F00808000808000000080FFA12020114A
:101610000E000000008080808000000E112020A0BD
:10162000FF80808080008080800020203F2120007B
:101630000100000080808080800000332424242466
:101640001900008080E0808000000000001F202042
:1016500000008080000000808000001F20202010FB
:101660003F20808080000080808000010E300806CE
:10167000010080800080008080800F300C030C30DF
:101680000F0000808000808080000020312E0E310D
:101690002000808080000080808080818E7018060D
:1016A000010000808080808080000021302C222179
:1016B000300000000000807C020200000000003FBB
:1016C000404000000000FF00000000000000FF009C
:1016D00000000002027C800000000040403F00004B
:1016E00000000006010102020404000000000000E6
:1016F0000000000014170008000000201C0000007B
:10170000C4010008301700081C0000202C0700004E
:10171000E0010008000000000102030401020304CC
:10172000060708090000000000000000000000009B
:040000050800018965
:00000001FF
