:020000040800F2
:10000000480700203102000815060008CD05000849
:1000100011060008E9040008AB0E0008000000000B
:10002000000000000000000000000000090B0008B4
:10003000ED04000800000000DD090008210C0008A4
:100040004B0200084B0200084B0200084B0200085C
:100050004B0200084B0200084B0200084B0200084C
:100060004B0200084B0200084B0200084B0200083C
:100070004B0200084B0200084B0200084B0200082C
:100080004B0200084B0200084B0200084B0200081C
:100090004B0200084B0200084B0200084B0200080C
:1000A0004B0200084B0200084B0200084B020008FC
:1000B0004B0200084B0200084B0200084B020008EC
:1000C0004B0200084B0200084B0200084B020008DC
:1000D0004B0200088D0C00084B0200084B02000880
:1000E0004B0200084B0200084B0200084B020008BC
:1000F0004B0200084B0200084B0200084B020008AC
:100100004B0200084B0200084B0200084B0200089B
:100110004B0200084B0200084B0200084B0200088B
:100120004B0200084B0200084B0200084B0200087B
:100130004B0200084B0200084B0200084B0200086B
:100140004B0200084B0200084B0200084B0200085B
:100150004B0200084B0200084B0200084B0200084B
:100160004B0200084B0200084B0200084B0200083B
:100170004B0200084B0200084B0200084B0200082B
:100180004B0200084B02000800F002F800F041F8B2
:100190000AA090E8000C82448344AAF10107DA45E2
:1001A00001D100F036F8AFF2090EBAE80F0013F0F3
:1001B000010F18BFFB1A43F001031847BC180000D9
:1001C000DC180000103A24BF78C878C1FAD852076A
:1001D00024BF30C830C144BF04680C6070470000C1
:1001E0000023002400250026103A28BF78C1FBD840
:1001F000520728BF30C148BF0B607047642900F028
:100200007980002070471FB501F038F81FBD10B588
:1002100010BD00F037F91146FFF7F5FF00F0B8FE0A
:1002200000F055F903B4FFF7F2FF03BC00F03FFE06
:100230000948804709480047FEE7FEE7FEE7FEE77A
:10024000FEE7FEE7FEE7FEE7FEE7FEE704480549B6
:10025000054A064B70470000250C0008890100087C
:1002600048010020480700204803002048030020E0
:10027000704700000FB4044910B503AA029800F0BB
:10028000D3F810BC5DF814FB040000202DE9F04108
:100290000E460446002020622046E168884730B3BD
:1002A000252805D0D4E901219047206A401CF2E7B7
:1002B000E168204600278847050018D0A5F14100D5
:1002C000192802D820354FF40067324629462046C7
:1002D0002760FFF793FF40B1012804D0F61D26F0F8
:1002E00007060836D8E7361DD6E72846DAE7206A3B
:1002F000BDE8F0812DE9F04106460024106875291B
:10030000314616A510D0AFF30080002802DA404233
:1003100013A507E031688A0701D512A502E0490755
:1003200004D511A5012401E0AFF3008000210A22C9
:1003300006F1240709E0B0FBF2FCB0FBF2F302FB8C
:100340001C00303078541846491C0028F3D123464D
:100350002A463046BDE8F04100F00CB8000000002D
:100360002D0000002B0000002000000070477047A7
:10037000704770472DE9F0470D469946924604466E
:1003800000F124080168880604D5E06921F0100115
:10039000216000E00120A84201DD471B00E00027AA
:1003A000A1697A1902EB0900081AA0612078C00639
:1003B00002D42046AFF30080002608E0D4E90121F2
:1003C0001AF806009047206A401C761C20624E45B1
:1003D000F4DB2078C0060AD52046AFF3008006E0A3
:1003E000D4E9012130209047206A401C2062381E49
:1003F000A7F10107F4DC07E0D4E9012118F80500B2
:100400009047206A401C2062281EA5F10105F3DCFC
:100410002046AFF300802078000602D50220BDE818
:10042000F0870120FBE70000074B70B50D467B44C9
:1004300000F011F80446284600F020F810B14FF003
:10044000FF3070BD204670BD430B000001694A1C9F
:1004500002610878704700B58FB0CDE90131002105
:10046000059105497944CDE9031011466846FFF727
:100470000DFF0FB000BD0000E5FFFFFF007B00F0A7
:1004800080007047754600F02BF8AE4605006946BF
:10049000534620F00700854618B020B5FFF7D6FE7A
:1004A000BDE820404FF000064FF000074FF0000875
:1004B0004FF0000B21F00701AC46ACE8C009ACE8F6
:1004C000C009ACE8C009ACE8C0098D46704710B55A
:1004D0000446AFF300802046BDE81040FFF7A2BEFF
:1004E00000487047E400002000BFFEE77047F0B509
:1004F0000A4600210023002400BF3DE0012505FA43
:1005000001F3156805EA03049C4234D105684F00E5
:100510000326BE40B543056015794E00B540066818
:10052000354305601579012D02D01579022D16D1BC
:1005300085684F000326BE40B543856055794E005F
:10054000B540866835438560456801268E40B543D1
:100550004560456896798E40B6B235434560C568BA
:100560004F000326BE40B543C560D5794E00B54067
:10057000C6683543C560491C1029BFD3F0BDF0B52E
:10058000002300244D07ED0E02FA05F3CE1000F112
:10059000200555F826504E07F70E0F26BE40B543EE
:1005A000CF1000F1200646F82750CE1000F12005AC
:1005B00055F8265045EA0304CE1000F1200545F811
:1005C0002640F0BD418370470183704700BFFEE7BE
:1005D0001CB50121202000F003FA4FF4C060009008
:1005E00001208DF8040000208DF8060003208DF80E
:1005F000050001208DF8070069460448FFF777FFE2
:100600004FF4C0610148FFF7DFFF1CBD001402403A
:1006100000BFFEE77047000070B5002100230F22E5
:10062000C4781CB3174C246804F4E064C4F5E06497
:10063000C4F30721C1F10404E3B20A4144789C40A9
:10064000E1B28478144021430C07210E0E4C05784A
:100650006155047804F01F050124AC4005786D1144
:10066000AD0005F1E025C5F8004109E0047804F08B
:100670001F050124AC40054D0678761145F826404B
:1006800070BD00000CED00E000E400E080E100E05F
:1006900002490143024A1160704700000000FA0558
:1006A0000CED00E070B5002419E004F1B001C8B20F
:1006B000002100F063F90021084600F05FF90021F5
:1006C000102000F05BF9002505E00121002000F07A
:1006D00055F9681CC5B2802DF7DB601CC4B2082C2C
:1006E000E3DB70BD1CB50121202000F079F90F205B
:1006F000009001208DF8040000208DF806000320F2
:100700008DF8050001208DF8070069464748FFF77E
:10071000EEFE01214548FFF757FF642000F0E8FB9B
:1007200001214248FFF74EFF642000F0E1FB012168
:100730003E48FFF749FF0021AE2000F01FF90021DD
:10074000084600F01BF90021102000F017F90021E5
:10075000402000F013F90021812000F00FF9002162
:10076000CF2000F00BF90021A12000F007F90021B3
:10077000C82000F003F90021A62000F0FFF80021B6
:10078000A82000F0FBF800213F2000F0F7F800213E
:10079000D32000F0F3F80021084600F0EFF8002124
:1007A000D52000F0EBF80021802000F0E7F80021D0
:1007B000D92000F0E3F80021F12000F0DFF800215B
:1007C000DA2000F0DBF80021122000F0D7F8002139
:1007D000DB2000F0D3F80021402000F0CFF800210A
:1007E000202000F0CBF80021022000F0C7F8002103
:1007F0008D2000F0C3F80021142000F0BFF8002184
:10080000A42000F0BBF80021A62000F0B7F80021DA
:10081000AF2000F0B3F80021AF2000F0AFF8FFF7F1
:1008200041FF0021084600F003F81CBD00140240FF
:1008300070B504460D4605F1B001C8B2002100F0C4
:100840009DF8102141EA1410002100F097F804F0FF
:100850000F0141F00100002100F090F870BD000090
:100860002DE9F04107460E46904600250024A8F1E8
:100870002000C5B27F2F02DD0027B01CC6B2314672
:100880003846FFF7D5FF002408E004EB05110F4AB6
:10089000505C012100F072F8601CC4B2082CF4DB3B
:1008A000701CC1B23846FFF7C3FF002409E004EB17
:1008B00005110831054A505C012100F05FF8601C09
:1008C000C4B2082CF3DBBDE8F081000086140008F8
:1008D0002DE9F0470646894690461D464FF0000A2E
:1008E00000242BE0281B401EC1B20A2000F064FC4B
:1008F000B8FBF0F00A21B0FBF1F201FB1207BAF1EC
:10090000000F0ED1681EA0420BDD47B9082101FB84
:100910000461C8B230224946FFF7A2FF0CE04FF055
:10092000010A07F13001CAB2082101FB0461C8B213
:100930004946FFF795FF00BF601CC4B2AC42D1DB53
:10094000BDE8F0872DE9F04104460F461546002624
:100950000EE0AA5D39462046FFF782FF04F1080049
:10096000C4B2782C02DD0024B81CC7B2701CC6B219
:10097000A85D0028EDD1BDE8F081000070B5044607
:100980000E4626B102211448FFF71EFE03E00221A5
:100990001148FFF717FE002517E008210E48FFF762
:1009A00011FE04F0800020B104210B48FFF70CFE7B
:1009B00003E004210848FFF705FE08210648FFF779
:1009C00003FE6006040E681CC5B2082DE5DB02219B
:1009D0000148FFF7F9FD70BD0014024070470000A8
:1009E00029B1064A12680243044B1A6004E0034A24
:1009F00012688243014B1A60704700003038024091
:100A000029B1064A12680243044B1A6004E0034A03
:100A100012688243014B1A6070470000443802405C
:100A2000F0B5002100220024022500260223324FC7
:100A30003F6807F00C0121B1042905D0082937D1FE
:100A400005E02E4F076036E02D4F076033E02A4F58
:100A50003F1F3F68C7F38056274F3F1F3F6807F08F
:100A60003F036EB1264FB7FBF3F7DFF88CC0ACF154
:100A7000040CDCF800C0CCF3881C07FB0CF40CE081
:100A80001E4FB7FBF3F7DFF870C0ACF1040CDCF8D5
:100A900000C0CCF3881C07FB0CF4174F3F1F3F68C6
:100AA000C7F301477F1C7D00B4FBF5F7076002E048
:100AB000124F076000BF00BF0F4F3F6807F0F00103
:100AC0000909104F7A5C0768D74047600A4F3F68B2
:100AD00007F4E051890A0B4F7A5C4768D74087607A
:100AE000054F3F6807F46041490B064F7A5C476841
:100AF000D740C760F0BD0000083802400024F40071
:100B000000127A000A000020704700000CB5002097
:100B1000019000903448006840F480303249086009
:100B200000BF3148006800F4003000900198401C7C
:100B30000190009818B90198B0F5A04FF1D12A485A
:100B4000006800F4003010B10120009001E00020A6
:100B500000900098012846D123484030006840F0BA
:100B600080502149403108602048006840F44040EE
:100B70001E4908601C48083000681B49083108609D
:100B80000846006840F4004008600846006840F4E9
:100B9000A05008601648091F0860081F006840F050
:100BA0008070091F086000BF0F48006800F00070E7
:100BB0000028F9D040F205700E4908600A48083054
:100BC000006820F003000849083108600846006802
:100BD00040F00200086000BF03480830006800F0E1
:100BE0000C000828F8D10CBD00380240007000400D
:100BF00008544007003C0240042808D14FF0E0218F
:100C0000096941F004014FF0E022116107E04FF063
:100C1000E021096921F004014FF0E02211617047E1
:100C20007047000010B51548006840F47000134983
:100C300008601348006840F0010011490860002076
:100C40000F49083108600E4800680E4908400C49F9
:100C500008600D48091D0860081F006820F4802006
:100C6000091F0860002006490C310860FFF74EFF9D
:100C70004FF0006001498039086010BD88ED00E048
:100C800000380240FFFFF6FE1030002410B540F29D
:100C900025511D4800F04AF810B31B4800F000F938
:100CA000C4B21A48008800F40040C8B91748008848
:100CB00000F4804060B10A2C03D000201349088062
:100CC00020E01248008840F400401049088019E0F4
:100CD0000D2C06D10D48008840F480400B49088057
:100CE00010E00A480088C0F30D0009490C54074879
:100CF0000088401C0549088008460088C72801DD97
:100D00000020088010BD00000010014008000020F5
:100D10001C00002021B1828942F40052828104E04B
:100D200082894DF6FF731A408281704770B5024682
:100D3000002400230025002040F66A16B14200D1AD
:100D400000BFC1F3421501F01F03012606FA03F3A9
:100D5000012D02D19689334006E0022D02D1168A78
:100D6000334001E0968A33400C12012606FA04F45F
:100D70001688344013B10CB1012000E0002070BD92
:100D8000F0B50346002400260025002040F66A172F
:100D9000B94200D100BF1846C1F3421401F01F064A
:100DA000012707FA06F5012C01D10C3004E0022CD2
:100DB00001D1103000E014301AB107682F430760EA
:100DC00002E00768AF430760F0BD00002DE9FF4770
:100DD00005460E460024A14600BFA046B08900B1DA
:100DE00000BF2C8A24F44054F08804432C82AC8940
:100DF00041F20C608443B08831890843718908430B
:100E00000443AC81AC8A24F44074B0890443AC82BE
:100E10006846FFF705FE2048854202D01F488542FC
:100E200002D1DDF80C9001E0DDF80890A88900F40B
:100E3000004040B109EBC90000EB091031684900DE
:100E4000B0FBF1F707E009EBC90000EB09103168CE
:100E50008900B0FBF1F76420B7FBF0F00401200932
:100E6000642101FB1078A88900F4004040B13220D1
:100E700000EBC800B0FBF1F000F00700044308E00D
:100E8000322000EB08106421B0FBF1F000F00F00FD
:100E900004432C81BDE8FF8700100140001401408D
:100EA00001468888C0F30800704700BFFEE701468E
:100EB00000BF704710B504466FF00400FFF79CFEBA
:100EC000E11704EB5171C1F3C701074A11701046D5
:100ED000007800EB4001C1EBC0104FF6FF7101EA52
:100EE000C0000249088010BD000000200200002060
:100EF00070B504464FF4077094FBF0F0C6B24FF49F
:100F0000077094FBF0F100FB114085B205E04FF44F
:100F1000077000F009F8701EC6B2002EF7D115B1A7
:100F2000284600F001F870BD0146114A12884A4374
:100F30004FF0E0235A6100229A611A46126942F08A
:100F400001021A6100BF4FF0E022106900F00102B7
:100F50001AB100F48032002AF5D04FF0E022126975
:100F600022F001024FF0E0231A6100229A617047DB
:100F70000200002000BF054A128802F04002002A49
:100F8000F9D0C2B2014B9A807047000000100140B6
:100F900000254FF4A060FFF77BFBA820FFF78AFF36
:100FA0004FF4E13000F014F9FFF712FBFFF79AFB62
:100FB000FFF778FB9DE04FA200210846FFF7C2FC37
:100FC0000223324600216420FFF782FC4CA202215A
:100FD0000020FFF7B7FC02233A4619466420FFF7CA
:100FE00077FC48A204210020FFF7ACFC0223424614
:100FF00004216420FFF76CFC4348008800F40040A3
:1010000000285BD0404890F8009040A0FFF732F9EC
:1010100000244AE04248005D642844D14049601CF5
:10102000085C61283FD1A01C085C74283BD13D4876
:10103000006808B9012000E000203A4908603849FA
:10104000201D085C30380A46E11C515C303901EB48
:10105000810100EB410086B21146E01D085C30388A
:10106000A11D515C303901EB810100EB410087B2D9
:10107000114604F10A00085C303804F10901515CA2
:10108000303901EB810100EB41001FFA80F8314655
:1010900025A0FFF7EFF8394627A0FFF7EBF8414608
:1010A00028A0FFF7E7F8601CC4B24C45B2DB28A0CB
:1010B000FFF7E0F80020144908801AE0681C85B2A8
:1010C00041F2883095FBF0F100FB115028B922A0C5
:1010D000FFF7D0F82BA0FFF7CDF8C82095FBF0F173
:1010E00000FB115010B92DA0FFF7C4F80A20FFF73C
:1010F000FFFE60E764697374616E63650000000061
:101100007800000079000000080000200D0AC4FAF1
:10111000B7A2CBCDB5C4CFFBCFA2CEAA3A0D0A0061
:101120001C000020A482424264697374616E63658E
:101130002069732025640A00782069732025640AD9
:1011400000000000792069732025640A0000000077
:101150000D0A0D0A000000000D0A414C49454E548D
:10116000454B20CCBDCBF7D5DF53544D33324634FD
:101170003037BFAAB7A2B0E520B4AEBFDACAB5D146
:10118000E90D0A00D5FDB5E3D4ADD7D340414C49B4
:10119000454E54454B0D0A0D0A0D0A00C7EBCAE433
:1011A000C8EBCAFDBEDD2CD2D4BBD8B3B5BCFCBDE8
:1011B000E1CAF80D0A00000010B50246012000E067
:1011C00050430B1EA1F10104E1B2F9D110BD0000A2
:1011D00010B588B0044601210846FFF701FC012143
:1011E0001020FFF70DFC072209212248FFF7C7F95D
:1011F00007220A211F48FFF7C2F94FF4C06006908A
:1012000002208DF81C008DF81D0000208DF81E00B6
:1012100001208DF81F0006A91648FFF768F902940F
:101220000020ADF80C00ADF80E00ADF81000ADF8E0
:1012300014000C20ADF8120002A90F48FFF7C6FDFC
:1012400001210D48FFF766FD012240F225510A48B1
:10125000FFF796FD25208DF8040003208DF805008A
:101260008DF8060001208DF8070001A8FFF7D4F9DA
:1012700008B010BD00000240001001404FF0407067
:10128000E1EE100A70471010D0FF901008C8494EC8
:1012900048C808080000000000000000000000002E
:1012A000000000000000040300FF0083001F000096
:1012B000003F4040780000000000000000000000F7
:1012C00000000000000000B000FF0020C000FE0091
:1012D00020C000FF0000000000000000000000002F
:1012E0000000000000008140300F000000003F00BF
:1012F000000000FF000000000000000000000000EF
:101300000000000000000000F888888888FF8888B6
:101310008888F800000000000000000000000000C5
:1013200000000000000000001F080808087F8888EF
:1013300088889F80F000000000000000000000008E
:1013400000000000000080828282828282E2A292FB
:101350008A868280800000000000000000000000FB
:10136000000000000000000000000040807F00003E
:10137000000000000000000000000000000000006D
:101380000000000000002424A4FEA3220022CC00C0
:1013900000FF00000000000000000000000000004E
:1013A000000000000000080601FF0001040404041E
:1013B00004FF020202000000000000000000000024
:1013C000000000000000101010FF109008888888AE
:1013D000FF8888880800000000000000000000006E
:1013E0000000000000000444827F01808040432C04
:1013F000102846818000000000000000000000006E
:1014000000000000000020202020202020FF2020BD
:10141000202020202000000000000000000000002C
:1014200000000000000080804020100C0300030C2E
:10143000102040808000000000000000000000003C
:10144000000000000000403011969090919690901E
:10145000981413503000000000000000000000004D
:10146000000000000000040404040444847B06051A
:101470000404040404000000000000000000000058
:10148000000000000000000000000000000000005C
:10149000000000000000000000F800000000000054
:1014A00000333000000000100C06100C0600000095
:1014B00000000000000040C07840C0784000043FB9
:1014C00004043F040400007088FC08300000001889
:1014D00020FF211E0000F008F000E01800000021AD
:1014E0001C031E211E0000F00888700000001E2151
:1014F00023241927211010160E0000000000000000
:10150000000000000000000000E0180402000000DD
:1015100000071820400000020418E000000000400E
:10152000201807000000404080F080404000020288
:10153000010F01020200000000F0000000000101A4
:10154000011F01010100000000000000000080B048
:10155000700000000000000000000000000000011A
:101560000101010101010000000000000000003045
:1015700030000000000000000000806018040060DF
:1015800018060100000000E010080810E000000F3D
:10159000102020100F00001010F8000000000020A4
:1015A000203F2020000000700808088870000030EC
:1015B0002824222130000030088888483000001894
:1015C000202020110E000000C02010F800000007AD
:1015D0000424243F240000F8088888080800001923
:1015E000212020110E0000E0108888180000000F54
:1015F000112020110E0000380808C838080000002B
:10160000003F000000000070880808887000001C7F
:10161000222121221C0000E010080810E000000038
:10162000312222110F00000000C0C00000000000A5
:1016300000303000000000000080000000000000CA
:1016400080600000000000008040201008000001C1
:101650000204081020004040404040404000040484
:10166000040404040400000810204080000000204E
:10167000100804020100007048080808F00000008B
:10168000003036010000C030C828E810E00007181C
:10169000272423140B000000C038E0000000203C89
:1016A00023020227382008F8888888700000203F2D
:1016B000202020110E00C030080808083800071844
:1016C00020202010080008F808080810E000203F3B
:1016D000202020100F0008F88888E8081000203F1C
:1016E00020202320180008F88888E8081000203FF0
:1016F000200003000000C030080808380000071868
:101700002020221E020008F808000008F808203FE8
:10171000210101213F20000808F8080800000020EE
:10172000203F2020000000000808F8080800C080C2
:1017300080807F00000008F888C028180800203F3B
:1017400020012638200008F8080000000000203F93
:1017500020202020300008F8F800F8F80800203F8A
:10176000003F003F200008F830C00008F808203F84
:10177000200007183F00E01008080810E0000F10D4
:10178000202020100F0008F808080808F000203F6B
:10179000210101010000E01008080810E0000F1806
:1017A000242438504F0008F8888888887000203F2B
:1017B0002000030C3020007088080808380000382A
:1017C000202121221C00180808F808081800000031
:1017D000203F2000000008F808000008F808001F5B
:1017E000202020201F000878880000C8380800004A
:1017F00007380E010000F80800F80008F800033C64
:101800000700073C0300081868808068180820302B
:101810002C03032C30200838C800C838080000000A
:10182000203F2000000010080808C83808002038B1
:10183000262120201800000000FE02020200000005
:10184000007F40404000000C30C00000000000005D
:1018500000010638C00000020202FE000000004045
:1018600040407F000000000004020202040000006B
:101870000000000000000000000000000000808068
:101880008080808080800002020400000000000050
:10189000000000000000000080808080000000192F
:1018A000242222223F2008F8008080000000003F10
:1018B000112020110E000000008080800000000E2A
:1018C000112020201100000000808088F800000E08
:1018D000112020103F200000808080800000001F29
:1018E000222222221300008080F08888881800209D
:1018F000203F202000000000808080808000006B5E
:1019000094949493600008F8008080800000203F49
:10191000210000203F200080989800000000002057
:10192000203F20200000000000809898000000C0A8
:101930008080807F000008F8000080808000203FC9
:1019400024022D302000000808F8000000000020CC
:10195000203F202000008080808080808000203F09
:1019600020003F20003F8080008080800000203FDA
:10197000210000203F200000808080800000001FA8
:10198000202020201F00808000808000000080FF39
:10199000A12020110E000000008080808000000E39
:1019A000112020A0FF808080800080808000202087
:1019B0003F212000010000008080808080000033F3
:1019C000242424241900008080E08080000000008E
:1019D000001F202000008080000000808000001F89
:1019E000202020103F208080800000808080000127
:1019F0000E300806010080800080008080800F305B
:101A00000C030C300F0000808000808080000020DC
:101A1000312E0E3120008080800000808080808107
:101A20008E70180601000080808080808000002178
:101A3000302C2221300000000000807C02020000D7
:101A40000000003F404000000000FF0000000000D8
:101A50000000FF0000000002027C80000000004047
:101A6000403F0000000000060101020204040000E3
:101A70000000000000000000981A0008000000208C
:101A80001C000000C4010008B41A00081C0000205B
:101A90002C070000E001000800000000000000002A
:101AA0000000000000000102030401020304060715
:041AB0000809000021
:040000050800018965
:00000001FF
