:020000040800F2
:10000000D007002039020008291200087D090008E5
:100010002512000899080008371C0008000000009D
:100020000000000000000000000000003D17000874
:100030009D08000800000000F11500085518000890
:10004000530200085302000853020008530200083C
:10005000530200085302000853020008530200082C
:10006000530200085302000853020008530200081C
:10007000530200085302000853020008530200080C
:1000800053020008530200085302000853020008FC
:1000900053020008530200085302000853020008EC
:1000A00053020008530200085302000853020008DC
:1000B00053020008C1180008530200085302000848
:1000C00053020008530200085302000853020008BC
:1000D00053020008191A00085302000853020008CE
:1000E000530200085302000853020008530200089C
:1000F000530200085302000853020008530200088C
:10010000530200085302000853020008530200087B
:10011000530200085302000853020008530200086B
:10012000530200085302000853020008530200085B
:10013000530200085302000853020008530200084B
:10014000530200085302000853020008530200083B
:10015000530200085302000853020008530200082B
:10016000530200085302000853020008530200081B
:10017000530200085302000853020008530200080B
:10018000530200085302000800F002F800F044F89F
:100190000AA090E8000C82448344AAF10107DA45E2
:1001A00001D100F039F8AFF2090EBAE80F0013F0F0
:1001B000010F18BFFB1A43F0010318471855000040
:1001C00038550000103A24BF78C878C1FAD85207D1
:1001D00024BF30C830C144BF04680C6070470000C1
:1001E0000023002400250026103A28BF78C1FBD840
:1001F000520728BF30C148BF0B607047642900F028
:100200009580782900F0CE80002070471FB504F05B
:100210001BF81FBD10B510BD00F010FB1146FFF715
:10022000F5FF02F021FD00F02EFB03B4FFF7F2FF13
:1002300003BC01F009FD0000094880470948004758
:10024000FEE7FEE7FEE7FEE7FEE7FEE7FEE7FEE786
:10025000FEE7FEE704480549054A064B70470000E3
:100260005918000889010008D0010020D00700209B
:10027000D0030020D0030020704710B54C1084EA52
:10028000530404D54042C1F1000138BF491E1B424E
:1002900004D55242C3F1000338BF5B1E00F082F95F
:1002A00014F0804F04D04042C1F1000138BF491E14
:1002B00014F0004F04D05242C3F1000338BF5B1E5C
:1002C00010BD00000FB4044910B503AA029800F055
:1002D00039FA10BC5DF814FB4400002070B50446E8
:1002E00085690068C10601D5302600E02026C007D8
:1002F00007D070BDD4E9012130469047206A401CE8
:1003000020626D1EF6D570BD70B504468569007813
:10031000C00707D170BDD4E9012120209047206A91
:10032000401C20626D1EF6D570BD00002DE9F04125
:100330000646002410687529314616A510D0AFF383
:100340000080002802DA404213A507E031688A07DE
:1003500001D512A502E0490704D511A5012401E049
:10036000AFF3008000210A2206F1240709E0B0FB68
:10037000F2FCB0FBF2F302FB1C003030785418465C
:10038000491C0028F3D123462A463046BDE8F041F7
:1003900000F07FB9000000002D0000002B000000DD
:1003A0002000000070B504460D4621461068AFF3EA
:1003B00000802188090502D50F4A7A4402E00E4ADE
:1003C0007A440E32002104F1240305E000F00F0608
:1003D0000009965D5E54491C0028F7D1207800235F
:1003E000000704D5702D02D009B102231132204636
:1003F000BDE8704000F04DB9DC5200002DE9F05F1F
:10040000894604464FF0000ADFF824B1FB44C0F8E7
:1004100020A02046E168884700287DD0252806D006
:10042000D4E901219047206A401C2062F1E70025B1
:100430005F462046E16888472028064607DB312EC4
:1004400005D2B81910F8200C08B10543F1E7A80748
:1004500001D525F00405C4F81CA00027C4F818A095
:100460002A2E09D0304601F0E8FB38B304EB8708A8
:10047000303EC8F8186019E059F8041B204604EB18
:1004800087029161E1688847012F064618D1E0692B
:10049000002820DA25F020051DE0D8F8180000EB30
:1004A000800006EB40003038C8F818002046E168AC
:1004B0008847064601F0C1FB0028EED1012F0AD083
:1004C0002E2E08D12046E16888477F1C0646022F61
:1004D00045F02005C4DBA069002803DA404245F05E
:1004E0000105A061E80701D025F01005A6B1A6F12D
:1004F0004100192802D8203645F400654A463146A5
:10050000204625604D46FFF779FE60B1012807D0EF
:10051000ED1D25F0070000E007E000F1080978E78D
:1005200005F1040975E730467AE7206ABDE8F09FD7
:10053000B252000040EA010310B59B070FD1042A14
:100540000DD310C808C9121F9C42F8D020BA19BA9E
:10055000884201D9012010BD4FF0FF3010BD1AB103
:10056000D30703D0521C07E0002010BD10F8013B58
:1005700011F8014B1B1B07D110F8013B11F8014B7F
:100580001B1B01D1921EF1D1184610BD02F0FF03D2
:1005900043EA032242EA024200F0E8B8704770479B
:1005A0007047704753EA020C00F069802DE9F04B68
:1005B0004FF00006002B1FBFB3FA83F503FA05F4D2
:1005C00024FA05F65E4012BF1643B2FA82F502FA2B
:1005D00005F4C5F120051EBF22FA05FC44EA0C040F
:1005E000203556EA044C4FEA144418BF641C4FF0FF
:1005F00000084FF00009904271EB030C39D3002939
:1006000019BFB1FA81F701FA07F6B0FA80F700FADC
:1006100007F6C7F120071EBF20FA07FC46EA0C06C2
:100620002037B6FBF4FCA7EB0507103F07F01F0BC4
:10063000CBF120060CFA0BFB2CFA06F644BFB346AE
:100640000026202FA4BF5E464FF0000B5BEA060C8D
:1006500008BF4FF0010B19EB0B09ABFB027C48EB19
:100660000608C01B06FB02CC0BFB03CC71EB0C0194
:10067000C1E70B46024641464846BDE8F08B13B53C
:100680004FF000004FF00001AFF30080BDE81C40C8
:1006900070472DE9F0470D4699469246044600F111
:1006A00024080168880604D5E06921F01001216062
:1006B00000E00120A84201DD471B00E00027A169FE
:1006C0007A1902EB0900081AA0612078C00602D44A
:1006D0002046FFF703FE002608E0D4E901211AF8BE
:1006E00006009047206A401C761C20624E45F4DBD1
:1006F0002078C0060AD52046FFF7F0FD06E0D4E9D1
:10070000012130209047206A401C2062381EA7F14A
:100710000107F4DC07E0D4E9012118F8050090474F
:10072000206A401C2062281EA5F10105F3DC20464A
:10073000FFF7EAFD2078000602D50220BDE8F08729
:100740000120FBE7074B70B50D467B4400F033F802
:100750000446284600F042F810B14FF0FF3070BD5B
:10076000204670BD172000004FF000020429C0F0A1
:10077000128010F0030C00F03780CCF1040CBCF1B7
:10078000020F18BF00F8012BA8BF20F8022BA1EB25
:100790000C0100F029B85FEAC17C24BF00F8012BEE
:1007A00000F8012B48BF00F8012B704701694A1C73
:1007B00002610878704700B58FB0CDE901310021A2
:1007C000059105497944CDE9031011466846FFF7C4
:1007D00015FE0FB000BD0000E5FFFFFF007B00F03D
:1007E000800070474FF0000200B5134694469646CD
:1007F000203922BFA0E80C50A0E80C50B1F1200134
:10080000BFF4F7AF090728BFA0E80C5048BF0CC0E1
:100810005DF804EB890028BF40F8042B08BF70473F
:1008200048BF20F8022B11F0804F18BF00F8012BB1
:1008300070470000004870476C0100207546FFF7C4
:10084000F9FFAE4605006946534620F0070085468D
:1008500018B020B5FFF7FEFCBDE820404FF00006C1
:100860004FF000074FF000084FF0000B21F0070198
:10087000AC46ACE8C009ACE8C009ACE8C009ACE8DB
:10088000C0098D46704710B50446AFF3008020467E
:10089000BDE81040FFF7C9BC00BFFEE77047F0B5E8
:1008A0000A4600210023002400BF3DE0012505FA8F
:1008B00001F3156805EA03049C4234D105684F0032
:1008C0000326BE40B543056015794E00B540066865
:1008D000354305601579012D02D01579022D16D109
:1008E00085684F000326BE40B543856055794E00AC
:1008F000B540866835438560456801268E40B5431E
:100900004560456896798E40B6B235434560C56806
:100910004F000326BE40B543C560D5794E00B540B3
:10092000C6683543C560491C1029BFD3F0BDF0B57A
:10093000002300244D07ED0E02FA05F3CE1000F15E
:10094000200555F826504E07F70E0F26BE40B5433A
:10095000CF1000F1200646F82750CE1000F12005F8
:1009600055F8265045EA0304CE1000F1200545F85D
:100970002640F0BD418370470183704700BFFEE70A
:1009800010B500200F4908600F48006820F440208F
:100990000D4908600846006840F480200860002087
:1009A0000A49C1F8A402022001F08CF9012005498E
:1009B0000860022001F086F900200449C1F8A00275
:1009C00010BD0000A082404200040240008040426E
:1009D0001CB50121022000F00DFE4FF44070009084
:1009E00001208DF8040000208DF8060003208DF80A
:1009F000050001208DF8070069460548FFF74FFF05
:100A00000120044908600449C1F8A4021CBD00008B
:100A100000040240A08240420080404210B5002005
:100A20000F4908600F48006820F440200D49086015
:100A30000846006840F48020086001200A49C1F897
:100A4000A402022001F03EF90120054908600220BD
:100A500001F038F900200449C1F8A00210BD0000DF
:100A6000A0824042000402400080404270B505462A
:100A700000241648006820F4402014490860084605
:100A800000680860002616E0002011490860022076
:100A900001F018F901200F49C1F8A0026006040E08
:100AA0000B487C38006808B1601CC4B2012001F01A
:100AB00009F9701CC6B2082EE6DB15B9FFF7AEFFC8
:100AC00001E0FFF75DFF204670BD0000000402401A
:100AD000A08240420080404270B50446154800683C
:100AE00020F44020134908600846006840F4802044
:100AF0000860002010490860002517E0E0090E4951
:100B0000091D08606006040E022001F0DBF80120D8
:100B10000A49C1F8A002022001F0D4F800200649D9
:100B20000860022001F0CEF8681CC5B2082DE5DB94
:100B300070BD000000040240A0824042008040429C
:100B400010B50F48006820F440200D4908600846A1
:100B5000006840F48020086001200A4908600A49C2
:100B6000C1F8A002042001F0ADF80020054908609A
:100B7000042001F0A7F800200349C1F8A00210BD2D
:100B800000040240A48240420080404210B50F4859
:100B9000006820F440200D4908600846006840F4D1
:100BA0008020086000200A4908600A49C1F8A402B0
:100BB000042001F087F80120054908600549C1F8C3
:100BC000A402042001F07EF810BD000000040240E1
:100BD000A08240420080404210B5002414480068C2
:100BE00020F440201249086008460068086001208F
:100BF0001049086001F066F801200F49C1F8A00211
:100C000001F060F80AE0601CC4B2FA2C06DDFFF7C0
:100C1000BDFF0AA0FFF756FB012010BD0548803834
:100C200000680028EFD10349091F086000BFF4E7FE
:100C300000040240A48240420080404241434B20D5
:100C40006D6973736564210D0A0000001CB50121F4
:100C5000202000F0CFFC4FF4C060009001208DF800
:100C6000040000208DF8060003208DF80500012007
:100C70008DF8070069460448FFF711FE4FF4C06184
:100C80000148FFF779FE1CBD0014024010B5002496
:100C9000FFF79EFE45A0FFF715FB80226B21682021
:100CA00000F06AFA642000F0F1FF46A0FFF70AFBAB
:100CB00000226B21682000F05FFA032000F017FA91
:100CC000002000F00BFA322000F038FA43A0FFF7C2
:100CD000F9FA00223821682000F04EFA45A0FFF70B
:100CE000F1FA00226A21682000F046FA47A0FFF7D7
:100CF000E9FA00222321682000F03EFA49A0FFF71C
:100D0000E1FA82223721682000F036FA4BA0FFF783
:100D1000D9FA7521682000F083F90446692C0DD0BA
:100D2000712C06D0732C0ED121464AA0FFF7CAFAC7
:100D30000FE021464EA0FFF7C5FA0AE0214653A076
:100D4000FFF7C0FA05E0214657A0FFF7BBFA0120E4
:100D500010BD00BF00210C2000F062F90446482CB1
:100D60000DD101220B210C2000F006FA322000F0F8
:100D70008DFF11220A210C2000F0FEF904E04FA0A3
:100D8000FFF7A0FA0120E3E73FA0FFF79BFA01225B
:100D90006B21682000F0F0F900226C21682000F03F
:100DA000EBF9322000F0CAF90020D1E752657365F3
:100DB000742E2E2E2E2E2E2E2E2E2E2E2E2E2E0D2E
:100DC0000A00000057616B6575702E2E2E2E2E2E98
:100DD0002E2E2E2E2E2E2E0D0A0000004469736139
:100DE000626C6520494E542E2E2E2E2E2E2E2E0D48
:100DF0000A00000044697361626C6520536C61767F
:100E0000654D6F64652E2E0D0A0000004469736104
:100E1000626C65204649464F2E2E2E2E2E2E2E0D0C
:100E20000A000000494E54206C6F772E2E2E2E2E75
:100E30002E2E2E2E2E2E2E0D0A00000052656164DD
:100E4000696E672049442E2E2E2E2E2E2E2E2E0D0C
:100E50000A0000004D505539323530204D6F646C1A
:100E6000652049443A30782532780D0A00000000A8
:100E70004D505539323530206F6E204368697020EF
:100E800049443A30782532780D0A00004D505536E5
:100E9000303530204D6F646C652049443A307825F8
:100EA00032780D0A00000000756E6B6E6F776E2051
:100EB00049443A30782532780D0A00000D0A414B3A
:100EC0003839363320696E6974206661696C6564EF
:100ED0002E0D0A0010B51EA0FFF7F4F923A0FFF7AE
:100EE000F1F902F009F918B926A0FFF7EBF902E0D1
:100EF00029A0FFF7E7F9782002F06AFE782001F0D8
:100F0000E1FF642002F00AFE01F09EF8274801F09C
:100F10006FFE044601F00CFA40F2731000F03CFF43
:100F2000642001F035F9012002F0F4FC18B920A08A
:100F3000FFF7C8F902E025A0FFF7C4F92AA0FFF7E0
:100F4000C1F902F045FF2EA0FFF7BCF910BD00006B
:100F50000D0A7374726174696E6720444D50206984
:100F60006E69742E2E2E0D0A00000000696E6974E1
:100F70002076696120696E765F6D70752E632E2E06
:100F80002E0D0A00696E765F6D70752E6320726596
:100F90006164792E0D0A0000696E765F6D70752EA2
:100FA00063206661696C65642E0D0A0000000020F4
:100FB0004D50555F444D505F496E69742829206635
:100FC000696E736865642E0D0A0000004D50555F10
:100FD000444D505F496E69742829206661696C65CB
:100FE000642E0D0A0000000052756E6E696E672057
:100FF00073656C6620746573742E0D0A0000000022
:101000000D0A4D5055207769746820444D50206971
:101010006E697420737563636565642E0D0A000044
:1010200070B504460D46FFF78BFD002141EA4401EF
:10103000C8B2FFF751FDFFF7CFFD2846FFF74CFD83
:10104000FFF7CAFDFFF77CFD012101EB4401C8B2A7
:10105000FFF742FDFFF7C0FD0020FFF707FD064642
:10106000FFF794FD304670BD2DE9F04106460F466E
:1010700014461D46FFF764FD002141EA4601C8B24F
:10108000FFF72AFDFFF7A8FD20B1FFF77FFD012044
:10109000BDE8F0813846FFF71FFDFFF79DFDFFF724
:1010A0004FFD012101EB4601C8B2FFF715FDFFF727
:1010B00093FD0DE0012C04D10020FFF7D7FC287030
:1010C00003E00120FFF7D2FC2870601EC4B26D1C43
:1010D000002CEFD1FFF75AFD0020D9E710B50446E8
:1010E000E006020E1C21682000F046F810BD10B585
:1010F0000446E006020E1B21682000F03DF810BDFA
:1011000070B504460025BC2C01DB012510E0622CE3
:1011100001DB02250CE02A2C01DB032508E0142C5E
:1011200001DB042504E00A2C01DB052500E006258F
:101130002A461A21682000F01FF870BD70B50446D9
:10114000B4F57A7F01DD4FF47A74042C00DA0424BC
:101150004FF47A7090FBF4F0401EC5B22A46192174
:10116000682000F009F80546264604EBD671C1F365
:101170004F00FFF7C5FF70BD70B504460D4616461B
:10118000FFF7DEFC002141EA4401C8B2FFF7A4FCEE
:10119000FFF722FD18B1FFF7F9FC012070BD2846CA
:1011A000FFF79AFCFFF718FD3046FFF795FCFFF7B5
:1011B00013FD18B1FFF7EAFC0120EFE7FFF7E6FCAB
:1011C0000020EBE72DE9F04105460E46174698460C
:1011D000FFF7B6FC002141EA4501C8B2FFF77CFCED
:1011E000FFF7FAFC20B1FFF7D1FC0120BDE8F08148
:1011F0003046FFF771FCFFF7EFFC00240CE018F815
:101200000400FFF769FCFFF7E7FC18B1FFF7BEFC2D
:101210000120EBE7601CC4B2BC42F0DBFFF7B6FC78
:101220000020E3E700BFFEE77047000070B5002133
:1012300000230F22C4781CB3174C246804F4E06424
:10124000C4F5E064C4F30721C1F10404E3B20A4128
:1012500044789C40E1B28478144021430C07210E6D
:101260000E4C05786155047804F01F050124AC404C
:1012700005786D11AD0005F1E025C5F8004109E0E4
:10128000047804F01F050124AC40054D0678761162
:1012900045F8264070BD00000CED00E000E400E0E1
:1012A00080E100E002490143024A116070470000FA
:1012B0000000FA050CED00E070B5002419E004F11F
:1012C000B001C8B2002100F063F90021084600F027
:1012D0005FF90021102000F05BF9002505E00121F5
:1012E000002000F055F9681CC5B2802DF7DB601CAA
:1012F000C4B2082CE3DB70BD1CB50121202000F036
:1013000079F90F20009001208DF8040000208DF85D
:10131000060003208DF8050001208DF807006946BE
:101320004748FFF7BCFA01214548FFF725FB642039
:1013300000F0ACFC01214248FFF71CFB642000F0E8
:10134000A5FC01213E48FFF717FB0021AE2000F06D
:101350001FF90021084600F01BF90021102000F0C1
:1013600017F90021402000F013F90021812000F03E
:101370000FF90021CF2000F00BF90021A12000F08F
:1013800007F90021C82000F003F90021A62000F091
:10139000FFF80021A82000F0FBF800213F2000F01A
:1013A000F7F80021D32000F0F3F80021084600F000
:1013B000EFF80021D52000F0EBF80021802000F0AC
:1013C000E7F80021D92000F0E3F80021F12000F037
:1013D000DFF80021DA2000F0DBF80021122000F015
:1013E000D7F80021DB2000F0D3F80021402000F0E6
:1013F000CFF80021202000F0CBF80021022000F0DF
:10140000C7F800218D2000F0C3F80021142000F05F
:10141000BFF80021A42000F0BBF80021A62000F0B6
:10142000B7F80021AF2000F0B3F80021AF2000F0A2
:10143000AFF8FFF741FF0021084600F003F81CBD9C
:101440000014024070B504460D4605F1B001C8B263
:10145000002100F09DF8102141EA1410002100F055
:1014600097F804F00F0141F00100002100F090F81E
:1014700070BD00002DE9F04107460E46904600255C
:101480000024A8F12000C5B27F2F02DD0027B01C88
:10149000C6B231463846FFF7D5FF002408E004EB1A
:1014A00005110F4A505C012100F072F8601CC4B2B3
:1014B000082CF4DB701CC1B23846FFF7C3FF0024D0
:1014C00009E004EB05110831054A505C012100F0E8
:1014D0005FF8601CC4B2082CF3DBBDE8F0810000AB
:1014E000524400082DE9F0470646894690461D46BD
:1014F0004FF0000A00242BE0281B401EC1B20A2036
:1015000002F05AFCB8FBF0F00A21B0FBF1F201FB4B
:101510001207BAF1000F0ED1681EA0420BDD47B9C9
:10152000082101FB0461C8B230224946FFF7A2FF3F
:101530000CE04FF0010A07F13001CAB2082101FBAB
:101540000461C8B24946FFF795FF00BF601CC4B2F2
:10155000AC42D1DBBDE8F0872DE9F04104460F46EF
:10156000154600260EE0AA5D39462046FFF782FFA9
:1015700004F10800C4B2782C02DD0024B81CC7B204
:10158000701CC6B2A85D0028EDD1BDE8F081000056
:1015900070B504460E4626B102211448FFF7ECF957
:1015A00003E002211148FFF7E5F9002517E00821C3
:1015B0000E48FFF7DFF904F0800020B104210B484A
:1015C000FFF7DAF903E004210848FFF7D3F908210F
:1015D0000648FFF7D1F96006040E681CC5B2082D55
:1015E000E5DB02210148FFF7C7F970BD0014024096
:1015F0007047000029B1064A12680243044B1A6082
:1016000004E0034A12688243014B1A6070470000ED
:101610003038024029B1064A12680243044B1A606E
:1016200004E0034A12688243014B1A6070470000CD
:101630004038024029B1064A12680243044B1A603E
:1016400004E0034A12688243014B1A6070470000AD
:1016500044380240F0B50021002200240225002673
:101660000223324F3F6807F00C0121B1042905D055
:10167000082937D105E02E4F076036E02D4F07606F
:1016800033E02A4F3F1F3F68C7F38056274F3F1F65
:101690003F6807F03F036EB1264FB7FBF3F7DFF863
:1016A0008CC0ACF1040CDCF800C0CCF3881C07FB48
:1016B0000CF40CE01E4FB7FBF3F7DFF870C0ACF191
:1016C000040CDCF800C0CCF3881C07FB0CF4174FAB
:1016D0003F1F3F68C7F301477F1C7D00B4FBF5F750
:1016E000076002E0124F076000BF00BF0F4F3F6866
:1016F00007F0F0010909104F7A5C0768D74047608E
:101700000A4F3F6807F4E051890A0B4F7A5C47683B
:10171000D7408760054F3F6807F46041490B064F8B
:101720007A5C4768D740C760F0BD000008380240C7
:101730000024F40000127A004A00002070470000E4
:101740000CB50020019000903448006840F48030CF
:101750003249086000BF3148006800F40030009052
:101760000198401C0190009818B90198B0F5A04F5D
:10177000F1D12A48006800F4003010B10120009037
:1017800001E0002000900098012846D12348403015
:10179000006840F0805021494031086020480068CE
:1017A00040F440401E4908601C48083000681B494E
:1017B000083108600846006840F4004008600846A8
:1017C000006840F4A05008601648091F0860081F10
:1017D000006840F08070091F086000BF0F48006873
:1017E00000F000700028F9D040F205700E49086042
:1017F0000A480830006820F00300084908310860F2
:101800000846006840F00200086000BF0348083046
:10181000006800F00C000828F8D10CBD0038024028
:101820000070004008544007003C0240042808D1E2
:101830004FF0E021096941F004014FF0E02211610D
:1018400007E04FF0E021096921F004014FF0E022A8
:10185000116170477047000010B51548006840F4EA
:101860007000134908601348006840F001001149F6
:10187000086000200F49083108600E4800680E49D2
:1018800008400C4908600D48091D0860081F0068E1
:1018900020F48020091F0860002006490C310860F0
:1018A000FFF74EFF4FF0006001498039086010BD1E
:1018B00088ED00E000380240FFFFF6FE1030002403
:1018C00010B50121054800F04AF8012801D104496A
:1018D00008700121014800F033F810BD00040040F9
:1018E0003F0000207FB505460C4601210220FFF78E
:1018F00091FE0295ADF804400020ADF80600ADF869
:101900000C0001A90D4800F045F8012211460B48D2
:1019100000F036F80121094800F015F81D208DF877
:10192000000001208DF8010003208DF80200012045
:101930008DF803006846FFF779FC7FBD0004004086
:10194000CA430282704721B1028842F0010202803C
:1019500004E002884FF6FE731A400280704730B5EB
:101960000246002000230024158A05EA0103958918
:1019700005EA010413B10CB1012000E0002030BDE4
:101980001AB183890B43838102E083898B4383816E
:101990007047000000220288184B98420ED0184B66
:1019A00098420BD0B0F1804F08D0164B984205D02A
:1019B000154B984202D0154B984204D14FF68F73C5
:1019C0001A404B881A43124B984207D0114B984249
:1019D00004D04FF6FF431A400B891A4302804B682C
:1019E000C3620B880385054B984202D0044B984292
:1019F00001D18B7A03860123838270470000014066
:101A0000000401400004004000080040000C0040B9
:101A1000001000400014004010B540F225511D4850
:101A200000F04AF810B31B4800F000F9C4B21A489D
:101A3000008800F40040C8B91748008800F48040CE
:101A400060B10A2C03D000201349088020E012481E
:101A5000008840F400401049088019E00D2C06D1A0
:101A60000D48008840F480400B49088010E00A4887
:101A70000088C0F30D0009490C5407480088401C39
:101A80000549088008460088C72801DD0020088035
:101A900010BD00000010014048000020940000200C
:101AA00021B1828942F40052828104E082894DF69C
:101AB000FF731A408281704770B5024600240023EC
:101AC0000025002040F66A16B14200D100BFC1F3E4
:101AD000421501F01F03012606FA03F3012D02D17E
:101AE0009689334006E0022D02D1168A334001E088
:101AF000968A33400C12012606FA04F41688344004
:101B000013B10CB1012000E0002070BDF0B5034618
:101B1000002400260025002040F66A17B94200D1B3
:101B200000BF1846C1F3421401F01F06012707FA4F
:101B300006F5012C01D10C3004E0022C01D110304B
:101B400000E014301AB107682F43076002E007680D
:101B5000AF430760F0BD00002DE9FF4705460E4684
:101B60000024A14600BFA046B08900B100BF2C8A66
:101B700024F44054F08804432C82AC8941F20C6078
:101B80008443B08831890843718908430443AC8198
:101B9000AC8A24F44074B0890443AC826846FFF7F1
:101BA00059FD2048854202D01F48854202D1DDF808
:101BB0000C9001E0DDF80890A88900F4004040B1E5
:101BC00009EBC90000EB091031684900B0FBF1F7DF
:101BD00007E009EBC90000EB091031688900B0FB90
:101BE000F1F76420B7FBF0F004012009642101FB48
:101BF0001078A88900F4004040B1322000EBC80002
:101C0000B0FBF1F000F00700044308E0322000EBE5
:101C100008106421B0FBF1F000F00F0004432C81A8
:101C2000BDE8FF870010014000140140014688888C
:101C3000C0F30800704700BFFEE730380A2801D221
:101C40000120704700207047014600BF7047000028
:101C500010B504466FF00400FFF7E8FDE11704EB50
:101C60005171C1F3C701074A11701046007800EBAB
:101C70004001C1EBC0104FF6FF7101EAC0000249FC
:101C8000088010BD400000204200002070B50446CE
:101C90004FF4077094FBF0F0C6B24FF4077094FB5A
:101CA000F0F100FB114085B205E04FF4077000F041
:101CB0002FF8701EC6B2002EF7D115B1284600F0DD
:101CC00027F870BD0146114A12784A434FF0E023CD
:101CD0005A6100229A611A46126942F001021A61A1
:101CE00000BF4FF0E022106900F001021AB100F4C9
:101CF0008032002AF5D04FF0E022126922F0010272
:101D00004FF0E0231A6100229A61704740000020E2
:101D10000146114A12884A434FF0E0235A610022DB
:101D20009A611A46126942F001021A6100BF4FF02F
:101D3000E022106900F001021AB100F48032002A9A
:101D4000F5D04FF0E022126922F001024FF0E023BB
:101D50001A6100229A6170474200002038B504469B
:101D600064B120208DF8000028208DF8010030207B
:101D70008DF8020038208DF8030004E0A32204212E
:101D80006846FEF703FC6A46042140F69E2001F0F7
:101D9000D3FF01F06DFB38BD3EB5044602208DF83F
:101DA0000000CA208DF80100E3208DF80200092010
:101DB0008DF803006A460421682001F0BDFFA320CE
:101DC0008DF8000004F0400048B1C0208DF80100FB
:101DD000C8208DF80200C2208DF8030006E0A32081
:101DE0008DF801008DF802008DF8030004F4C07036
:101DF00048B1C4208DF80400CC208DF80500C62021
:101E00008DF8060006E0A3208DF804008DF805008B
:101E10008DF80600A3208DF807008DF808008DF8D6
:101E200009006A460A2140F6A72001F085FF04F068
:101E3000030018B120208DF8000002E0D8208DF8B2
:101E400000006A46012140F6B62001F075FF04F05B
:101E5000200018B1012000F0ADF802E0002000F0F1
:101E6000A9F804F4C07008B304F4807060B1B22023
:101E70008DF800008B208DF80100B6208DF802004F
:101E80009B208DF803000BE0B0208DF8000080202F
:101E90008DF80100B4208DF8020090208DF8030029
:101EA0006A46042140F6A22001F046FF04F001003A
:101EB00020B3F8208DF800006A4601214FF40B6032
:101EC00001F03AFFFA21072000F046FB072000F05E
:101ED0000DFB012000F02DFB642000F01DFC4FF4F1
:101EE000FA7000F02CFCC821304800F0BDFA282020
:101EF00000F0D6FA0A2000F0E6FA08E0D8208DF8C3
:101F000000006A4601214FF40B6001F015FF04F058
:101F1000020018B1D9208DF8000002E0D8208DF819
:101F200000006A46012140F23D7001F005FF04F017
:101F3000040018B1012000F069F802E0002000F070
:101F400065F804F0100018B10120FFF707FF02E068
:101F50000020FFF703FF44F008001549488101F015
:101F600087FA00201249887304F0400018B108462F
:101F7000807B801D887304F4C07020B10C48807B86
:101F8000801D0B49887304F0140020B10848807B41
:101F900010300749887304F0030020B10448807BA7
:101FA000001D0349887300203EBD000009E3CA02FA
:101FB0005C0100203EB504466CB10EA1D1E90020C1
:101FC0008968CDE9002002916A4609214FF49760A3
:101FD00001F0B2FE3EBD0AA2D2E900109268CDE93E
:101FE000010200916A4609214FF4976001F0A4FEB6
:101FF000F0E70000B8AAB38DB4980D355D0000007D
:10200000B8AAAAAAB088C3C5C700000038B504465C
:1020100064B1C0208DF80000C2208DF80100C420FA
:102020008DF80200C6208DF8030004E08B22042105
:102030006846FEF7ABFA6A46042140F6982001F0A4
:102040007BFE01F015FA38BD10B5C8234FF480624D
:10205000024940F6F63001F0E1F810BDA44A00084C
:1020600070B588B0064601A800F08AFFBDF80400EC
:102070000021C90341EA5045C4034448007A00F0F6
:10208000030056F8200005904048007A00F0040054
:1020900010B10598404205903C48007AC0F3C10059
:1020A00056F8200006903948007A00F0200010B160
:1020B0000698404206903548007AC0F3811056F8E1
:1020C000200007903148008900F4807010B1079813
:1020D000404207900598C117A0FB042301FB04317F
:1020E00000FB0510810041EA927005900698C11727
:1020F000A0FB042301FB043100FB0510810041EA31
:10210000927006900798C117A0FB042301FB0431CD
:1021100000FB0510810041EA927007900598000EBF
:102120008DF808000598000C8DF809000598000A44
:102130008DF80A000598C0B28DF80B000698000EC5
:102140008DF80C000698000C8DF80D000698000A1A
:102150008DF80E000698C0B28DF80F000798000E9B
:102160008DF810000798000C8DF811000798000AF0
:102170008DF812000798C0B28DF8130002AA0C2146
:102180004FF4257001F0D8FD08B070BD5C0100204F
:1021900030B585B0044616A207CA02AB07C3C82CE7
:1021A00003DD4FF0FF3005B030BDC82090FBF4F0E8
:1021B000401E85B2280A8DF80000E8B28DF80100B3
:1021C0006A46022140F2162001F0B6FD10B14FF030
:1021D000FF30E8E702AA0C2140F6C12001F0ACFD77
:1021E00010B14FF0FF30DEE7044884810020DAE7C9
:1021F000FEF2ABC4AAF1DFDFBBAFDFDF5C01002082
:102200001FB504464848007A00F0030054F8200047
:1022100001904548007A00F0040010B10198404256
:1022200001904148007AC0F3C10054F820000290A8
:102230003D48007A00F0200010B102984042029020
:102240003948007AC0F3811054F8200003903648D2
:10225000008900F4807010B1039840420390334924
:10226000019880FB0101800F40EA810001902F4915
:10227000029880FB0110820042EA917002902B4983
:10228000039880FB0110820042EA9170039001984C
:10229000000E8DF800000198000C8DF801000198E7
:1022A000000A8DF802000198C0B28DF803006A465A
:1022B00004214FF4747001F03FFD18B14FF0FF306E
:1022C00004B010BD0298000E8DF800000298000CBA
:1022D0008DF801000298000A8DF802000298C0B241
:1022E0008DF803006A4604214FF4757001F024FD57
:1022F00010B14FF0FF30E3E70398000E8DF80000B7
:102300000398000C8DF801000398000A8DF8020074
:102310000398C0B28DF803006A4604214FF476702A
:1023200001F00AFDCCE700005C01002009E3CA02CD
:1023300010B586B0044647A00068039046A0006828
:10234000029046A00068019045A00068009004F04B
:10235000030003A9085C8DF8140003A8C4F3C101AD
:10236000405C8DF8150003A8C4F38111405C8DF822
:10237000160004F0030002A9085C8DF8100002A802
:10238000C4F3C101405C8DF8110002A8C4F38111AF
:10239000405C8DF8120005AA032140F2264001F0AE
:1023A000CBFC18B14FF0FF3006B010BD04AA0321DA
:1023B00040F22A4001F0C0FC10B14FF0FF30F3E7CB
:1023C000019805900098049004F0040058B19DF81D
:1023D000140040F001008DF814009DF8100040F04A
:1023E00001008DF8100004F0200058B19DF8150090
:1023F00040F001008DF815009DF8110040F001003B
:102400008DF8110004F4807058B19DF8160040F06A
:1024100001008DF816009DF8120040F001008DF8C3
:10242000120005AA03214FF4886001F085FC10B169
:102430004FF0FF30B8E704AA032140F2314001F029
:102440007BFC10B14FF0FF30AEE70648048100205E
:10245000AAE700004CCD6C000CC92C003656760063
:10246000264666005C010020F8B505460E464FF48E
:102470007A7095FBF0F000FB06F4200E8DF800005A
:10248000200C8DF80100200A8DF80200E0B28DF8D2
:1024900003006A4604214FF4AE7001F04DFCF8BD14
:1024A00038B50446052094FBF0F084B220128DF874
:1024B0000000E0B28DF801006A4602214FF4AD70D1
:1024C00001F03AFC38BD38B50446052094FBF0F025
:1024D00084B220128DF80000E0B28DF801006A4647
:1024E00002214FF4AC7001F027FC38BD38B504462A
:1024F0000020009004F0010020B19DF8000040F0A1
:102500003000009004F0020020B19DF8000040F07F
:102510000C00009004F0040020B19DF8000040F091
:10252000030000906A4601214FF4A47001F004FCFE
:1025300038BD38B50446012C01DA012402E0042C30
:1025400000DD0424601EC0B200906A46012140F202
:102550004F1001F0F1FB38BDF0B52DED028B83B0CB
:1025600006460F4606F0070010B1B7F5C86F05DD47
:102570004FF0FF3003B0BDEC028BF0BD00EE107ADF
:10258000B8EE400ADFED5B0A80EE208A01A800F079
:10259000D1FC9DF80400022806D0042817D0082892
:1025A00028D010284CD138E09FED530A28EE000ABD
:1025B000BCEEC00A10EE100A84B29FED500A28EE5D
:1025C000000ABCEEC00A10EE100A85B23BE09FED97
:1025D0004C0A28EE000ABCEEC00A10EE100A84B2C3
:1025E0009FED480A28EE000ABCEEC00A10EE100A61
:1025F00085B228E09FED440A28EE000ABCEEC00A2E
:1026000010EE100A84B29FED410A28EE000ABCEEDB
:10261000C00A10EE100A85B215E09FED3D0A28EEC3
:10262000000ABCEEC00A10EE100A84B29FED390A0F
:1026300028EE000ABCEEC00A10EE100A85B202E0D5
:102640004FF0FF3096E700BF20128DF80800E0B28F
:102650008DF8090028128DF80A00E8B28DF80B00F9
:1026600006F00100A0B102AA02214FF4EA7001F0C5
:1026700063FB10B14FF0FF307CE70DF10A0202213D
:102680004FF4927001F058FB10B14FF0FF3071E73A
:1026900006F00200A0B102AA02214FF4EC7001F092
:1026A0004BFB10B14FF0FF3064E70DF10A0202213D
:1026B0004FF4947001F040FB10B14FF0FF3059E738
:1026C00006F00400A0B102AA02214FF4EE7001F05E
:1026D00033FB10B14FF0FF304CE70DF10A0202213D
:1026E0004FF4967001F028FB10B14FF0FF3041E736
:1026F00000203FE7000048430000804600004046BD
:10270000000000460000C045000080450000404534
:10271000000000450000C04438B50446052094FB85
:10272000F0F085B228128DF80000E8B28DF80100B3
:102730006A4602214FF4EF7001F0FEFA38BD38B559
:102740000446052094FBF0F085B228128DF80000B5
:10275000E8B28DF801006A4602214FF4ED7001F0F5
:10276000EBFA38BD00BF054A128802F04002002A89
:10277000F9D0C2B2014B9A807047000000100140AE
:102780002DE9F04F87B005460C46914601208DF8A3
:10279000100000208DF81100FE4A1268517DFD4A9C
:1027A0005268107804AB0222FEF70CFD20B14FF006
:1027B000FF3007B0BDE8F08FC820FFF767FA0020B0
:1027C0008DF81000F34A1268517CF24A5268107872
:1027D00004AB0122FEF7F6FC10B14FF0FF30E8E742
:1027E000EC4A12685179EB4A5268107804AB012226
:1027F000FEF7E8FC10B14FF0FF30DAE7E54A126867
:10280000517DE44A5268107804AB0122FEF7DAFCED
:1028100010B14FF0FF30CCE7DE4A1268917EDD4AFE
:102820005268107804AB0122FEF7CCFC10B14FF0D7
:10283000FF30BEE7D74A12681179D64A526810783D
:1028400004AB0122FEF7BEFC10B14FF0FF30B0E741
:102850000C208DF81000CF4A12681179CD4A5268C9
:10286000107804AB0122FEF7ADFC10B14FF0FF3041
:102870009FE70F20FFF70AFAC648406B407A8DF8B1
:102880001000C44A12689178C24A5268107804ABAA
:102890000122FEF797FC10B14FF0FF3089E7BD48E9
:1028A000406B007A8DF81000BA4A12685178B94A24
:1028B0005268107804AB0122FEF784FC10B14FF08F
:1028C000FF3076E7B9F1000F07D0B248406B807A4D
:1028D00040F0E0008DF8100004E0AE48406B807AD4
:1028E0008DF81000AB4A12689179AA4A52681078A4
:1028F00004AB0122FEF766FC10B14FF0FF3058E741
:10290000B9F1000F07D0A348406BC07A40F0E00057
:102910008DF8100003E0A048C07A8DF810009D4AA1
:102920001268D1799B4A5268107804AB0122FEF7F5
:1029300049FC10B14FF0FF303BE7B9F1000F02D076
:10294000C820FFF7A3F940208DF81000914A1268C3
:102950001179904A5268107804AB0122FEF732FCDC
:1029600010B14FF0FF3024E778208DF81000894A2D
:1029700012685179874A5268107804AB0122FEF739
:1029800021FC10B14FF0FF3013E783498889FFF72E
:102990007DF900208DF810007E4A126851797D4A39
:1029A0005268107804AB0122FEF70CFC10B14FF016
:1029B000FF30FEE6774A1268117B764A526810783B
:1029C00004AB0222FEF750FB10B14FF0FF30F0E6EF
:1029D0009DF811009DF8101040EA012B0C209BFB84
:1029E000F0F0C6B20020A86068602860A060606057
:1029F0002060824665E0674A1268517B654A5268EA
:102A0000107804AB0C22FEF72FFB10B14FF0FF3013
:102A1000CFE69DF811009DF8101040EA012000B2A9
:102A2000ADF808009DF813009DF8121040EA01204F
:102A300000B2ADF80A009DF815009DF8141040EAA8
:102A4000012000B2ADF80C00BDF908102068084460
:102A50002060BDF90A10606808446060BDF90C1080
:102A6000A0680844A0609DF817009DF8161040EA81
:102A7000012000B2ADF800009DF819009DF8181073
:102A800040EA012000B2ADF802009DF81B009DF85D
:102A90001A1040EA012000B2ADF80400BDF90010A0
:102AA000286808442860BDF9021068680844686016
:102AB000BDF90410A8680844A8600AF1010000F0FC
:102AC000FF0AB24597DB3448D0F800C02868C11728
:102AD000090441EA10410704624600233846FDF725
:102AE000CCFB32460023CDE90201FDF7C6FB28608E
:102AF0002948D0F800C06868C117090441EA1041AC
:102B00000704624600233846FDF7B7FB3246002330
:102B1000CDE90201FDF7B1FB68601F48D0F800C0A5
:102B2000A868C117090441EA10410704624600235E
:102B30003846FDF7A2FB32460023CDE90201FDF73E
:102B40009CFBA8601448D0F804C02168C817000492
:102B500040EA11480F046246002338464146FDF71B
:102B60008CFB32460023CDE90201FDF786FB206095
:102B70000948D0F804C06068C117090441EA10414F
:102B80000704624600233846FDF777FB32460023F0
:102B900004E000005C0000207C4A0008CDE902014E
:102BA000FDF76BFB60601148D0F804C0A068C11746
:102BB000090441EA10410704624600233846FDF744
:102BC0005CFB32460023CDE90201FDF756FBA06015
:102BD000A068002804DDA068A0F58030A06003E0B4
:102BE000A06800F58030A0600020E2E57C4A000883
:102BF00070B50546284600F00FF80446E81C00F0C2
:102C00000BF844EAC00084B2A81D00F005F844EABD
:102C1000801084B2204670BD014691F90020002A40
:102C200001DD00201EE091F90020002A01DA0420D5
:102C300018E091F90120002A01DD012012E091F94C
:102C40000120002A01DA05200CE091F90220002A77
:102C500001DD022006E091F90220002A01DA0620B7
:102C600000E00720704700004FF000090027002512
:102C700000264FF4A060FEF715FBA820FEF7E8FF42
:102C80004FF4E13001F08AFAFDF7E0FFFEF734FB84
:102C9000FEF712FB42F2CF0141F28730FEF722FE2F
:102CA000FDF7F4FF18B157A0FDF70CFB02E05EA0A2
:102CB000FDF708FBFEF70EF9A2E064A2002108462A
:102CC000FEF74AFC06233A4600214620FEF70AFC9E
:102CD00061A202210020FEF73FFC06232A460221C2
:102CE0004620FEF7FFFB5DA204210020FEF734FC26
:102CF0000623324604214620FEF7F4FB584800889C
:102D000000F4004000286BD0554890F8008055A092
:102D1000FDF7D8FA00245AE05748005D642854D1E2
:102D20005549601C085C61284FD1A01C085C7428C0
:102D30004BD15248006808B9012000E000204F49FB
:102D400008604D49201D085C30380A46E11C515C82
:102D5000303901EB810100EB410087B2B7F5FA7F12
:102D600001DD4FF4FA774449E01D085C30380A462B
:102D7000A11D515C303901EB810100EB410085B2AE
:102D8000A02D01DC002D00DA00253B4904F10A00EA
:102D9000085C30380A4604F10901515C303901EB16
:102DA000810100EB410086B2782E01DC002E00DAB2
:102DB0000026394632A0FDF785FA294634A0FDF7F2
:102DC00081FA314635A0FDF77DFA601CC4B2444556
:102DD000A2DB13A0FDF776FA0020214908800FE05E
:102DE00009F101001FFA80F9C82099FBF0F100FBFE
:102DF000119010B92CA0FDF765FA0A20FEF746FFE6
:102E00005BE700004D505520776974686F7574203A
:102E1000444D5020696E6974204661696C65642E6A
:102E20000D0A0D0A000000004D50552077697468A6
:102E30006F75757420444D5020696E6974207375E8
:102E400063636565642E0D0A0D0A0000646973747E
:102E5000616E6365000000007800000079000000EA
:102E6000480000200D0AC4FAB7A2CBCDB5C4CFFBF1
:102E7000CFA2CEAA3A0D0A0094000020A4824242BA
:102E800064697374616E63652069732025640A0048
:102E9000782069732025640A000000007920697396
:102EA0002025640A00000000C7EBCAE4C8EBCAFD95
:102EB000BEDD2CD2D4BBD8B3B5BCFCBDE1CAF80D85
:102EC0000A00000070B50446002624F001041848EA
:102ED00090F8240008B1002070BD1548807A10B920
:102EE0004FF0FF30F8E71248057C807A2040104907
:102EF00008740846007CA04202D04FF0FF3600E084
:102F0000002614B90A48007D18B1012000F0D4FF52
:102F100002E0002000F0D0FF3CB100F0A9FA20B19F
:102F2000034805744FF0FF30D6E73046D4E7000081
:102F30005C00002001461148407A30B1012807D0DA
:102F4000022808D003280CD108E0022008700BE00A
:102F50000420087008E00820087005E010200870C0
:102F600002E04FF0FF30704700BF0448C07C18B14A
:102F700008784006000E08700020F4E75C0000208E
:102F800001461348407A30B1012808D002280AD0FF
:102F9000032810D10BE04FF4804008800EE041F68A
:102FA0009C7008800AE04FF48050088006E04FF4DF
:102FB0000060088002E04FF0FF30704700BF044817
:102FC000C07C10B10888401008800020F5E70000A0
:102FD0005C00002001460248007C08700020704719
:102FE0005C00002001460F48007A30B1012807D06C
:102FF000022809D003280FD10AE0FA2008800EE049
:103000004FF4FA7008800AE04FF47A70088006E006
:103010004FF4FA60088002E00020088000BF00BF83
:10302000002070475C00002001461248007A30B151
:10303000012809D002280CD0032814D10EE09FEDFE
:103040000E0A81ED000A11E09FED0C0A81ED000AE5
:103050000CE09FED0B0A81ED000A07E09FED090AE5
:1030600081ED000A02E04FF0FF30704700BF002002
:10307000FBE700005C0000200000034300008342E7
:10308000333303423333834101461248C07A082860
:1030900017D2DFE800F01704070A0D101318BC2040
:1030A000088013E06220088010E02A2008800DE0EC
:1030B000142008800AE00A20088007E00520088024
:1030C00004E000BF00BF0020088000BF00BF002058
:1030D000704700005C0000200146064890F824007C
:1030E00010B14FF0FF3070470248C08908800020BF
:1030F000F9E700005C0000201CB580208DF800007E
:10310000454A1268517D444A526810786B46012244
:10311000FEF758F810B14FF0FF301CBD6420FEF7E9
:10312000B5FD00208DF800003B4A1268517D3A4AF7
:10313000526810786B460122FEF744F810B14FF048
:10314000FF30EAE748208DF80000334A1268117A10
:10315000314A526810786B460122FEF733F810B1FD
:103160004FF0FF30D9E7FF212B488172FF202A4919
:103170000872FF2128484172C1724FF6FF71C18168
:10318000FF21017481744FF6FF71018501210173E4
:1031900080F82210002180F8231041750175163047
:1031A000016041608160163880F8241080F8251095
:1031B000C1844FF4FA6000F0F5FB10B14FF0FF301E
:1031C000ABE7022000F08EFA10B14FF0FF30A4E719
:1031D0002A2000F061FC10B14FF0FF309DE7322053
:1031E00000F09CFC10B14FF0FF3096E70020FFF795
:1031F00069FE10B14FF0FF308FE700F0A5FE0A2006
:1032000000F058FB10B14FF0FF3086E7002000F0CF
:10321000DFFC002081E700005C0000202DE9F04386
:1032200085B005460E4690469946294890F82500F7
:1032300020B14FF0FF3005B0BDE8F08316B94FF074
:10324000FF30F8E7002423E0281B102801DD1020C0
:1032500000E0281B87B232193946204600F06CFD89
:1032600010B14FF0FF30E6E701AA3946204600F0E2
:10327000BFF810B14FF0FF30DDE730193A4601A931
:10328000FDF758F910B16FF00100D4E7E01984B2EE
:10329000AC42D9DB4FEA28208DF8000008F0FF008F
:1032A0008DF801000A4A1268517F094A5268107865
:1032B0006B460222FDF786FF10B14FF0FF30BAE7F0
:1032C0000121034880F82510A0F826900020B2E7DD
:1032D0005C00002038B50446282C02DD4FF0FF309A
:1032E00038BDDCB9002000F0A1FB00208DF8000003
:1032F00007208DF801003D4A1268517D3B4A526813
:1033000010786B460222FDF75DFF10B14FF0FF30E1
:10331000E6E70021354801750020E1E7012000F0D3
:1033200085FB012C03D102208DF8000033E0022C34
:1033300003D103208DF800002DE0052C03DC0420D0
:103340008DF8000027E00A2C03DC05208DF8000032
:1033500021E0142C03DC06208DF800001BE0282C53
:1033600003DC07208DF8000015E0502C03DC08205A
:103370008DF800000FE0A02C03DC09208DF8000080
:1033800009E0B4F5A07F03DC0A208DF8000002E01C
:103390000B208DF80000154A1268517A134A5268C2
:1033A00010786B460122FDF70DFF10B14FF0FF3092
:1033B00096E720208DF800000C4A1268517D0B4AD8
:1033C000526810786B460122FDF7FCFE10B14FF0F9
:1033D000FF3085E708210548817200210173012132
:1033E00001750020FFF76EFD002079E75C000020EA
:1033F000F8B504460D46164616B94FF0FF30F8BD35
:103400001A48807A10B94FF0FF30F8E720128DF893
:103410000000E0B28DF801009DF801002844134936
:1034200049684989884202DD4FF0FF30E7E70F4ADB
:103430001268D17E0D4A526810786B460222FDF761
:10344000C1FE10B14FF0FF30D9E7084A1268117E73
:10345000064A5268107833462A46FDF705FE10B139
:103460004FF0FF30CBE70020C9E700005C000020F0
:1034700008B57048807A10B94FF0FF3008BD0020C1
:1034800000906C4A1268517C6A4A526810786B4608
:103490000122FDF797FE10B14FF0FF30EEE7654ACD
:1034A00012685179634A526810786B460122FDF721
:1034B00089FE10B14FF0FF30E0E75E4A12681179E3
:1034C0005C4A526810786B460122FDF77BFE10B112
:1034D0004FF0FF30D2E7574890F82400002853D02F
:1034E0000C200090534A12681179524A52681078A1
:1034F0006B460122FDF766FE10B14FF0FF30BDE7CD
:103500003220FEF7C3FBC02000904A48807A00F0CA
:10351000010020B19DF8000040F020000090454AD5
:1035200012681179434A526810786B460122FDF700
:1035300049FE10B14FF0FF30A0E73E48407C10B18B
:103540000220009001E0002000903A4A1268517C6D
:10355000384A526810786B460122FDF733FE10B1ED
:103560004FF0FF308AE700200090324A126851790C
:10357000304A526810786B460122FDF723FE00287E
:1035800055D04FF0FF3079E704200090294A1268A7
:103590001179284A526810786B460122FDF712FE15
:1035A00010B14FF0FF3069E72248807C20B92148F4
:1035B000807A00F0010010B94020009001E0602006
:1035C00000901C4A126811791A4A526810786B46AA
:1035D0000122FDF7F7FD10B14FF0FF304EE732202A
:1035E000FEF754FB1348407C10B10120009001E02D
:1035F000002000900F4A1268517C0E4A52681078E1
:103600006B460122FDF7DEFD10B14FF0FF3035E7CC
:10361000084A12685179074A52681078054B1033EE
:103620000122FDF7CFFD10B14FF0FF3026E700205B
:1036300024E700005C0000202DE9F04186B0074639
:103640008846274890F8240020B1002000F062F955
:10365000012400E0002403A8FFF7C4FC05A8FFF73D
:1036600069FC01A8FFF710FD02A8FFF735FD1C4813
:10367000867A04A8FFF7AEFC002241463846FFF7E1
:103680007FF80725FF2016490872FF211448417270
:10369000C1724FF6FF71C181FF2181720174012156
:1036A0000173BDF80C0000F07DF99DF8140000F0E6
:1036B00019F8BDF8040000F0EFF9BDF8080000F0BB
:1036C0002DFA304600F084FA9DF81000FFF7FAFB5F
:1036D00014B1012000F01EF9284606B0BDE8F081C3
:1036E0005C00002038B504461E48807A10B94FF0BF
:1036F000FF3038BD022C06D0042C07D0082C08D08F
:10370000102C0CD108E0002000900BE00820009065
:1037100008E01020009005E01820009002E04FF033
:10372000FF30E6E700BF0F48407A9DF80010B0EB8D
:10373000E10F01D10020DCE70A4A1268D179094A79
:10374000526810786B460122FDF73CFD10B14FF036
:10375000FF30CEE79DF80000C11002484172002002
:10376000C7E700005C00002038B504465048807C64
:10377000A04201D1002038BD002C46D04C4A12682E
:1037800011794B4A526810786B460122FDF76CFCA8
:1037900010B14FF0FF30EEE79DF8000020F0200060
:1037A0000090434A12681179414A526810786B467A
:1037B0000122FDF707FD10B14FF0FF30DBE70320DA
:1037C000FEF764FA02200090394890F8220020B1F8
:1037D0009DF8000040F080000090354890F82300EC
:1037E00020B19DF8000040F030000090304A12688F
:1037F000D17D2F4A526810786B460122FDF7E2FC1A
:10380000002851D04FF0FF30B5E7294A12681179EE
:10381000274A526810786B460122FDF725FC10B14B
:103820004FF0FF30A7E72248807A00F0010028B16E
:103830009DF8000040F02000009004E09DF800009A
:1038400020F0200000901A4A12681179184A526834
:1038500010786B460122FDF7B5FC10B14FF0FF3038
:1038600089E70320FEF712FA114890F8220010B100
:103870008020009001E0002000900D4890F8230087
:1038800020B19DF8000040F030000090084A126816
:10389000D17D074A526810786B460122FDF792FCF1
:1038A00010B14FF0FF3066E701488474002062E7F2
:1038B0005C00002038B504462CB11548C089A042F0
:1038C00001DB642C02DD4FF0FF3038BD1048C089A9
:1038D00090FBF4F0401EC0B200900D4A126892F8BE
:1038E00024100B4A526810786B460122FDF76AFCDF
:1038F00010B14FF0FF30E8E70548C1899DF800009E
:10390000401C91FBF0F081B2014801850020DCE70A
:103910005C00002038B50446214890F82400A042FD
:1039200001D1002038BD24B31D4890F8250010B9FE
:103930004FF0FF30F6E7002000F0BEFA0020FFF75E
:1039400013FF1749C88C00F0E9F8002000901449D3
:10395000496808786B4601222321FDF733FC0121D9
:103960000F4880F82410012000F0A6FAFFF780FD30
:1039700013E0002000F0A0FA0948007C00900849FC
:10398000496808786B4601222321FDF71BFC0021C2
:10399000034880F82410FFF76BFD0020C2E7000009
:1039A0005C00002038B504461F48807A10B94FF0FB
:1039B000FF3038BDFA2C09D0B4F5FA7F09D0B4F540
:1039C0007A7F09D0B4F5FA6F0CD108E0002000909E
:1039D0000BE00820009008E01020009005E018207F
:1039E000009002E04FF0FF30E3E700BF0E48007A9E
:1039F0009DF80010B0EBE10F01D10020D9E70A4A91
:103A000012689179084A526810786B460122FDF7D6
:103A1000D9FB10B14FF0FF30CBE79DF80000C0108C
:103A2000014908720020C4E75C00002038B5044654
:103A3000184890F82300A04201D1002038BD14B1ED
:103A40003020009001E0002000901248807C20B1DE
:103A50009DF8000040F0020000900E4890F822000F
:103A600020B19DF8000040F080000090094A1268E3
:103A7000D17D084A526810786B460122FDF7A2FBFF
:103A800010B14FF0FF30D9E7024880F82340002002
:103A9000D4E700005C00002038B504461E48807A58
:103AA00010B94FF0FF3038BDBC2C02DB0120009074
:103AB00015E0622C02DB0220009010E02A2C02DBD1
:103AC000032000900BE0142C02DB0420009006E0A1
:103AD0000A2C02DB0520009001E0062000900E4831
:103AE000C07A9DF80010884201D10020DBE70A4A25
:103AF00012689178084A526810786B460122FDF7E7
:103B000061FB10B14FF0FF30CDE79DF80010024887
:103B1000C1720020C7E700005C00002038B50446F1
:103B20002A48807A10B94FF0FF3038BD274890F806
:103B3000240010B14FF0FF30F7E72448007D50B16A
:103B400034B1282C04DCE0B2FFF7C4FB0020ECE722
:103B50000020FFF7BFFB042C01DA042404E0B4F5D5
:103B60007A7F01DD4FF47A744FF47A7090FBF4F0B1
:103B7000401EC0B20090154A12685178134A52682C
:103B800010786B460122FDF71DFB10B14FF0FF309E
:103B9000CBE79DF80000401C4FF47A7191FBF0F0E8
:103BA00081B20A48C1810146098D642902DA0146C1
:103BB000098D00E064210846FFF77CFE0349C989AE
:103BC0004810FFF769FF0020AFE700005C0000200D
:103BD0001CB5044604F0700010B10120019005E00E
:103BE00014B10020019001E040200190514A126878
:103BF000517D504A5268107801AB0122FDF7E2FA7C
:103C000020B100214B488172481E1CBD9DF8040064
:103C100020F04001474801730020019004F040006B
:103C200020B99DF8040040F00400019004F0200049
:103C300020B99DF8040040F00200019004F010004B
:103C400020B99DF8040040F00100019004F0080044
:103C500020B99DF8040040F038000190354A126800
:103C6000917D344A5268107801AB0122FDF7AAFA1F
:103C700020B100212F488172481EC6E724B1082CCC
:103C800002D00020FFF7D2FE2A4A12681179294A91
:103C9000526810786B460122FDF7E6F910B14FF03B
:103CA000FF30B2E704F0010038B1112001909DF817
:103CB000000040F02000009006E0102001909DF8E8
:103CC000000020F0200000901A4890F8240028B14D
:103CD0009DF8000040F08000009004E09DF8000096
:103CE00020F080000090134A126892F82610114AC2
:103CF0005268107801AB0122FDF764FA10B14FF061
:103D0000FF3082E70B4A126811790A4A526810782C
:103D10006B460122FDF756FA10B14FF0FF3074E701
:103D200004488472002101753220FDF7AFFF0020A6
:103D30006BE700005C000020F8B504460D4616460F
:103D400016B94FF0FF30F8BD1A48807A10B94FF01D
:103D5000FF30F8E720128DF80000E0B28DF8010086
:103D60009DF801002844134949684989884202DDC9
:103D70004FF0FF30E7E70F4A1268D17E0D4A5268D4
:103D800010786B460222FDF71DFA10B14FF0FF309C
:103D9000D9E7084A1268117E064A526810783346FD
:103DA0002A46FDF70FFA10B14FF0FF30CBE70020A5
:103DB000C9E700005C00002010B50246012000E0C9
:103DC00050430B1EA1F10104E1B2F9D110BD000076
:103DD00010B588B002A905A8FFF72EFC0446072CF1
:103DE00042D101A8FFF720F99DED050AB8EEC00AFF
:103DF000DDED010A20EE200ABDEEC00A8DED050AB8
:103E00009DED060AB8EEC00ADDED010A20EE200A9B
:103E1000BDEEC00A8DED060A9DED070AB8EEC00A98
:103E2000DDED010A20EE200ABDEEC00A8DED070A85
:103E300005A8FEF7E5F96846FFF7A2F8BDF80010FF
:103E4000029848430290BDF800100398484303903D
:103E5000BDF8001004984843049002A8FEF700F94A
:103E600004A0FCF72FFA02E00AA0FCF72BFA08B036
:103E700010BD000073657474696E672062696173B8
:103E80002073756363657366756C6C792E2E2E2EA8
:103E90002E0D0A006269617320686173206E6F7471
:103EA000206265656E206D6F6469666965642E2E9B
:103EB0002E2E0D0A0000000038B50446214890F867
:103EC0002400C0B114B10220009001E00020009055
:103ED0001C4A1268517C1B4A526810786B460122BA
:103EE000FDF770F910B14FF0FF3038BD9DF80010AC
:103EF0001448417423E01348807A10B94FF0FF3022
:103F0000F3E724B10F48407C08B10020EDE714B17D
:103F10000120009001E0002000900A4A1268517CC4
:103F2000084A526810786B460122FDF74BF910B130
:103F30004FF0FF30D9E79DF800100248417400208F
:103F4000D3E700005C00002038B50120FFF70CFC2F
:103F50000C240EE06B46012200212046FDF784F878
:103F6000054625B99DF80000482800D103E0601CF3
:103F7000C4B20F2CEEDD00BF0F2C05DD81A0FCF7D5
:103F8000A1F94FF0FF3038BD834880F82A40102057
:103F90008DF80000804991F82A006B4601220A2121
:103FA000FDF710F910B14FF0FF30ECE70120FDF7FD
:103FB0006DFE1F208DF80000774991F82A006B46AE
:103FC00001220A21FDF7FEF810B14FF0FF30DAE7C9
:103FD0000120FDF75BFE704991F82A006B46032231
:103FE0001021FDF741F810B14FF0FF30CBE79DF8FD
:103FF00000008030684988859DF80110803166484E
:10400000C1859DF802108031018610208DF80000D6
:10401000614991F82A006B4601220A21FDF7D2F886
:1040200010B14FF0FF30AEE70120FDF72FFE00206A
:10403000FFF79AFB40208DF80000574A1268917EE6
:10404000554A526810786B460122FDF7BBF810B153
:104050004FF0FF3097E7504890F82A0040F080007A
:104060008DF800004C4A1268917F4B4A52681078D4
:104070006B460122FDF7A6F810B14FF0FF3082E742
:1040800002208DF80000444A1268D17F424A5268EB
:1040900010786B460122FDF795F810B14FF0FF3014
:1040A00071E788208DF800003B4A126892F82010D2
:1040B000394A526810786B460122FDF783F810B137
:1040C0004FF0FF305FE7344890F82A008DF8000089
:1040D000314A126892F821102F4A526810786B46C4
:1040E0000122FDF76FF810B14FF0FF304BE70A20C7
:1040F0008DF80000284A126892F82210264A526869
:1041000010786B460122FDF75DF810B14FF0FF30DB
:1041100039E781208DF800001F4A126892F82310B9
:104120001D4A526810786B460122FDF74BF810B11A
:104130004FF0FF3027E711208DF80000164A126873
:1041400092F82610144A526810786B460122FDF747
:1041500039F810B14FF0FF3015E703208DF800005B
:104160000D4A126892F827100B4A526810786B4675
:104170000122FDF727F810B14FF0FF3003E70020D0
:1041800001E70000436F6D70617373206E6F7420E0
:10419000666F756E642E0A005C00002010B588B052
:1041A000044601210846FDF725FA01211020FDF7FC
:1041B00041FA072209212248FCF7B9FB07220A210C
:1041C0001F48FCF7B4FB4FF4C060069002208DF846
:1041D0001C008DF81D0000208DF81E0001208DF8B8
:1041E0001F0006A91648FCF75AFB02940020ADF800
:1041F0000C00ADF80E00ADF81000ADF814000C2066
:10420000ADF8120002A90F48FDF7A6FC01210D48E8
:10421000FDF746FC012240F225510A48FDF776FCE5
:1042200025208DF8040003208DF805008DF8060088
:1042300001208DF8070001A8FCF7F8FF08B010BDB9
:1042400000000240001001404FF04070E1EE100A03
:1042500070471010D0FF901008C8494E48C8080891
:10426000000000000000000000000000000000004E
:104270000000040300FF0083001F0000003F4040D7
:1042800078000000000000000000000000000000B6
:10429000000000B000FF0020C000FE0020C000FFB2
:1042A000000000000000000000000000000000000E
:1042B00000008140300F000000003F00000000FFC0
:1042C00000000000000000000000000000000000EE
:1042D00000000000F888888888FF88888888F800AF
:1042E00000000000000000000000000000000000CE
:1042F000000000001F080808087F888888889F80C1
:10430000F0000000000000000000000000000000BD
:10431000000080828282828282E2A2928A868280E9
:10432000800000000000000000000000000000000D
:104330000000000000000040807F0000000000003E
:10434000000000000000000000000000000000006D
:1043500000002424A4FEA3220022CC0000FF0000C1
:10436000000000000000000000000000000000004D
:104370000000080601FF00010404040404FF020217
:10438000020000000000000000000000000000002B
:104390000000101010FF109008888888FF88888817
:1043A0000800000000000000000000000000000005
:1043B00000000444827F01808040432C1028468105
:1043C000800000000000000000000000000000006D
:1043D000000020202020202020FF2020202020203E
:1043E00020000000000000000000000000000000AD
:1043F000000080804020100C0300030C102040803F
:10440000800000000000000000000000000000002C
:10441000000040301196909091969090981413500F
:10442000300000000000000000000000000000005C
:104430000000040404040444847B0605040404040A
:104440000400000000000000000000000000000068
:10445000000000000000000000000000000000005C
:104460000000000000F800000000000000333000F1
:10447000000000100C06100C0600000000000000F8
:10448000000040C07840C0784000043F04043F046E
:104490000400007088FC08300000001820FF211E76
:1044A0000000F008F000E018000000211C031E21AD
:1044B0001E0000F00888700000001E212324192728
:1044C000211010160E000000000000000000000087
:1044D0000000000000E0180402000000000718209F
:1044E000400000020418E00000000040201807000F
:1044F0000000404080F0804040000202010F0102B5
:104500000200000000F0000000000101011F010195
:104510000100000000000000000080B070000000FA
:104520000000000000000000000000010101010186
:104530000101000000000000000000303000000019
:1045400000000000000080601804006018060100F0
:10455000000000E010080810E000000F10202010FC
:104560000F00001010F8000000000020203F202065
:1045700000000070080808887000003028242221FC
:1045800030000030088888483000001820202011B2
:104590000E000000C02010F8000000070424243F93
:1045A000240000F80888880808000019212020113C
:1045B0000E0000E0108888180000000F1120201164
:1045C0000E0000380808C83808000000003F00004E
:1045D00000000070880808887000001C2221212239
:1045E0001C0000E010080810E00000003122221139
:1045F0000F00000000C0C0000000000000303000CC
:10460000000000000080000000000000806000004A
:104610000000000080402010080000010204081083
:104620002000404040404040400004040404040492
:104630000400000810204080000000201008040240
:104640000100007048080808F00000000030360142
:104650000000C030C828E810E00007182724231401
:104660000B000000C038E0000000203C23020227BD
:10467000382008F8888888700000203F202020110A
:104680000E00C03008080808380007182020201045
:10469000080008F808080810E000203F202020103B
:1046A0000F0008F88888E8081000203F2020232009
:1046B000180008F88888E8081000203F2000030050
:1046C0000000C03008080838000007182020221E0B
:1046D000020008F808000008F808203F2101012125
:1046E0003F20000808F8080800000020203F202094
:1046F000000000000808F8080800C08080807F00E3
:10470000000008F888C028180800203F200126383B
:10471000200008F8080000000000203F2020202092
:10472000300008F8F800F8F80800203F003F003F8C
:10473000200008F830C00008F808203F20000718C3
:104740003F00E01008080810E0000F1020202010A3
:104750000F0008F808080808F000203F21010101B7
:104760000000E01008080810E0000F18242438505A
:104770004F0008F8888888887000203F2000030CCC
:1047800030200070880808083800003820212122D5
:104790001C00180808F8080818000000203F200036
:1047A000000008F808000008F808001F202020205A
:1047B0001F000878880000C83808000007380E017C
:1047C0000000F80800F80008F800033C0700073C68
:1047D0000300081868808068180820302C03032C18
:1047E00030200838C800C83808000000203F2000EA
:1047F000000010080808C8380800203826212020AA
:104800001800000000FE020202000000007F40408D
:104810004000000C30C0000000000000000106381D
:10482000C00000020202FE000000004040407F0085
:10483000000000000402020204000000000000006A
:104840000000000000000000000080808080808068
:104850008080000202040000000000000000000050
:1048600000000000808080800000001924222222A5
:104870003F2008F8008080000000003F1120201138
:104880000E000000008080800000000E112020201B
:104890001100000000808088F800000E1120201018
:1048A0003F200000808080800000001F2222222202
:1048B0001300008080F0888888180020203F202086
:1048C00000000000808080808000006B94949493AE
:1048D000600008F8008080800000203F2100002058
:1048E0003F2000809898000000000020203F2020FA
:1048F0000000000000809898000000C08080807F49
:10490000000008F8000080808000203F24022D3045
:104910002000000808F8000000000020203F2020B0
:1049200000008080808080808000203F20003F2029
:10493000003F8080008080800000203F2100002018
:104940003F200000808080800000001F2020202069
:104950001F00808000808000000080FFA1202011C7
:104960000E000000008080808000000E112020A03A
:10497000FF80808080008080800020203F212000F8
:1049800001000000808080808000003324242424E3
:104990001900008080E0808000000000001F2020BF
:1049A00000008080000000808000001F2020201078
:1049B0003F20808080000080808000010E3008064B
:1049C000010080800080008080800F300C030C305C
:1049D0000F0000808000808080000020312E0E318A
:1049E0002000808080000080808080818E7018068A
:1049F000010000808080808080000021302C2221F6
:104A0000300000000000807C020200000000003F37
:104A1000404000000000FF00000000000000FF0018
:104A200000000002027C800000000040403F0000C7
:104A30000000000601010202040400000000000062
:104A40000000000075191A0C6A231B1C1D1E1F2074
:104A50007274433B4138393A696B6C376F77246D18
:104A60006E70000000000000000000000000680000
:104A700000048000410100000001000083000000EC
:104A8000000800000001001832000500000020416D
:104A90000000D242295C0F3E9A99993E3333733F0E
:104AA000295C0F3E0000700000000024000000029E
:104AB0000003000000650054FFEF0000FA80000BC7
:104AC00012820001030C30C30E8C8CE914D5400215
:104AD00013710F8E3883F8833000F883258EF883A6
:104AE0003000F883FFFFFFFF0FFEA9D6240004006B
:104AF0001A8279A10000003CFFFF000000100000B6
:104B000038836FA2003E03304000000002CAE30970
:104B10003E80000020000000000000004000000077
:104B200060000000000C0000000C186E00000692EF
:104B30000A16C0DFFFFF0256FD8CD377FFE1C49653
:104B4000E0C5BEAA00000000FFFF0B2B00001657B7
:104B5000000003594000000000001DFA00026C1D17
:104B6000000000003FFFDFEB003EB3B6000D2278EF
:104B700000002F3C00000000001942B5000039A2DF
:104B80000000B365D90E9FC91DCF4C343000000022
:104B9000500000003BB67AE80064000000C8000046
:104BA00000000000100000001000FA921000225EC9
:104BB000000D229F0001000000320000FF460000AF
:104BC00063D400001000000004D6000004CC0000F4
:104BD00004CC000000001072000000400000000043
:104BE00000000000000600020005000700000000B1
:104BF00000640000000000000000000500050064E3
:104C00000020000000000000000000000000400044
:104C10000000030000000032F8980000FF6500006B
:104C2000830F0000FF9BFC0000000000000000005C
:104C30000000000000000000000000000000000074
:104C40000000000000000000000000000000000064
:104C50000000100040000000000000060000B26AE2
:104C6000000200000001FB830068000000D9FC0086
:104C70007CF1FF830000000000650000006403E891
:104C800000640028000000250000000016A00000BD
:104C90000000100000001000002F0000000001F4D0
:104CA0000000100000280000FFFF4581FFFFFA729E
:104CB0000000000000000000004400050005BAC626
:104CC000004778A20000000100000000000006007C
:104CD000000000140000254D002F706D000005AE8F
:104CE000000C02D0000000000000000000000000E6
:104CF00000000000001B0000000000000000000099
:104D00000000000000640000000800000000000037
:104D10000000000000000000000000000000000093
:104D20000000000000000000000000000000000083
:104D30000000000000000000000000000000000073
:104D40000000000000000000000000000000000063
:104D50000000000000000000000000000000000053
:104D600000000000001B0000000000000000000028
:104D7000000E000E00000AC7000400000000003210
:104D8000FFFFFF9C00000B2B000000020000000151
:104D900000000064FFE500000000000000000000CB
:104DA0000000000000000001000000000001000001
:104DB0000000000000018000000180000001800070
:104DC000002426D3000000000000000000060010B0
:104DD0000096003C00000000000000000000000001
:104DE000000000000C0A4E68CDCF770950166759B5
:104DF000C619CE8200000000000000000000000084
:104E000000000000000000000000000017D7840030
:104E1000030000000000000000000000C7938F9D09
:104E20001E1B1C1900000000000000000000000014
:104E300000000000000000000000000002031885D0
:104E4000000040000000000300000003000000001C
:104E50000000000040000000000000000000000012
:104E60000000000000000000000000000000000042
:104E70000000000000000000000000000000000032
:104E80000000000000000000677DDF7E72902E555C
:104E90004CF6E68800000000000000000000000062
:104EA00000000000D8DCB4B8B0D8B9ABF3F8FAB35E
:104EB000B7BB8E9EAEF132F51BF1B4B8B08097F15E
:104EC000A9DFDFDFAADFDFDFF2AAC5CDC7A90CC9E2
:104ED0002C97F1A989264666B28999A92D557DB0EE
:104EE000B08AA896365676F1BAA3B4B280C0B8A8F4
:104EF0009711B28398BAA3F0240844106418B2B989
:104F0000B49883F1A329557DBAB5B1A38393F0007A
:104F10002850F5B2B6AA839328547CF1B9A38293A2
:104F200061BAA2DADEDFDB819AB9AEF5606870F1B2
:104F3000DABAA2DFD9BAA2FAB9A38292DB31BAA255
:104F4000D9BAA2F8DF85A4D0C1BBAD83C2C5C7B8AA
:104F5000A2DFDFDFBAA0DFDFDFD8D8F1B8AAB38DD8
:104F6000B4980D355DB2B6BAAF8C96198F9FA70E67
:104F7000161EB49AB8AA872C547CBAA4B08AB691EB
:104F8000325676B28494A4C808CDD8B8B4B0F1999A
:104F900082A82D557D98A80E161EA22C547C92A492
:104FA000F02C5078F184A898C4CDFCD80DDBA8FC77
:104FB0002DF3D9BAA6F8DABAA6DED8BAB2B6869672
:104FC000A6D0F3C841DAA6C8F8D8B0B4B882A8927F
:104FD000F52C548898F135D9F418D8F1A2D0F8F905
:104FE000A884D9C7DFF8F883C5DADF69DF83C1D8C1
:104FF000F40114F1A8824EA884F311D182F5D9925C
:10500000289788F109F41C1CD884A8F3C0F9D1D9D9
:105010009782F129F40DD8F3F9F9D1D982F4C203BA
:10502000D8DEDF1AD8F1A2FAF9A88498D9C7DFF838
:10503000F8F883C7DADF69DFF883C3D8F40114F125
:1050400098A8822EA884F311D182F5D9925097881E
:10505000F109F41CD884A8F3C0F8F9D1D99782F1EA
:1050600049F40DD8F3F9F9D1D982F4C403D8DEDFBD
:10507000D8F1AD8898CCA809F9D98292A8F57CF12D
:10508000883ACF944A6E98DB6931DAADF2DEF9D80E
:105090008795A8F221D1DAA5F9F417D9F1AE8ED00F
:1050A000C0C3AE82C684C3A88595C8A588F2C0F1E6
:1050B000F4010EF18E9EA8C63E56F554F18872F4A6
:1050C0000115F19845856EF58E9E0488F142985A37
:1050D0008E9E068869F4011CF1981E1108D0F50413
:1050E000F11E970202983625DBF9D985A5F3C1DABE
:1050F00085A5F3DFD88595A8F309DAA5FAD88292B9
:10510000A8F578F1881A849F26889821DAF41DF38F
:10511000D8879F39D1AFD9DFDFFBF9F40CF3D8FA88
:10512000D0F8DAF9F9D0DFD9F9D8F40BD8F3879FA2
:1051300039D1AFD9DFDFF41DF3D8FAFCA869F9F94A
:10514000AFD0DADEFAD9F88F9FA8F1CCF398DB451F
:10515000D9AFDFD0F8D8F18F9FA8CAF38809DAAFAA
:105160008FCBF8D8F2AD978D0CD9A5DFF9BAA6F39D
:10517000FAF412F2D8950DD1D9BAA6F3FADAA5F25B
:10518000C1BAA6F3DFD8F1BAB2B68696A6D0CAF3F2
:1051900049DAA6CBF8D8B0B4B8D8AD84F2C0DFF104
:1051A0008FCBC3A8B2B68696C8C1CBC3F3B0B488C0
:1051B00098A821DB718D9D71859521D9ADF2FAD822
:1051C0008597A828D9F408D8F28D29DAF405D9F200
:1051D00085A4C2F2D8A88D9401D1D9F411F2D88750
:1051E00021D8F40AD8F28498A8C801D1D9F411D8EA
:1051F000F3A4C8BBAFD0F2DEF8F8F8F8F8F8F8F886
:10520000D8F1B8F6B5B9B08A95A3DE3CA3D9F8D8E1
:105210005CA3D9F8D87CA3D9F8D8F8F9D1A5D9DFFF
:10522000DAFAD8B18530F7D9DED8F830ADDADED881
:10523000F2B48C99A32D557DA083DFDFDFB591A05B
:10524000F629D9FBD8A0FC29D9FAD8A0D051D9F891
:10525000D8FC51D9F9D879D9FBD8A0D0FC79D9FAA2
:10526000D8A1F9F9F9F9F9A0DADFDFDFD8A1F8F868
:10527000F8F8F8ACDEF8ADDE8393AC2C547CF1A8E2
:10528000DFDFDFF69D2CDAA0DFD9FADB2DF8D8A816
:1052900050DAA0D0DED9D0F8F8F8DB55F8D8A878E5
:1052A000DAA0D0DFD9D0FAF8F8F8F8DB7DF8D89C8E
:1052B000A88CF530DB38D9D0DEDFA0D0DEDFD8A86F
:1052C00048DB58D9DFD0DEA0DFD0DED8A868DB709D
:1052D000D9DFDFA0DFDFD8F1A888902C547C98A814
:1052E000D05C38D1DAF2AE8CDFF9D8B087A8C1C172
:1052F000B188A8C6F9F9DA36D8A8F9DA36D8A8F903
:10530000DA36D8A8F9DA36D8A8F9DA36D8F78D9D82
:10531000ADF818DAF2AEDFD8F7ADFA30D9A4DEF97D
:10532000D8F2AEDEFAF983A7D9C3C5C7F1889BA727
:105330007AADF7DEDFA4F8849408A797F300AEF205
:105340009819A488C6A39488F632DFF28393DB0908
:10535000D9F2AADFD8D8AEF8F9D1DAF3A4DEA7F1F2
:10536000889B7AD8F38494AE19F9DAAAF1DFD8A829
:1053700081C0C3C5C7A39283F628ADDED9F8D8A3F0
:1053800050ADD9F8D8A378ADD9F8D8F8F9D1A1DAC9
:10539000DEC3C5C7D8A18194F818F2B089ACC3C5E3
:1053A000C7F1D8B8B4B09786A8319B069907AB97D8
:1053B00028889BF00C201440B0B4B8F0A88A9A2832
:1053C0005078B79BA82951792470594469386448AA
:1053D00031F1BBAB88002C547CF0B38BB8A8042807
:1053E0005078F1B088B49726A85998BBABB38B021C
:1053F000264666B0B8F08A9CA82951798B29517944
:105400008A2470598B2058718A4469388B394068D6
:105410008A6448318B30496088F1AC002C547CF0B0
:105420008CA804285078F1889726A85998AC8C024B
:10543000264666F0899CA829517924705944693818
:10544000644831A98809205970AB11384069A819FE
:105450003148608CA83C415C207C00F1879819861B
:10546000A86E767EA999882D557DD8B1B5B9A3DFF0
:10547000DFDFAED0DFAAD0DEF2ABF8F9D9B087C457
:10548000AAF1DFDFBBAFDFDFB9D8B1F1A3978E6040
:10549000DFB084F2C8F8F9D9DED89385F14AB18338
:1054A000A308B5839A0810B79F10D8F1B0BAAEB070
:1054B0008AC2B2B68E9EF1FBD9F41DD8F9D90CF18F
:1054C000D8F8F8AD61D9AEFBD8F40CF1D8F8F8AD46
:1054D00019D9AEFBDFD8F416F1D8F8AD8D61D9F447
:1054E000F4ACF59C9C8DDF2BBAB6AEFAF8F40BD871
:1054F000F1AED0F8AD51DAAEFAF8F1D8B9B1B6A341
:10550000839C08B9B1839AB5AAC0FD3083B79F10B8
:10551000B58B93F20202D1ABDADED8F1B080BAAB30
:10552000C0C3B284C1C3D8B1B9F38BA391B609B4D7
:10553000D9ABDEB0879CB9A3DDF1B38B8B8B8B8BA2
:10554000B087A3A3A3A3B28BB69BF2A3A3A3A3A3E9
:10555000A3A3A3A3A3F1B087B59AA3F39BA3A3DC52
:10556000BAACDFB9A3A3A3A3A3A3A3A3A3A3A3A399
:10557000A3A3A3A3D8D8D8BBB3B7F1AAF9DAFFD9AC
:10558000809AAA28B48098A720B79787A86688F041
:105590007951F1902C870CA781976293F07171601B
:1055A00085940129517990A5F1284C6C870C9518A8
:1055B0008578A38390284C6C886CD8F3A28200F283
:1055C00010A8921980A2F2D926D8F188A84DD948FE
:1055D000D896A83980D93CD89580A839A68698D97C
:1055E0002CDA87A72CD8A8899519A980D938D8A8EA
:1055F0008939A980DA3CD8A82EA83990D90CD8A826
:10560000953198D90CD8A809D9FFD801DAFFD895D7
:1056100039A9DA26FFD890A80D8999A81080982179
:10562000DA2ED88999A83180DA2ED8A886963180CA
:10563000DA2ED8A8873180DA2ED8A88292F341805A
:10564000F1D92ED8A882F31980F1D92ED882ACF3E3
:10565000C0A28022F1A62EA72EA92298A829DAACF2
:10566000DEFFD8A2F22AF1A92E8292A8F23180A6FA
:1056700096F1D900AC8C9C0C30ACDED0DEFFD88C1F
:105680009CACD010ACDE8092A2F24C82A8F1CAF29F
:1056900035F19688A6D900D8F1FF30313233343550
:1056A000363738394142434445464030580030315E
:1056B0003233343536373839616263646566403079
:1056C0007800040000080000000000000002000153
:1056D00000001000F45600080000002094000000B4
:1056E000C401000888570008940000203C0700000F
:1056F000E0010008FF000000FF00000001000000C2
:105700000000803F000000000000000000000000DA
:105710000000000000000000000000000000000089
:105720000000000000000000000000000000000079
:105730000000000000000000000000000000000069
:105740000000010203040102030406070809000027
:10575000444A00086E4A00080000000000000000F3
:105760000000000000000000000000000000000039
:105770000000000000000000000000000000000029
:08578000000000007C4A000853
:040000050800018965
:00000001FF
