:020000040800F2
:10000000F8070020BD1800089503000897030008B2
:100010009B0300089F030008A303000800000000E2
:10002000000000000000000000000000A70300081E
:10003000A903000800000000AB03000847170008F0
:10004000D7180008D7180008D7180008D7180008D4
:10005000D7180008D7180008D7180008D7180008C4
:10006000D7180008D7180008D7180008D7180008B4
:10007000D7180008D7180008D7180008D7180008A4
:10008000D7180008D7180008D7180008D718000894
:10009000D7180008D7180008D7180008D718000884
:1000A000D7180008D7180008D7180008D718000874
:1000B000D7180008C5150008D7180008D718000879
:1000C000D7180008D7180008D7180008D718000854
:1000D000D718000831180008D7180008D7180008EA
:1000E000D7180008D7180008D7180008D718000834
:1000F000D7180008D7180008D7180008D718000824
:10010000D7180008D7180008D7180008D718000813
:10011000D7180008D7180008D7180008D718000803
:10012000D7180008D7180008D7180008D7180008F3
:10013000D7180008D7180008D7180008D7180008E3
:10014000D7180008D7180008D7180008D7180008D3
:10015000D7180008D7180008D7180008D7180008C3
:10016000D7180008D7180008D7180008D7180008B3
:10017000D7180008D7180008D7180008D7180008A3
:10018000D7180008D718000800F002F800F04FF860
:100190000AA090E8000C82448344AAF10107DA45E2
:1001A00001D100F044F8AFF2090EBAE80F0013F0E5
:1001B000010F18BFFB1A43F0010318478097000096
:1001C000A0970000103A24BF78C878C1FAD8520727
:1001D00024BF30C830C144BF04680C6070470000C1
:1001E0000023002400250026103A28BF78C1FBD840
:1001F000520728BF30C148BF0B607047662908F01E
:100200009084642905F0DE87782906F017800020A5
:1002100070471FB508F07BFC06F02EFC04000020A0
:10022000002107F0D7FEE0601FBD10B510BD06F03D
:100230006BFD1146FFF7EDFF00F008F806F089FDB1
:1002400003B4FFF7F2FF03BC01F092FA2DED028B2D
:100250004FF4E13001F09AFA27A005F07FFF4FF448
:10026000A06001F04BFBA82001F0BEF900F0A6F958
:1002700042F2CF0141F2873001F078F900F0C3FE7D
:1002800018B123A005F06AFF02E02AA005F066FF7E
:1002900000F0E0FB2EE000F01AFC2F48007830B3AD
:1002A0002E48006808F0C2FB41EC180B53EC182BE9
:1002B0002BA005F053FF2E48006808F0B7FB41EC77
:1002C000180B53EC182B2BA005F048FF2D480068A5
:1002D00008F0ACFB41EC180B53EC182B2AA005F0EE
:1002E0003DFF0AA005F03AFF00201B4908700A20D4
:1002F00001F0DCF9CFE70000557361727420696E7C
:1003000069742073756363656565642E0D0A00006A
:100310004D505520776974686F757420444D502096
:10032000696E6974204661696C65642E0D0A0D0A58
:10033000000000004D505520776974686F75757422
:1003400020444D5020696E69742073756363656540
:10035000642E0D0A0D0A000053000020300000201A
:1003600050697463683A25342E32662020000000FC
:1003700034000020526F6C6C3A25342E32662020F7
:1003800000000000380000205961773A25342E32F1
:1003900066000000704700BFFEE700BFFEE700BF39
:1003A000FEE700BFFEE77047704770470CB50020BE
:1003B000019000907648006840F4803074490860ED
:1003C00000BF7348006800F4003000900198401CA2
:1003D0000190009818B90198B0F5A04FF1D16C4880
:1003E000006800F4003010B10120009001E000200E
:1003F00000900098012846D165484030006840F0E0
:1004000080506349403108606248006840F44040D1
:10041000604908605E48083000685D49083108603E
:100420000846006840F4004008600846006840F450
:10043000A05008605848091F0860081F006840F075
:100440008070091F086000BF5148006800F000700C
:100450000028F9D040F20570504908604C48083037
:10046000006820F003004A49083108600846006827
:1004700040F00200086000BF45480830006800F006
:100480000C000828F8D10CBD10B54548006840F4B0
:100490007000434908603E48006840F001003C4954
:1004A000086000203A4908310860394800683D4931
:1004B0000840374908603C48091D0860081F00686B
:1004C00020F48020091F0860002031490C310860A9
:1004D000FFF76CFF4FF0006031498039086010BDB4
:1004E00070B500200022022300240221284D083587
:1004F0002D6805F00C0020B1042806D0082834D15E
:1005000007E02A4D2A4E356033E02A4D284E3560EB
:100510002FE01F4D2D1D2D68C5F380541C4D2D1D42
:100520002D6805F03F0154B1224DB5FBF1F5184E91
:10053000361D3668C6F3881605FB06F209E01B4D2A
:10054000B5FBF1F5124E361D3668C6F3881605FB6D
:1005500006F20F4D2D1D2D68C5F301456D1C6B0076
:10056000B2FBF3F5124E356003E0104D104E3560CE
:1005700000BF00BF064D08352D68C5F303150E4EAC
:10058000705D0B4D2D68C540094E356070BD000093
:10059000003802400070004008544007003C024010
:1005A00088ED00E0FFFFF6FE103000240024F40088
:1005B0000000002000127A00040000201CB5012178
:1005C000202001F02FFD4FF4E060009001208DF815
:1005D000040000208DF8060003208DF8050001209E
:1005E0008DF807006946074801F07EFA4FF4007164
:1005F000044801F0F5FA4FF48071024801F0F2FA74
:100600001CBD0000001402401CB50121022001F0B5
:1006100009FD4FF44070009001208DF80400002087
:100620008DF8060003208DF8050001208DF80700E5
:100630006946AE4801F058FA0120AD490860AD495D
:10064000C1F8A4021CBD10B5A848006820F44020E1
:10065000A64908600846006840F480200860012030
:10066000A349091D0860A349C1F8A002042000F0B5
:10067000D5FF00209E49091D0860042000F0CEFF30
:1006800000209C49C1F8A00210BD10B59748006831
:1006900020F44020954908600846006840F4802016
:1006A00008600020924908609249C1F8A402042021
:1006B00000F0B4FF01208E4908608E49C1F8A40201
:1006C000042000F0ABFF10BD10B50024874800687F
:1006D00020F4402085490860084600680860012031
:1006E0008349091D086000F099FF01208149C1F884
:1006F000A00200F093FF0AE0601CC4B2FA2C06DDF1
:10070000FFF7C3FF7CA005F029FD012010BD78484C
:100710007C3800680028EFD17549086000BFF5E714
:1007200010B50020724908607048006820F440202D
:100730006E4908600846006840F480200860002088
:100740006C49C1F8A402022000F068FF012068494A
:100750000860022000F062FF00206649C1F8A00294
:1007600010BD10B50020624908606048006820F4A0
:1007700040205E4908600846006840F48020086018
:1007800001205C49C1F8A402022000F047FF0120CB
:1007900057490860022000F041FF00205549C1F888
:1007A000A00210BD70B504465048006820F44020F7
:1007B0004E4908600846006840F480200860002028
:1007C0004B490860002517E0E0094949091D086008
:1007D0006006040E022000F021FF01204549C1F807
:1007E000A002022000F01AFF002041490860022008
:1007F00000F014FF681CC5B2082DE5DB70BD70B5B4
:10080000054600243948006820F440203749086034
:10081000084600680860002616E000203449086099
:10082000022000F0FBFE01203249C1F8A002600660
:10083000040E2F487C38006808B1601CC4B2012047
:1008400000F0ECFE701CC6B2082EE6DB15B9FFF70F
:1008500088FF01E0FFF764FF204670BD002106E03D
:10086000052100BF0A1EA1F1010399B2FAD1021EAF
:10087000A0F1010398B2F3D1704770B500240025B0
:1008800000BF13E0FFF7DFFE002141EA4401C8B2D8
:10089000FFF788FFFFF718FF05461DB921461AA08C
:1008A00005F05CFCFFF7F1FE601CC4B2FF2CE9DB35
:1008B0001AA005F053FC70BD70B505460024002653
:1008C00000BF0CE02146284600F067FB0646334691
:1008D0002246294612A005F041FC601CC4B2FF2C40
:1008E000F0DB14A005F03AFC70BD000000040240EB
:1008F000A08240420080404241434B206D697373A7
:100900006564210D0A0000004949435F4144445297
:10091000203D202523780D0A000000000D0A00006C
:100920004949435F2523785F252378203D202523EF
:10093000780D0A000D0A0D0A0000000010B588B0FD
:1009400002A905A804F04CFA0446072C42D101A8DC
:1009500003F0E6FD9DED050AB8EEC00ADDED010AE3
:1009600020EE200ABDEEC00A8DED050A9DED060AB7
:10097000B8EEC00ADDED010A20EE200ABDEEC00A85
:100980008DED060A9DED070AB8EEC00ADDED010AFD
:1009900020EE200ABDEEC00A8DED070A05A804F07E
:1009A0008AFD684603F0E1FDBDF800100298484357
:1009B0000290BDF80010039848430390BDF8001062
:1009C00004984843049002A804F008FEF0A005F043
:1009D000C5FB02E0F6A005F0C1FB08B010BD014662
:1009E00091F90020002A01DD00201EE091F900208D
:1009F000002A01DA042018E091F90120002A01DD23
:100A0000012012E091F90120002A01DA05200CE012
:100A100091F90220002A01DD022006E091F902206E
:100A2000002A01DA062000E00720704770B505466D
:100A30002846FFF7D4FF0446E81CFFF7D0FF44EA3E
:100A4000C00084B2A81DFFF7CAFF44EA801084B238
:100A5000204670BD10B5DFA005F080FBE4A005F0D6
:100A60007DFB03F0D7FA18B9E7A005F077FB02E0A9
:100A7000EAA005F073FB782002F062FD782003F015
:100A8000EEF8642003F0EBF904F07AFCE848FFF795
:100A9000CDFF044604F07EFC40F2731005F0CBF865
:100AA000642004F031FE012004F055F918B9E1A0EA
:100AB00005F054FB02E0E6A005F050FBEBA005F0CA
:100AC0004DFBFFF73BFFEFA005F048FB10BD00B565
:100AD0002DED0A8B83B0F348F349F44BF44ACDE98A
:100AE0000010F449F44805F005FAEF48008800F4D6
:100AF000807000287DD0EE4890ED000AB8EEC00A64
:100B0000DFEDEE0A80EE201AED4880ED001AE8488D
:100B100090ED010AB8EEC00ADFEDE80A80EE201A77
:100B2000E84880ED001AE24890ED020AB8EEC00AEB
:100B3000DFEDE20A80EE201AE34880ED001ADC487F
:100B400090ED030AB8EEC00ADFEDDC0A80EE201A51
:100B5000DE4880ED001ADB4890ED000AF8EE000A4E
:100B600020EE200AD948D0ED000A20EE200AD44811
:100B7000D0ED000AB0EE001A60EE810AD24890ED86
:100B8000001A00EE810A10EE101A084607F04EFF18
:100B900041EC1B0BB0EE4B0AF0EE6B0A06F004FDC5
:100BA000B0EE40AAF0EE60AA9FEDC90B53EC102BFB
:100BB00051EC1A0B07F07AFC41EC190B9FEDC60BB8
:100BC00053EC102B07F05AFA41EC180B07F024FAFB
:100BD000C3490860BB4890ED000AF8EE000A20EE19
:100BE000200AD0ED000A20EE200AB748D0ED000A16
:100BF00000E0B5E0B0EE001A60EE810A90ED001A58
:100C000000EEC10AF7EE000A30EE200A10EE101ACC
:100C1000084607F00BFF41EC1B0BAB4890ED000AB8
:100C2000F0EE000A20EE200AA848D0ED000A20EEDF
:100C3000200AA348D0ED000AB0EE001A60EE810A47
:100C4000A04890ED001A00EE810A10EE101A084636
:100C500007F0ECFE41EC1C0BB0EE4B1AF0EE6B1AF9
:100C6000B0EE4C0AF0EE6C0A06F0BAFFB0EE40AA05
:100C7000F0EE60AA9FED960B53EC102B51EC1A0B83
:100C800007F014FC41EC190B9FED960B53EC102B65
:100C900007F0F4F941EC180B07F0BEF9934908602E
:100CA000874890ED000A20EE000A8648D0ED000A41
:100CB00090ED001A00EE810A8348D0ED000A90ED15
:100CC000001A00EEC10A8148D0ED000A90ED001A2A
:100CD00000EEC10A10EE101A084607F0A7FE41EC1C
:100CE0001B0B784890ED000A7748D0ED000A20EE03
:100CF000200A7348D0ED000A744890ED001A00EE07
:100D0000810AF0EE000A20EE200A10EE101A0846C2
:100D100007F08CFE41EC1C0BB0EE4B1AF0EE6B1A98
:100D2000B0EE4C0AF0EE6C0A06F05AFFB0EE40AAA4
:100D3000F0EE60AA9FED660B53EC102B51EC1A0BF2
:100D400007F0B4FB41EC190B9FED690B53EC102B32
:100D500007F094F941EC180B07F05EF9664908605A
:100D600003B0BDEC0A8B00BD70B504460D461646B7
:100D7000FFF769FC002141EA4401C8B2FFF712FD08
:100D8000FFF7A2FC18B1FFF780FC012070BDB5E0B1
:100D900073657474696E672062696173207375632B
:100DA00063657366756C6C792E2E2E2E2E0D0A00DF
:100DB0006269617320686173206E6F74206265657B
:100DC0006E206D6F6469666965642E2E2E2E0D0A85
:100DD000000000000D0A7374726174696E6720442C
:100DE0004D5020696E69742E2E2E0D0A00000000F1
:100DF000696E69742076696120696E765F6D7075C1
:100E00002E632E2E2E0D0A00696E765F6D70752E84
:100E1000632072656164792E0D0A0000696E765F49
:100E20006D70752E63206661696C65642E0D0A0015
:100E3000140000204D50555F444D505F496E697459
:100E400028292066696E736865642E0D0A0000000B
:100E50004D50555F444D505F496E69742829206696
:100E600061696C65642E0D0A0000000052756E6E9B
:100E7000696E672073656C6620746573742E0D0A45
:100E8000000000000D0A4D50552077697468204419
:100E90004D5020696E697420737563636565642EB7
:100EA0000D0A0000520000205000002040000020E9
:100EB000AC0000204A000020440000200000804ECA
:100EC0002000002024000020280000202C0000200A
:100ED0006666666666A64C40000000000000F03FB3
:100EE0003000002000000000000000C0340000209E
:100EF0000000000000000000380000202846FFF736
:100F000051FCFFF7E1FB3046FFF74CFCFFF7DCFB41
:100F100018B1FFF7BAFB012070BDFFF7B6FB002048
:100F2000FAE770B504460025BC2C01DB012510E072
:100F3000622C01DB02250CE02A2C01DB032508E0F2
:100F4000142C01DB042504E00A2C01DB052500E05C
:100F500006252A461A216820FFF706FF70BD70B5E6
:100F60000446B4F57A7F01DD4FF47A74042C00DA7C
:100F700004244FF47A7090FBF4F0401EC5B22A4668
:100F800019216820FFF7F0FE0546264604EBD671CE
:100F9000C1F34F00FFF7C5FF70BD70B504460D46A5
:100FA000FFF751FB002141EA4401C8B2FFF7FAFB09
:100FB000FFF78AFB2846FFF7F5FBFFF785FBFFF7F6
:100FC00042FB012101EB4401C8B2FFF7EBFBFFF745
:100FD0007BFB0020FFF713FC0646FFF756FB30466D
:100FE00070BD10B50446E006020E1C216820FFF714
:100FF000BBFE10BD10B50446E006020E1B216820A2
:10100000FFF7B2FE10BD10B50024FFF7FDFAE6A011
:1010100005F0A4F880226B216820FFF7A5FE64206C
:1010200000F044FBE6A005F099F800226B2168204F
:10103000FFF79AFE0320FFF7DDFF0020FFF7D1FF47
:101040003220FFF78CFFE4A005F088F80022382159
:101050006820FFF789FEE6A005F080F800226A21EB
:101060006820FFF781FEE8A005F078F80022232130
:101070006820FFF779FEEAA005F070F88222372198
:101080006820FFF771FEECA005F068F87521682074
:10109000FFF783FF0446692C0DD0712C06D0732C0A
:1010A0000ED12146EAA005F059F80FE02146EFA045
:1010B00005F054F80AE02146F3A005F04FF805E0EA
:1010C0002146F8A005F04AF8012010BD00BF00211C
:1010D0000C20FFF762FF0446482C0DD101220B21A2
:1010E0000C20FFF741FE322000F0E0FA11220A2125
:1010F0000C20FFF739FE04E0EFA005F02FF80120E7
:10110000E3E7E0A005F02AF801226B216820FFF751
:101110002BFE00226C216820FFF726FE3220FFF70D
:101120001EFF0020D1E72DE9F04106460F46144688
:101130001D46FFF788FA002141EA4601C8B2FFF7D1
:1011400031FBFFF7C1FA20B1FFF79FFA0120BDE89C
:10115000F0813846FFF726FBFFF7B6FAFFF773FA80
:10116000012101EB4601C8B2FFF71CFBFFF7ACFA07
:101170000DE0012C04D10020FFF741FB287003E0B3
:101180000120FFF73CFB2870601EC4B26D1C002CD0
:10119000EFD1FFF77AFA0020D9E72DE9FC410446A8
:1011A0000D4616466B46062203210C20FFF7BBFFB7
:1011B0000746BFB99DF800009DF8011040EA0120E4
:1011C00000B220809DF802009DF8031040EA012043
:1011D00000B228809DF804009DF8051040EA012027
:1011E00000B2308011220A210C20FFF7BDFD3846E5
:1011F000BDE8FC812DE9FC4104460D4616466B46D0
:1012000006223B216820FFF78EFF0746BFB99DF8F5
:1012100001009DF8001040EA012000B220809DF8F6
:1012200003009DF8021040EA012000B228809DF8DA
:1012300005009DF8041040EA012000B230803846D5
:10124000BDE8FC812DE9FC4104460D4616466B467F
:10125000062243216820FFF766FF0746BFB99DF8C5
:1012600001009DF8001040EA012000B220809DF8A6
:1012700003009DF8021040EA012000B228809DF88A
:1012800005009DF8041040EA012000B23080384685
:10129000BDE8FC8110B52DED088B82B001AB0222B8
:1012A00041216820FFF73FFF9DF805009DF80410DD
:1012B00040EA012004B2204607F0E0F841EC1B0BA5
:1012C0009FED830B53EC102B06F080FF41EC1A0BC3
:1012D0009FED810B53EC102B06F0D0FE41EC190B67
:1012E00006F09AFE08EE100A9FED7D0A28EE000A2D
:1012F000BDEEC00A10EE100A00B202B0BDEC088BC1
:1013000010BD10B58AB0FFF7C5FF044604AA05A9B1
:1013100006A8FFF797FF07AA08A909A8FFF76AFF21
:1013200001AA02A903A8FFF738FFBDF91030BDF9E3
:101330001420BDF918106BA004F010FFBDF91C308B
:10134000BDF92020BDF924106CA004F007FFBDF901
:101350000430BDF90820BDF90C106EA004F0FEFEAB
:10136000214672A004F0FAFE0AB010BD2DE9F0414A
:1013700005460E4617469846FFF765F9002141EAF3
:101380004501C8B2FFF70EFAFFF79EF920B1FFF74B
:101390007CF90120BDE8F0813046FFF703FAFFF742
:1013A00093F90024DBE0000052657365742E2E2E45
:1013B0002E2E2E2E2E2E2E2E2E2E2E0D0A0000001C
:1013C00057616B6575702E2E2E2E2E2E2E2E2E2EE4
:1013D0002E2E2E0D0A00000044697361626C652098
:1013E000494E542E2E2E2E2E2E2E2E0D0A0000008B
:1013F00044697361626C6520536C6176654D6F64FE
:10140000652E2E0D0A00000044697361626C652030
:101410004649464F2E2E2E2E2E2E2E0D0A0000004F
:10142000494E54206C6F772E2E2E2E2E2E2E2E2EC1
:101430002E2E2E0D0A00000052656164696E672031
:1014400049442E2E2E2E2E2E2E2E2E0D0A0000005A
:101450004D505539323530204D6F646C652049440C
:101460003A30782532780D0A000000004D50553989
:10147000323530206F6E20436869702049443A301D
:10148000782532780D0A00004D5055363035302021
:101490004D6F646C652049443A30782532780D0AE6
:1014A00000000000756E6B6E6F776E2049443A3015
:1014B000782532780D0A00000D0A414B3839363351
:1014C00020696E6974206661696C65642E0D0A007E
:1014D00052B81E85EBDD744000000000000035406E
:1014E0000000C8424779726F3A2536642C202536B1
:1014F000642C202536640D0A00000000416363203F
:101500003A2536642C202536642C202536640D0AB5
:10151000000000004D6167203A2536642C202536F6
:10152000642C202536640D0A0000000074656D707F
:101530003A253664202020202020202020200D0A5B
:101540000000000018F80400FFF72CF9FFF7BCF8C2
:1015500018B1FFF79AF801201CE7601CC4B2BC4226
:10156000F0DBFFF792F8002014E700007FB5054696
:101570000C460121022000F09EFD0295ADF80440CA
:101580000020ADF80600ADF80C0001A9144801F0E8
:1015900074F901221146124801F010FE0121104891
:1015A00001F0F4F91D208DF8000001208DF80100F4
:1015B00003208DF8020001208DF80300684600F03A
:1015C000A2F97FBD10B50121054801F00EFE0128EA
:1015D00001D1044908700121014801F017FE10BD36
:1015E000000400405300002010B504466FF00400D2
:1015F00000F0D6F9E11704EB5171C1F3C701394A84
:1016000011701046007800EB4001C1EBC0104FF69E
:10161000FF7101EAC0003449088010BD0146314A1B
:1016200012784A434FF0E0235A6100229A611A4629
:10163000126942F001021A6100BF4FF0E022106906
:1016400000F001021AB100F48032002AF5D04FF008
:10165000E022126922F001024FF0E0231A61002219
:101660009A6170470146204A12884A434FF0E023AE
:101670005A6100229A611A46126942F001021A6107
:1016800000BF4FF0E022106900F001021AB100F42F
:101690008032002AF5D04FF0E022126922F00102D8
:1016A0004FF0E0231A6100229A61704770B504463A
:1016B0004FF4077094FBF0F0C6B24FF4077094FB40
:1016C000F0F100FB114085B205E04FF40770FFF721
:1016D000C9FF701EC6B2002EF7D115B12846FFF71C
:1016E000C1FF70BD540000205600002030B51C48DA
:1016F00000684FF47A72B0FBF2F1481EB0F1807FBF
:1017000001D301201BE0481E4FF0E022506150172A
:101710000F22002807DA13071D0E124B00F00F04EA
:10172000241F1D5503E013071C0E0F4B1C5400BF54
:1017300000204FF0E022906107201061002008B1E6
:1017400000BFFEE730BD09480068401C074908603B
:1017500008460068B0F57A7F01D100200860704724
:101760000000002018ED00E000E400E05800002038
:10177000014600BF704700BF4C4A128802F0400289
:10178000002AF9D0C2B2494B9A80704710B588B090
:1017900004460121084600F045FC0121102000F01C
:1017A0009BFC07220921424800F029FA07220A215E
:1017B0003F4800F024FA4FF4C060069002208DF8F4
:1017C0001C008DF81D0000208DF81E0001208DF8F2
:1017D0001F0006A9364800F087F902940020ADF8F2
:1017E0000C00ADF80E00ADF81000ADF814000C20A0
:1017F000ADF8120002A92D4800F0CFFD01212B48C1
:1018000000F053FE012240F22551284800F003FF6A
:1018100025208DF8040003208DF805008DF80600C2
:1018200001208DF8070001A800F06DF808B010BD88
:1018300010B540F225511D4800F028FF10B31B4899
:1018400000F062FEC4B21B48008800F40040C8B932
:101850001848008800F4804060B10A2C03D00020B2
:101860001449088020E01348008840F400401149E2
:10187000088019E00D2C06D10E48008840F4804005
:101880000C49088010E00B480088C0F30D000A499D
:101890000C5408480088401C064908800846008807
:1018A000C72801DD0020088010BD000000100140A5
:1018B0000000024060000020BC0000200948804772
:1018C00009480047FEE7FEE7FEE7FEE7FEE7FEE722
:1018D000FEE7FEE7FEE7FEE704480549054A064B3A
:1018E000704700008904000889010008F801002001
:1018F000F8070020F8030020F803002032490143D4
:10190000324A1160704770B5002100230F22C4785D
:101910001CB32E4C246804F4E064C4F5E064C4F302
:101920000721C1F10404E3B20A4144789C40E1B2CA
:101930008478144021430C07210E254C057861550D
:10194000047804F01F050124AC4005786D11AD004A
:1019500005F1E025C5F8004109E0047804F01F0511
:101960000124AC401B4D0678761145F8264070BD29
:10197000194A0A400243154B1B1F1A60704739B1C0
:10198000124A121D12680243104B1B1D1A6006E01A
:101990000E4A121D126882430C4B1B1D1A607047C1
:1019A000042808D14FF0E021096941F004014FF00B
:1019B000E022116107E04FF0E021096921F0040104
:1019C0004FF0E022116170470000FA050CED00E0D5
:1019D00000E400E080E100E080FFFF1F10B5044656
:1019E0009848844208D10121084600F086FB002176
:1019F000012000F082FB76E09348844208D1012167
:101A0000022000F07AFB0021022000F076FB6AE061
:101A10008E48844208D10121042000F06EFB002191
:101A2000042000F06AFB5EE08948844208D101216D
:101A3000082000F062FB0021082000F05EFB52E06D
:101A40008448844208D10121102000F056FB002177
:101A5000102000F052FB46E07F48844208D101216B
:101A6000202000F04AFB0021202000F046FB3AE055
:101A70007A48844208D10121402000F03EFB002139
:101A8000402000F03AFB2EE07548844208D1012145
:101A9000802000F032FB0021802000F02EFB22E0AD
:101AA0007048844208D10121801500F026FB0021F6
:101AB000A01500F022FB16E06B48844208D10121FA
:101AC000401500F01AFB0021601500F016FB0AE03B
:101AD0006648844207D10121001500F00EFB002169
:101AE000201500F00AFB10BDF0B50A4600210023C6
:101AF000002400BF3DE0012505FA01F3156805EA61
:101B000003049C4234D105684F000326BE40B54310
:101B1000056015794E00B5400668354305601579B6
:101B2000012D02D01579022D16D185684F000326AC
:101B3000BE40B543856055794E00B5408668354353
:101B40008560456801268E40B543456045689679B5
:101B50008E40B6B235434560C5684F000326BE408F
:101B6000B543C560D5794E00B540C6683543C560FC
:101B7000491C1029BFD3F0BD4FF6FF710160002151
:101B8000017141718171C171704708B54FF48032A4
:101B90000092009A0A430092009AC261C161009AC1
:101BA000C261C2690092C269009208BD024600206B
:101BB00013690B400BB1012000E000207047014683
:101BC000086980B270470246002053690B400BB190
:101BD000012000E0002070470146486980B270474C
:101BE00001837047418370470AB1018300E041835C
:101BF00070474161704742694A4042617047F0B5A1
:101C0000002300244D07ED0E02FA05F3CE1000F17B
:101C1000200555F826504E07F70E0F26BE40B54357
:101C2000CF1000F1200646F82750CE1000F1200515
:101C300055F8265045EA0304CE1000F1200545F87A
:101C40002640F0BD000002400004024000080240AF
:101C5000000C024000100240001402400018024034
:101C6000001C0240002002400024024000280240E4
:101C7000F948006840F00100F74908600020F64983
:101C800008310860F4480068F4490840F2490860E7
:101C9000F348091D0860F348EF4984310860F048B3
:101CA0001038091D0860EC48006820F48020EA49DB
:101CB00008600020E8490C310860E7498C31086071
:101CC00070470021E44A921C117011460870704759
:101CD00010B501460022002300204A11012A02D13A
:101CE000DD4C236808E0022A03D1DB4C7034236802
:101CF00002E0D94C7434236801F01F02012494409F
:101D00001C400CB1012000E0002010BD38B50020BF
:101D100000900024002500BF3120FFF7D9FF0546C1
:101D20000098401C00900098B0F5A04F01D0002D05
:101D3000F2D03120FFF7CCFF08B1012400E00024ED
:101D4000204638BD01460020C34A106820F0F80044
:101D500040EAC10010607047C34908607047002125
:101D6000BD4A703211701170012802D004280AD1C6
:101D700004E00121B84A7032117005E00521B64A2D
:101D80007032117000E000BF00BF7047B7490860B3
:101D9000704770B5049C41EA82150126C6EB5306D4
:101DA00045EA0645054345EA0465AB4E361D3560F8
:101DB00070BDAD4908667047820142EA0172A64BC8
:101DC00084331A607047A8498866704710B583014C
:101DD00043EA016343EA02739F4C8834236010BDD9
:101DE000A14908677047A049C864704702460020AF
:101DF000994B0833186820F0EC6042EA010318435D
:101E0000954B08331860704702460020924B083308
:101E1000186820F0784042EA010318438E4B0833DB
:101E200018607047014600208B4A0832106820F085
:101E3000030008431060704787480830006800F0CE
:101E40000C00704701460020834A0832106820F0D9
:101E5000F000084310607047014600207E4A0832B7
:101E6000106820F4E05008431060704701460020DD
:101E7000794A0832106820F4604040EAC1001060DE
:101E80007047F0B50021002200240225002602231D
:101E9000714F08373F6807F00C0121B1042905D0C4
:101EA000082937D105E0724F076036E0714F0760AF
:101EB00033E0694F3F1D3F68C7F38056664F3F1DB3
:101EC0003F6807F03F036EB16A4FB7FBF3F7DFF8E7
:101ED00088C10CF1040CDCF800C0CCF3881C07FBB3
:101EE0000CF40CE0624FB7FBF3F7DFF86CC10CF1B8
:101EF000040CDCF800C0CCF3881C07FB0CF4564F34
:101F00003F1D3F68C7F301477F1C7D00B4FBF5F719
:101F1000076002E0564F076000BF00BF4E4F083712
:101F20003F6807F0F0010909534F7A5C0768D74012
:101F30004760494F08373F6807F4E051890A4E4F20
:101F40007A5C4768D7408760434F08373F6807F49B
:101F50006041490B484F7A5C4768D740C760F0BD85
:101F6000002100F44072B2F5407F0AD13A4A0832AB
:101F7000116821F4F811414A02401143364A0832EF
:101F80001160354A70321268C0F30B031A43324BAA
:101F900070331A60704735494439086070473349D7
:101FA0004039086070473649086070470146002094
:101FB000294A8C32106820F01F004A1E1043264A1E
:101FC0008C321060704701460020234A8C32106822
:101FD00020F4F8504A1E40EA02201F4A8C3210605A
:101FE0007047014600201C4A8C32106820F44010D3
:101FF00008431060704701460020174A8C32106871
:1020000020F4400008431060704701460020124A47
:102010008C32106820F44030084310607047194932
:102020000860704739B10C4A3032126802430A4BDB
:1020300030331A6006E0084A303212688243064B99
:1020400030331A607047F9B1034A343212680243E0
:10205000014B34331A601CE000380240FFFFF6EAFF
:10206000103000240030002000004742800E47421C
:102070000024F40000127A0062000020FFFCFF0F31
:102080005C014742E01147428F4A126882438E4BFF
:102090001A60704739B18C4A121D126802438A4B8C
:1020A0001B1D1A6006E0884A121D12688243864B87
:1020B0001B1D1A60704739B1834A0C321268024303
:1020C000814B0C331A6006E07F4A0C32126882435F
:1020D0007D4B0C331A60704739B17B4A103212685D
:1020E0000243794B10331A6006E0774A10321268C7
:1020F0008243754B10331A60704739B1724A243AE3
:1021000012680243704B243B1A6006E06E4A243A80
:10211000126882436C4B243B1A60704739B16A4A9B
:10212000203A12680243684B203B1A6006E0664A78
:10213000203A12688243644B203B1A60704739B1E1
:10214000614A1C3A126802435F4B1C3B1A6006E06E
:102150005D4A1C3A126882435B4B1C3B1A60704715
:1021600039B1594A143A12680243574B143B1A606A
:1021700006E0554A143A12688243534B143B1A60E6
:10218000704739B1504A103A126802434E4B103B27
:102190001A6006E04C4A103A126882434A4B103BE0
:1021A0001A60704739B1484A1C3212680243464BE4
:1021B0001C331A6006E0444A1C3212688243424BC8
:1021C0001C331A60704739B13F4A2032126802430B
:1021D0003D4B20331A6006E03B4A203212688243AE
:1021E000394B20331A60704739B1374A24321268AC
:1021F0000243354B24331A6006E0334A2432126816
:102200008243314B24331A60704739B12E4A2C3245
:10221000126802432C4B2C331A6006E02A4A2C32F7
:1022200012688243284B2C331A60704739B1264A12
:10223000303212680243244B30331A6006E0224ADF
:10224000303212688243204B30331A6070470128C5
:1022500008D11D493C31096841F008011A4A3C3255
:10226000116007E018493C31096821F00801164A5D
:102270003C321160704739B1134A273A1278024351
:10228000114B273B1A7006E00F4A273A1278824317
:102290000D4B273B1A7070470B484030006840F0E8
:1022A0008070094940310860704701460020064AA5
:1022B000283A12680A400AB1012000E00020704765
:1022C00001492639087070473438024010B5044679
:1022D000FA48844208D101211020FFF752FF002163
:1022E0001020FFF74EFF57E0F548844209D1012145
:1022F0004804FFF735FF00214FF40030FFF730FFAF
:102300004AE0F048844209D101218804FFF728FF00
:1023100000214FF48020FFF723FF3DE0EA4884428C
:1023200009D10121C804FFF71BFF00214FF4002051
:10233000FFF716FF30E0E548844209D10121080586
:10234000FFF70EFF00214FF48010FFF709FF23E095
:10235000DF48844208D101212020FFF712FF00212D
:102360002020FFF70EFF17E0DA48844209D101214F
:102370008807FFF7F5FE00214FF08040FFF7F0FEE1
:102380000AE0D548844207D101214005FFF7E8FE65
:1023900000216005FFF7E4FE10BD2DE9FF4705466B
:1023A0000E460024A14600BFA046B08900B100BF80
:1023B0002C8A24F44054F08804432C82AC8941F2E6
:1023C0000C608443B0883189084371890843044311
:1023D000AC81AC8A24F44074B0890443AC82684672
:1023E000FFF74FFDB548854202D0B948854202D17A
:1023F000DDF80C9001E0DDF80890A88900F40040B9
:1024000040B109EBC90000EB091031684900B0FB8D
:10241000F1F707E009EBC90000EB0910316889000A
:10242000B0FBF1F76420B7FBF0F004012009642150
:1024300001FB1078A88900F4004040B1322000EB85
:10244000C800B0FBF1F000F00700044308E03220C0
:1024500000EB08106421B0FBF1F000F00F00044322
:102460002C81BDE8FF874FF4165101600021818067
:10247000C18001810C21418100218181704710B50B
:1024800002460020108A20F470600B884C88234399
:102490008C882343CC8823431843108210BD00212D
:1024A000018041808180C180704721B1828942F4DE
:1024B0000052828104E082894DF6FF731A408281C6
:1024C0007047028B02F47F420283028B0A4302832D
:1024D000704721B1828942F40042828103E08289FF
:1024E000C2F30E028281704721B1828A42F40062F7
:1024F000828204E0828A4FF2FF731A408282704720
:10250000C1F308028280704701468888C0F3080042
:102510007047028A4FF6F0731A400282028A0A4319
:102520000282704721B1828942F00202828104E076
:1025300082894FF6FD731A408281704782894FF27B
:10254000FF731A40828182890A4382817047028A1E
:102550004FF6DF731A400282028A0A4302827047F2
:1025600021B1028A42F48042028204E0028A4BF6E0
:10257000FF731A4002827047818941F00101818115
:10258000704721B1828A42F00802828204E0828A86
:102590004FF6F7731A4082827047028BD2B20283E1
:1025A000028B42EA01220283704721B1828A42F003
:1025B0002002828204E0828A4FF6DF731A40828210
:1025C000704721B1828A42F01002828204E0828A3E
:1025D0004FF6EF731A4082827047828A4FF6FB7380
:1025E0001A408282828A0A438282704721B1828A9B
:1025F00042F00202828204E0828A4FF6FD731A40A2
:10260000828270471AB1838A0B43838202E0838AF5
:102610008B4383827047F0B50346002400260025D3
:10262000002040F66A17B94200D100BF1846C1F336
:10263000421401F01F06012707FA06F5012C01D10B
:102640000C3004E0022C01D1103000E014301AB13B
:1026500007682F43076002E00768AF430760F0BDDB
:1026600002460020B1F5007F00D100BF13880B4067
:102670000BB1012000E00020704701F40072B2F5B8
:10268000007F00D100BFCA430280704770B5024688
:10269000002400230025002040F66A16B14200D134
:1026A00000BFC1F3421501F01F03012606FA03F330
:1026B000012D13D19689334017E00000001001402E
:1026C0000044004000480040004C004000500040E2
:1026D0000014014000780040007C0040022D02D12F
:1026E000168A334001E0968A33400C12012606FA1E
:1026F00004F41688344013B10CB1012000E000202E
:1027000070BD10B50022002340F66A14A14200D12A
:1027100000BF0A1201249440A3B2DC43048010BD20
:1027200010B50446FE48844208D101210846FFF74F
:1027300028FD00210120FFF724FD9DE0B4F1804F2A
:1027400008D101210846FFF70BFD00210120FFF70A
:1027500007FD91E0F348844208D101210220FFF7F0
:10276000FFFC00210220FFF7FBFC85E0EE488442DD
:1027700008D101210420FFF7F3FC00210420FFF71A
:10278000EFFC79E0E948844208D101210820FFF7F5
:10279000E7FC00210820FFF7E3FC6DE0E4488442F9
:1027A00008D101211020FFF7DBFC00211020FFF7EA
:1027B000D7FC61E0DF48844208D101212020FFF7E7
:1027C000CFFC00212020FFF7CBFC55E0DA48844203
:1027D00008D101210220FFF7D4FC00210220FFF7DD
:1027E000D0FC49E0D548844209D101210804FFF713
:1027F000C8FC00214FF48030FFF7C3FC3CE0D04818
:10280000844209D101214804FFF7BBFC00214FF4A9
:102810000030FFF7B6FC2FE0CA48844209D10121FD
:102820008804FFF7AEFC00214FF48020FFF7A9FCDD
:1028300022E0C548844208D101214020FFF790FCE6
:1028400000214020FFF78CFC16E0C048844208D1EC
:1028500001218020FFF784FC00218020FFF780FC0D
:102860000AE0BB48844207D101218015FFF778FCBC
:102870000021A015FFF774FC10BD00220288A84BB0
:1028800098420ED0AC4B98420BD0B0F1804F08D09C
:10289000A44B984205D0A44B984202D0A34B984237
:1028A00004D14FF68F731A404B881A43A04B9842BD
:1028B00007D0A04B984204D04FF6FF431A400B8933
:1028C0001A4302804B68C3620B880385944B98427D
:1028D00002D0994B984201D18B7A038601238382DF
:1028E00070474FF0FF31416000210180018141803C
:1028F000817270470185828270470A4600210188F3
:102900004FF68F7319401143018070474162704741
:10291000C16270470146486A70470146088D70479A
:1029200021B1028842F00202028004E002884FF6E0
:10293000FD731A400280704721B1028842F0040200
:10294000028004E002884FF6FB731A400280704751
:1029500021B1028842F08002028004E002884FF632
:102960007F731A400280704702884FF6F7731A404F
:10297000028002880A430280704702884FF6FF43B4
:102980001A40028002880A430280704721B10288FF
:1029900042F00102028004E002884FF6FE731A4002
:1029A0000280704770B5002400220023058C4FF68A
:1029B000FE7635400584028C8388048B4FF68F7534
:1029C0002C40B51E2C400D882C43751E2A408D8945
:1029D0002A434D882A43524DA84202D0564DA84260
:1029E00013D14FF6F7752A40CD892A434FF6FB7570
:1029F0002A408D882A434FF6FF652B404FF6FF553E
:102A00002B400D8A2B434D8A2B43838004838D6892
:102A10004563028470BD70B5002400220023058C3C
:102A20004FF6EF7635400584028C8388048B48F698
:102A3000FF752C404FF6FF452C400D884FF6FF7672
:102A400006EA05252C434FF6DF752A408D8906EAF4
:102A500005152A434D8806EA05152A43304DA8423C
:102A600002D0354DA8421DD14FF67F752A40CD8941
:102A70004FF6FF7606EA05152A434FF6BF752A4042
:102A80008D8806EA05152A434FF6FF352B404FF295
:102A9000FF752B400D8A06EA85052B434D8A06EA11
:102AA00085052B43838004838D688563028470BD14
:102AB00070B5002400220023058C4FF6FF663540D8
:102AC0000584028C8388848B4FF68F752C404FF6DB
:102AD000FC752C400D882C434FF6FF552A408D89FC
:102AE0004FF6FF7606EA05252A434D8806EA0525B6
:102AF0002A430B4DA84202D00F4DA84238D14FF2C5
:102B0000FF752A40CD894FF6FF7606EA05252A4350
:102B10004FF6FF352A408D8806EA05252A4319E03D
:102B2000000001400004004000080040000C00408C
:102B3000001000400014004000040140004001402B
:102B4000004401400048014000180040001C0040C3
:102B5000002000404EF6FF752B404DF6FF752B40D0
:102B60000D8A06EA05152B434D8A06EA05152B4307
:102B7000838084838D68C563028470BD70B5002234
:102B800000230024058C4EF6FF7635400584038C27
:102B90008488828B48F6FF752A404FF6FF452A400D
:102BA0000D884FF6FF7606EA05252A434DF6FF7598
:102BB0002B408D8906EA05352B434D8806EA0535FD
:102BC0002B43FE4DA84202D0FD4DA84208D14BF642
:102BD000FF752C400D8A4FF6FF7606EA85152C43CB
:102BE000848082838D680564038470BD0021018028
:102BF0004180818081608181C181018241827047F1
:102C000070B50346002000241846183001258D4079
:102C1000ACB21D8CA5431D8409B108290AD100EB73
:102C2000610005684FF68F763540056005681543ED
:102C300005600FE00D1FC5F34E052844056848F6F2
:102C4000FF763540056005684FF6FF7606EA0226F6
:102C50003543056070BD4163704781637047C16350
:102C60007047016470470A460021018B4FF68F734D
:102C700019401143018370470A460021018B48F631
:102C8000FF7319404FF6FF7303EA022319430183D0
:102C900070470A460021818B4FF68F73194011430C
:102CA000818370470A460021818B48F6FF731940E3
:102CB0004FF6FF7303EA02231943818370470A46E4
:102CC0000021018B4FF6F7731940114301837047C0
:102CD0000A460021018B4FF2FF7319404FF6FF7334
:102CE00003EA02231943018370470A460021818BBE
:102CF0004FF6F77319401143818370470A4600214C
:102D0000818B4FF2FF7319404FF6FF7303EA0223E2
:102D10001943818370470A460021018B4FF6FB73EC
:102D200019401143018370470A460021018B4FF679
:102D3000FF3319404FF6FF7303EA0223194301835F
:102D400070470A460021818B4FF6FB7319401143EF
:102D5000818370470A460021818B4FF6FF3319406B
:102D60004FF6FF7303EA02231943818370470A4633
:102D70000021018B4FF67F73194011430183704787
:102D80000A460021018BC1F30E014FF6FF7303EADF
:102D900002231943018370470A460021818B4FF6B5
:102DA0007F7319401143818370470A460021818B4C
:102DB000C1F30E014FF6FF7303EA02231943818327
:102DC00070470A460021018C4FF6FD7319401143EC
:102DD000018470470A460021018C4FF6F7731940B1
:102DE0001143018470470A460021018C4FF6DF73BE
:102DF00019404FF6FF7303EA021319430184704729
:102E00000A460021018C4FF67F7319404FF6FF737D
:102E100003EA02131943018470470A460021018C1A
:102E20004FF6FF5319404FF6FF7303EA022319438D
:102E3000018470470A460021018C4FF2FF7319404C
:102E40004FF6FF7303EA02231943018470470A46D1
:102E50000021018C4DF6FF7319404FF6FF7303EA12
:102E6000023319430184704730B5002301248C409C
:102E7000A3B2048C9C430484048C02FA01F5ADB225
:102E80002C43048430BD30B5002304248C40A3B20D
:102E9000048C9C430484048C02FA01F5ADB22C43EB
:102EA000048430BD828B4FF2FF331A408283828BC1
:102EB0004FF6FF7303EA01231A4382837047F0B58C
:102EC0000C461546002100220026078C4EF6FF7C9A
:102ED00007EA0C070784818B028C4FF6FF7707EA1D
:102EE000043640F6FF4739404FF6FF7707EA0527DB
:102EF00039434FF6FF7707EA0337394345F6FF7743
:102F00003A4046F480573A4381830284F0BD828B75
:102F10004FF6F3731A408283828B0A438283704791
:102F2000F0B50C461546002100220026078C4FF60E
:102F3000FF6C07EA0C070784818B028C4FF6FF7742
:102F400007EA04264FF60C7739404FF6FF7707EA79
:102F500003172F4339434FF2FF573A4046F4807727
:102F60003A4381830284F0BD028B4FF2FF331A4053
:102F70000283028B4FF6FF7303EA01231A43028395
:102F80007047F0B50C461546002100220026078C3C
:102F90004FF6EF7C07EA0C070784018B028C4FF693
:102FA000FF7707EA041640F6FF4739404FF6FF77F0
:102FB00007EA033739434FF6FF7703E0000001408B
:102FC0000004014007EA052739434FF65F773A408E
:102FD00046F010073A4301830284F0BD028B4FF69E
:102FE000F3731A400283028B0A4302837047F0B5E1
:102FF0000C46154600210022068C4FF6FE773E4017
:103000000684018B028C4FF60C7631407E1C06EA5A
:1030100003162E4331434FF6F576324044F0010655
:10302000324301830284F0BD70B505460C4620880A
:1030300050B92389A28861882846FFF7D8FFE18824
:103040002846FFF7CBFF25E0208804280AD12389F2
:10305000A28861882846FFF794FFE1882846FFF799
:1030600083FF17E0208808280AD12389A288618875
:103070002846FFF755FFE1882846FFF748FF09E09B
:103080002389A28861882846FFF719FFE18828462E
:10309000FFF708FF70BD0021018041800121818080
:1030A0000021C180018170472DE9F04105460C46A1
:1030B00000260127608808B9022600E00026A088C3
:1030C000012801D1022700E001272088A0B9238927
:1030D000A28861882846FFF78AFFE1882846FFF723
:1030E0007DFF23893A4631462846FFF74AFFE188AB
:1030F0002846FFF739FF13E02389A2886188284614
:10310000FFF73FFFE1882846FFF72EFF23893A4665
:1031100031462846FFF76BFFE1882846FFF75EFF40
:10312000BDE8F0810146486B70470146886B7047E7
:103130000146C86B70470146086C70470A884B8887
:103140001A438B881A43CB881A430B891A434B893D
:103150001A438B891A43A0F844207047002101804C
:1031600041808180C180018141818181704731B17D
:10317000B0F8442042F40042A0F8442005E0B0F842
:103180004420C2F30E02A0F84420704721B1828887
:1031900042F00402828004E082884FF6FB731A40FA
:1031A0008280704721B1828842F00102828004E06F
:1031B00082884FF6FE731A40828070471AB1838965
:1031C0000B43838102E083898B4383817047818233
:1031D000704702460020138A0B400BB1012000E02B
:1031E00000207047CA430282704730B50246002073
:1031F00000230024158A05EA0103958905EA0104E4
:1032000013B10CB1012000E0002030BDCA4302829E
:10321000704741EA0203A0F8483070471AB1838929
:103220000B43838102E083898B438381704721B103
:10323000828842F00802828004E082884FF6F773A9
:103240001A408280704701894FF6F872114001815F
:1032500070470A46002101894FF68F7319401143C8
:103260000181704730B504460D4629462046FFF7D8
:10327000F0FF208940F00700208130BD2DE9F041AA
:1032800004460D4616461F46602D06D13B460122D8
:1032900031462046FFF775FE05E03B4601223146E8
:1032A0002046FFF7A4FE29462046FFF7D2FF2089DB
:1032B00040F007002081BDE8F08130B50C460021C8
:1032C0000189C9B24FF6FF7505EA03251543254369
:1032D0002943018130BD2DE9F04105460E461746D0
:1032E0009846002443463A4631462846FFF7E5FF14
:1032F0002C894FF6F870044044F007044FF68F70A5
:10330000044044F070042C81BDE8F081F0B504461F
:103310000D4616461F463B46324629462046FFF7D5
:10332000CCFF208940F480402081F0BD82884FF698
:103330008F731A40828082880A4382807047028994
:103340004FF6F8731A40028102890A4302817047DE
:1033500002894FF67F731A40028102890A43028173
:103360007047F0B50C4615461E460021002200238A
:103370000189028B038C4FF6F877394021434FF6D1
:10338000FC473A4040F201173A434FF6DD773B40A5
:103390004FF6FF7707EA06172F433B43018102836D
:1033A0000384F0BD21B1828842F08002828004E073
:1033B00082884FF67F731A4082807047A0F85010C1
:1033C00070470000704738B50446FC4890F8240068
:1033D000C0B114B10220009001E000200090F74A33
:1033E0001268517CF54A526810786B460122FDF74D
:1033F000BDFF10B14FF0FF3038BD9DF80010EF4811
:10340000417423E0ED48807A10B94FF0FF30F3E7C4
:1034100024B1EA48407C08B10020EDE714B1012056
:10342000009001E000200090E44A1268517CE34AD9
:10343000526810786B460122FDF798FF10B14FF0EB
:10344000FF30D9E79DF80010DC4841740020D3E735
:1034500038B5002419E0D9480068407BA04204D068
:10346000D6480068007EA04200D10CE0D3494968EC
:1034700008786B4601222146FDF755FE10B14FF04A
:10348000FF3038BD00BF601CC4B2CC484068007932
:10349000A042E0DC0020F4E770B504460D46C748C2
:1034A0000068407BA04204D0C4480068007EA0426F
:1034B00002D14FF0FF3070BDC04840680079A04293
:1034C00002DC4FF0FF30F6E7BC49496808782B462C
:1034D00001222146FDF727FEEDE738B50446B7483F
:1034E00090F82300A04201D1002038BD14B1302053
:1034F000009001E000200090B048807C20B19DF851
:10350000000040F002000090AC4890F8220020B18A
:103510009DF8000040F080000090A84A1268D17D1C
:10352000A64A526810786B460122FDF71FFF10B1C2
:103530004FF0FF30D9E7A14880F823400020D4E7BE
:103540001CB5044604F0700010B10120019005E0A4
:1035500014B10020019001E040200190974A1268C8
:10356000517D964A5268107801AB0122FDF7FEFEAC
:1035700020B1002191488172481E1CBD9DF80400B5
:1035800020F040018D4801730020019004F04000BC
:1035900020B99DF8040040F00400019004F02000E0
:1035A00020B99DF8040040F00200019004F01000E2
:1035B00020B99DF8040040F00100019004F00800DB
:1035C00020B99DF8040040F0380001907B4A126851
:1035D000917D7A4A5268107801AB0122FDF7C6FE50
:1035E00020B1002175488172481EC6E724B1082C1D
:1035F00002D00020FFF771FF704A126811796F4AFC
:10360000526810786B460122FDF78DFD10B14FF026
:10361000FF30B2E704F0010038B1112001909DF8AD
:10362000000040F02000009006E0102001909DF87E
:10363000000020F020000090604890F8240028B19D
:103640009DF8000040F08000009004E09DF800002C
:1036500020F080000090594A126892F82610574ACC
:103660005268107801AB0122FDF780FE10B14FF0D7
:10367000FF3082E7514A12681179504A5268107837
:103680006B460122FDF772FE10B14FF0FF3074E778
:103690004A488472002101753220FEF707F80020A5
:1036A0006BE738B504462CB14448C089A04201DB21
:1036B000642C02DD4FF0FF3038BD4048C08990FBDC
:1036C000F4F0401EC0B200903C4A126892F82410F8
:1036D0003A4A526810786B460122FDF747FE10B156
:1036E0004FF0FF30E8E73548C1899DF80000401CE5
:1036F00091FBF0F081B2314801850020DCE738B55C
:1037000004462E48807CA04201D1002038BD002C08
:1037100046D02A4A12681179284A526810786B46B6
:103720000122FDF700FD10B14FF0FF30EEE79DF8EC
:10373000000020F020000090204A126811791F4AF2
:10374000526810786B460122FDF710FE10B14FF061
:10375000FF30DBE70320FDF7A9FF022000901748A8
:1037600090F8220020B19DF8000040F08000009009
:10377000124890F8230020B19DF8000040F030007E
:1037800000900E4A1268D17D0C4A526810786B4640
:103790000122FDF7EBFD002853D04FF0FF30B5E7D5
:1037A000064A12681179054A526810786B46012260
:1037B000FDF7B9FC20B14FF0FF30A7E774000020FF
:1037C000FE48807A00F0010028B19DF8000040F02A
:1037D0002000009004E09DF8000020F02000009000
:1037E000F64A12681179F54A526810786B46012240
:1037F000FDF7BCFD10B14FF0FF3087E70320FDF768
:1038000055FFEE4890F8220010B18020009001E0B2
:1038100000200090E94890F8230020B19DF80000B6
:1038200040F030000090E54A1268D17DE34A5268CA
:1038300010786B460122FDF799FD10B14FF0FF3073
:1038400064E7DE488474002060E738B50120FFF7A4
:1038500056FF0C240EE06B46012200212046FDF7A6
:1038600062FC054625B99DF80000482800D103E018
:10387000601CC4B20F2CEEDD00BF0F2C05DDD0A004
:1038800002F06CFC4FF0FF3038BDCC4880F82A4085
:1038900010208DF80000C94991F82A006B460122DA
:1038A0000A21FDF763FD10B14FF0FF30ECE7012076
:1038B000FDF7FCFE1F208DF80000C04991F82A009A
:1038C0006B4601220A21FDF751FD10B14FF0FF3088
:1038D000DAE70120FDF7EAFEB84991F82A006B46C5
:1038E00003221021FDF71FFC10B14FF0FF30CBE792
:1038F0009DF800008030B14988859DF80110803125
:10390000AE48C1859DF802108031018610208DF8E7
:103910000000AA4991F82A006B4601220A21FDF70E
:1039200025FD10B14FF0FF30AEE70120FDF7BEFEE0
:103930000020FFF7E4FE40208DF800009F4A126847
:10394000917E9E4A526810786B460122FDF70EFD6B
:1039500010B14FF0FF3097E7984890F82A0040F0F8
:1039600080008DF80000954A1268917F934A526852
:1039700010786B460122FDF7F9FC10B14FF0FF30D3
:1039800082E702208DF800008C4A1268D17F8B4AB2
:10399000526810786B460122FDF7E8FC10B14FF039
:1039A000FF3071E788208DF80000844A126892F891
:1039B0002010824A526810786B460122FDF7D6FC2F
:1039C00010B14FF0FF305FE77C4890F82A008DF887
:1039D00000007A4A126892F82110784A52681078EA
:1039E0006B460122FDF7C2FC10B14FF0FF304BE7F0
:1039F0000A208DF80000714A126892F822106F4A6E
:103A0000526810786B460122FDF7B0FC10B14FF000
:103A1000FF3039E781208DF80000684A126892F87B
:103A20002310664A526810786B460122FDF79EFC0F
:103A300010B14FF0FF3027E711208DF800005F4AEA
:103A4000126892F826105D4A526810786B4601227F
:103A5000FDF78CFC10B14FF0FF3015E703208DF817
:103A60000000564A126892F82710544A526810789B
:103A70006B460122FDF77AFC10B14FF0FF3003E7EF
:103A8000002001E708B54D48807A10B94FF0FF30AB
:103A900008BD00200090494A1268517C474A52688C
:103AA00010786B460122FDF761FC10B14FF0FF303A
:103AB000EEE7424A12685179404A526810786B46E4
:103AC0000122FDF753FC10B14FF0FF30E0E73B4A15
:103AD00012681179394A526810786B460122FDF755
:103AE00045FC10B14FF0FF30D2E7344890F8240085
:103AF000002853D00C200090304A126811792F4AC8
:103B0000526810786B460122FDF730FC10B14FF07F
:103B1000FF30BDE73220FDF7C9FDC02000902748E7
:103B2000807A00F0010020B19DF8000040F02000F4
:103B30000090224A12681179204A526810786B4628
:103B40000122FDF713FC10B14FF0FF30A0E71B4836
:103B5000407C10B10220009001E000200090174A44
:103B60001268517C154A526810786B460122FDF7A5
:103B7000FDFB10B14FF0FF308AE7002000900F4AA4
:103B8000126851790D4A526810786B460122FDF790
:103B9000EDFB002861D04FF0FF3079E70420009062
:103BA000064A12681179054A526810786B4601225C
:103BB000FDF7DCFB70B14FF0FF3069E774000020C7
:103BC000436F6D70617373206E6F7420666F756ED6
:103BD000642E0A00F748807C20B9F648807A00F00D
:103BE000010010B94020009001E060200090F14AEF
:103BF00012681179EF4A526810786B460122FDF77E
:103C0000B5FB10B14FF0FF3042E73220FDF74EFD1B
:103C1000E848407C10B10120009001E000200090B5
:103C2000E44A1268517CE34A526810786B460122DC
:103C3000FDF79CFB10B14FF0FF3029E7DD4A126819
:103C40005179DC4A52681078DA4B10330122FDF7C3
:103C50008DFB10B14FF0FF301AE7002018E770B568
:103C60000446002624F00104D24890F8240008B14C
:103C7000002070BDCF48807A10B94FF0FF30F8E7D0
:103C8000CC48057C807A2040CA4908740846007CEC
:103C9000A04202D04FF0FF3600E0002614B9C5481C
:103CA000007D18B10120FFF78EFB02E00020FFF736
:103CB0008AFB3CB1FFF7E6FE20B1BE4805744FF029
:103CC000FF30D6E73046D4E738B50446B948807AA5
:103CD00010B94FF0FF3038BDBC2C02DB0120009042
:103CE00015E0622C02DB0220009010E02A2C02DB9F
:103CF000032000900BE0142C02DB0420009006E06F
:103D00000A2C02DB0520009001E006200090A94863
:103D1000C07A9DF80010884201D10020DBE7A54A57
:103D200012689178A34A526810786B460122FDF719
:103D30001DFB10B14FF0FF30CDE79DF800109D48FE
:103D4000C1720020C7E738B50446282C02DD4FF0C9
:103D5000FF3038BDDCB90020FFF7BFFB00208DF835
:103D6000000007208DF80100924A1268517D914AA7
:103D7000526810786B460222FDF7F8FA10B14FF046
:103D8000FF30E6E700218B4801750020E1E70120C4
:103D9000FFF7A3FB012C03D102208DF8000033E0D4
:103DA000022C03D103208DF800002DE0052C03DC4C
:103DB00004208DF8000027E00A2C03DC05208DF894
:103DC000000021E0142C03DC06208DF800001BE02D
:103DD000282C03DC07208DF8000015E0502C03DCB4
:103DE00008208DF800000FE0A02C03DC09208DF8DE
:103DF000000009E0B4F5A07F03DC0A208DF8000084
:103E000002E00B208DF800006A4A1268517A694A74
:103E1000526810786B460122FDF7A8FA10B14FF0F6
:103E2000FF3096E720208DF80000624A1268517D2D
:103E3000604A526810786B460122FDF797FA10B17C
:103E40004FF0FF3085E708215A4881720021017345
:103E5000012101750020FFF702FF002079E738B546
:103E600004465448807A10B94FF0FF3038BD5148AD
:103E700090F8240010B14FF0FF30F7E74D48007D77
:103E800050B134B1282C04DCE0B2FFF75CFF002015
:103E9000ECE70020FFF757FF042C01DA042404E0CC
:103EA000B4F57A7F01DD4FF47A744FF47A7090FBA9
:103EB000F4F0401EC0B200903E4A126851783D4A6C
:103EC000526810786B460122FDF750FA10B14FF09E
:103ED000FF30CBE79DF80000401C4FF47A7191FB56
:103EE000F0F081B23348C1810146098D642902DABC
:103EF0000146098D00E064210846FFF7D2FB2D49F9
:103F0000C9894810FFF7E0FE0020AFE738B5044646
:103F10002848807A10B94FF0FF3038BD022C06D007
:103F2000042C07D0082C08D0102C0CD108E000205D
:103F300000900BE00820009008E01020009005E0C1
:103F40001820009002E04FF0FF30E6E700BF19486C
:103F5000407A9DF80010B0EBE10F01D10020DCE7C2
:103F6000144A1268D179134A526810786B460122BC
:103F7000FDF7FCF910B14FF0FF30CEE79DF80000DF
:103F8000C1100C4841720020C7E738B50446094803
:103F9000807A10B94FF0FF3038BDFA2C0CD0B4F550
:103FA000FA7F0CD0B4F57A7F0CD0B4F5FA6F0FD14C
:103FB0000BE0000074000020002000900BE00820BF
:103FC000009008E01020009005E01820009002E02A
:103FD0004FF0FF30E0E700BFFE48007A9DF8001088
:103FE000B0EBE10F01D10020D6E7FA4A12689179CF
:103FF000F84A526810786B460122FDF7B7F910B104
:104000004FF0FF30C8E79DF80000C010F14908727A
:104010000020C1E71CB580208DF80000ED4A126831
:10402000517DEC4A526810786B460122FDF79EF9EB
:1040300010B14FF0FF301CBD6420FDF737FB0020AE
:104040008DF80000E34A1268517DE24A5268107808
:104050006B460122FDF78AF910B14FF0FF30EAE715
:1040600048208DF80000DB4A1268117AD94A52685C
:1040700010786B460122FDF779F910B14FF0FF304F
:10408000D9E7FF21D3488172FF20D2490872FF216E
:10409000D0484172C1724FF6FF71C181FF21017496
:1040A00081744FF6FF7101850121017380F82210A0
:1040B000002180F8231041750175163001604160C0
:1040C0008160163880F8241080F82510C1844FF4E0
:1040D000FA60FFF75AFF10B14FF0FF30ABE7022054
:1040E000FFF714FF10B14FF0FF30A4E72A20FFF7CD
:1040F000EBFD10B14FF0FF309DE73220FFF7AFFE30
:1041000010B14FF0FF3096E70020FFF7A8FD10B187
:104110004FF0FF308FE7FFF798FB0A20FFF7C1FA57
:1041200010B14FF0FF3086E70020FFF709FA0020BA
:1041300081E77CB504460D46A648807A00F0700001
:1041400010B94FF0FF307CBDA24A1268917BA14AA2
:10415000526810786B460622FCF7E5FF10B14FF06D
:10416000FF30F0E79DF801009DF8001040EA0120C3
:1041700000B220809DF803009DF8021040EA012063
:1041800000B260809DF805009DF8041040EA01200F
:1041900000B2A08015B12846FFF714F90020D2E73D
:1041A0007CB504460D468B48807A00F0080010B9B3
:1041B0004FF0FF307CBD874A1268D17B854A526838
:1041C00010786B460622FCF7AEFF10B14FF0FF30BF
:1041D000F0E79DF801009DF8001040EA012000B2D0
:1041E00020809DF803009DF8021040EA012000B2F3
:1041F00060809DF805009DF8041040EA012000B29F
:10420000A08015B12846FFF7DDF80020D2E7F8B509
:1042100006460C466F48807A10B94FF0FF30F8BD63
:104220006C4A1268117C6B4A526810786B46022205
:10423000FCF779FF10B14FF0FF30F0E79DF8010077
:104240009DF8001040EA012005B214B12046FFF7A6
:10425000B9F860484068B0F9080000EE100AF8EEBE
:10426000C00A00EE105AB8EEC00A70EE600A594853
:104270004068C08800EE100AB8EE400A80EE801A4E
:104280009FED550A31EE000ADFED540A20EE200AB8
:10429000BDEEC00A86ED000A0020C0E710B588B068
:1042A00004461CB94FF0FF3008B010BD206828B993
:1042B000606818B9A06808B90020F5E74549496861
:1042C000087806AB03221146FCF72DFF10B14FF022
:1042D000FF30E9E79DF81800082101EB201000F0FD
:1042E0000F00ADF800009DF8190001EB201000F060
:1042F0000F00ADF802009DF81A0001EB201000F04D
:104300000F00ADF8040020684100BDF90000403006
:1043100091FBF0F000B2ADF8100060684100BDF90B
:104320000200403091FBF0F000B2ADF81200A0683E
:104330004100BDF90400403091FBF0F000B2ADF84F
:10434000140024494968087806AB06221146FCF798
:10435000EAFE10B14FF0FF30A6E79DF819009DF876
:10436000181040EA012000B2ADF808009DF81B00CB
:104370009DF81A1040EA012000B2ADF80A009DF83D
:104380001D009DF81C1040EA012000B2ADF80C00A1
:10439000BDF81000BDF80810084400B2ADF81000D8
:1043A000BDF81200BDF80A10084400B2ADF81200C2
:1043B000BDF81400BDF80C10084400B2ADF81400AC
:1043C000BDF81000000A8DF81800BDF81000C0B24A
:1043D00006E000007400002000000C42000080474E
:1043E0008DF81900BDF81200000A8DF81A00BDF80A
:1043F0001200C0B28DF81B00BDF81400000A8DF841
:104400001C00BDF81400C0B28DF81D00FE494968BB
:10441000087806AB06221146FCF7A8FF10B14FF052
:10442000FF3041E700203FE70146F748007A30B10E
:10443000012807D0022809D003280FD10AE0FA206A
:1044400008800EE04FF4FA7008800AE04FF47A70AA
:10445000088006E04FF4FA60088002E0002008803F
:1044600000BF00BF002070470146E748407A30B1E6
:10447000012807D0022808D003280CD108E0022028
:1044800008700BE00420087008E00820087005E0C0
:104490001020087002E04FF0FF30704700BFDA488C
:1044A000C07C18B108784006000E08700020F4E7C0
:1044B0000146D548C07A082817D2DFE800F0170473
:1044C000070A0D101318BC20088013E06220088032
:1044D00010E02A2008800DE0142008800AE00A205D
:1044E000088007E00520088004E000BF00BF00202E
:1044F000088000BF00BF002070470146C24890F806
:10450000240010B14FF0FF307047BF48C0890880C9
:104510000020F9E70146BC48008D08800020704764
:104520000146B948007A30B1012809D002280CD0E0
:10453000032814D10EE09FEDB50A81ED000A11E0C9
:104540009FEDB30A81ED000A0CE09FEDB20A81ED08
:10455000000A07E09FEDB00A81ED000A02E04FF08B
:10456000FF30704700BF0020FBE70146A648407AB5
:1045700030B1012808D002280AD0032810D10BE05E
:104580004FF4804008800EE041F69C7008800AE0FD
:104590004FF48050088006E04FF40060088002E08D
:1045A0004FF0FF30704700BF9748C07C10B10888BB
:1045B000401008800020F5E701469348007C087011
:1045C0000020704701469048807A10B101200870A1
:1045D00001E0002008700020704738B504468A4882
:1045E000807A10B94FF0FF3038BD874A1268917C4D
:1045F000854A526810786B460222FCF794FD10B190
:104600004FF0FF30F0E79DF801009DF8001040EA00
:10461000012000B220800020E6E72DE9FE4F07468A
:10462000884692461D46DDF830B0002600247648C4
:1046300090F8240010B1601EBDE8FE8F00202870A5
:104640007148807A10B94FF0FF30F5E76E48007C72
:1046500010B94FF0FF30EFE76B48007C00F04000EE
:1046600008B1B01CC6B26848007C00F0200008B158
:10467000B01CC6B26448007C00F0100008B1B01C49
:10468000C6B26148007C00F0080008B1B01DC6B297
:104690005D4A1268117B5C4A526810786B460222B0
:1046A000FCF741FD10B14FF0FF30C5E79DF8010068
:1046B0009DF8001040EA0129B14501DA0020BBE76E
:1046C000514840684088B9EB600F17DD4E4A1268C8
:1046D000D17C4D4A526810786B460122FCF723FDCD
:1046E00010B14FF0FF30A7E79DF8000000F0100078
:1046F00020B1FFF7C7F96FF001009DE75046FEF7C4
:1047000061FE414A1268517B3F4A526810786B46FD
:104710003246FCF708FD10B14FF0FF308CE799FBF3
:10472000F6F0401E8BF8000000202870B4422AD01A
:104730003548007C00F0080028B3601C1DF800001C
:104740001DF8041040EA012000B2A8F80000E01CA7
:104750001DF80010A01C1DF8000041EA002000B266
:10476000A8F80200601D1DF80010201D1DF80000B3
:1047700041EA002000B2A8F80400287840F00800C0
:104780002870A01D84B2B44213D01F48007C00F0F2
:10479000400070B1601C1DF800001DF8041040EAD4
:1047A000012000B23880287840F040002870A01C1A
:1047B00084B2B44213D01448007C00F0200070B1E1
:1047C000601C1DF800001DF8041040EA012000B232
:1047D0007880287840F020002870A01C84B2B44271
:1047E0001ED00948007C00F01000C8B1601C1DF804
:1047F00000001DF8041040EA012000B2B8802878BB
:1048000040F01000287009E074000020000003430D
:10481000000083423333034233338341A01C84B20C
:10482000002009E7F8B504460F461646FE4890F802
:10483000240010B94FF0FF30F8BDFB48807A10B962
:104840004FF0FF30F8E7F84A1268117BF64A5268D9
:1048500010786B460222FCF766FC10B14FF0FF3077
:10486000EAE79DF801009DF8001040EA0125A54205
:1048700003DA00203070401EDEE7EB4840684088D5
:10488000B5EB600F17DDE84A1268D17CE64A526842
:1048900010786B460122FCF746FC10B14FF0FF3058
:1048A000CAE79DF8000000F0100020B1FFF7EAF819
:1048B0006FF00100C0E7DC4A1268517BDA4A5268A7
:1048C00010783B462246FCF72EFC10B14FF0FF302B
:1048D000B2E795FBF4F0401E30700020ACE70146D3
:1048E000D14880F82210002070472DE9F04F87B0A2
:1048F00005460C46914601208DF8100000208DF8E9
:104900001100C94A1268517DC74A5268107804AB39
:104910000222FCF72BFD20B14FF0FF3007B0BDE8BD
:10492000F08FC820FCF7C2FE00208DF81000BE4AB0
:104930001268517CBC4A5268107804AB0122FCF723
:1049400015FD10B14FF0FF30E8E7B74A1268517912
:10495000B54A5268107804AB0122FCF707FD10B18C
:104960004FF0FF30DAE7B04A1268517DAE4A526824
:10497000107804AB0122FCF7F9FC10B14FF0FF30C6
:10498000CCE7A94A1268917EA74A5268107804AB16
:104990000122FCF7EBFC10B14FF0FF30BEE7A24A5A
:1049A00012681179A04A5268107804AB0122FCF712
:1049B000DDFC10B14FF0FF30B0E70C208DF8100097
:1049C000994A12681179984A5268107804AB01220A
:1049D000FCF7CCFC10B14FF0FF309FE70F20FCF745
:1049E00065FE9148406B407A8DF810008E4A12683F
:1049F00091788D4A5268107804AB0122FCF7B6FC1E
:104A000010B14FF0FF3089E78748406B007A8DF88E
:104A10001000854A12685178834A5268107804ABB6
:104A20000122FCF7A3FC10B14FF0FF3076E7B9F19B
:104A3000000F07D07C48406B807A40F0E0008DF892
:104A4000100004E07848406B807A8DF81000764AB8
:104A500012689179744A5268107804AB0122FCF70D
:104A600085FC10B14FF0FF3058E7B9F1000F07D0C7
:104A70006D48406BC07A40F0E0008DF8100003E014
:104A80006A48C07A8DF81000674A1268D179664A80
:104A90005268107804AB0122FCF768FC10B14FF0AB
:104AA000FF303BE7B9F1000F02D0C820FCF7FEFD54
:104AB00040208DF810005C4A126811795A4A5268F9
:104AC000107804AB0122FCF751FC10B14FF0FF301D
:104AD00024E778208DF81000534A12685179524A21
:104AE0005268107804AB0122FCF740FC10B14FF083
:104AF000FF3013E74D498889FCF7D8FD00208DF879
:104B00001000494A12685179474A5268107804AB3C
:104B10000122FCF72BFC10B14FF0FF30FEE6424AB9
:104B20001268117B404A5268107804AB0222FCF7ED
:104B3000FAFA10B14FF0FF30F0E69DF811009DF841
:104B4000101040EA012B0C209BFBF0F0C6B20020B5
:104B5000A86068602860A0606060206082466BE0AA
:104B6000314A1268517B304A5268107804AB0C22EB
:104B7000FCF7D9FA10B14FF0FF30CFE69DF81100E5
:104B80009DF8101040EA012000B2ADF808009DF831
:104B900013009DF8121040EA012000B2ADF80A009F
:104BA0009DF815009DF8141040EA012000B2ADF800
:104BB0000C00BDF90810206808442060BDF90A10F7
:104BC000606808446060BDF90C10A0680844A060EB
:104BD0009DF817009DF8161040EA012000B2ADF8CC
:104BE00000009DF819009DF8181040EA012000B25D
:104BF000ADF802009DF81B009DF81A1040EA012054
:104C000000B2ADF80400BDF900102868084428601F
:104C1000BDF90210686808446860BDF90410A8680E
:104C20000844A86004E0000074000020608B0008C5
:104C30000AF1010000F0FF0AB24591DBF848D0F814
:104C400000C02868C117090441EA10410704624600
:104C50000023384601F05DFA32460023CDE9020117
:104C600001F057FA2860EE48D0F800C06868C11714
:104C7000090441EA1041070462460023384601F066
:104C800048FA32460023CDE9020101F042FA686099
:104C9000E348D0F800C0A868C117090441EA1041F0
:104CA000070462460023384601F033FA32460023F7
:104CB000CDE9020101F02DFAA860D948D0F804C06E
:104CC0002168C817000440EA11480F046246002317
:104CD0003846414601F01DFA32460023CDE9020173
:104CE00001F017FA2060CE48D0F804C06068C11700
:104CF000090441EA1041070462460023384601F0E6
:104D000008FA32460023CDE9020101F002FA6060A0
:104D1000C348D0F804C0A068C117090441EA104193
:104D2000070462460023384601F0F3F932460023B7
:104D3000CDE9020101F0EDF9A060A068002804DDD2
:104D4000A068A0F58030A06003E0A06800F5803086
:104D5000A0600020E2E538B50446B24890F824008F
:104D6000A04201D1002038BD24B3AE4890F8250000
:104D700010B94FF0FF30F6E70020FEF724FB0020CB
:104D8000FEF7BDFCA749C88CFFF769F8002000902A
:104D9000A449496808786B4601222321FCF7E6FA0A
:104DA0000121A04880F824100120FEF70CFBFEF73B
:104DB00069FE13E00020FEF706FB9A48007C009095
:104DC0009849496808786B4601222321FCF7CEFAFE
:104DD0000021944880F82410FEF754FE0020C2E71A
:104DE0002DE9F04186B0074688468E4890F82400A9
:104DF00020B10020FFF7AFFF012400E0002403A84A
:104E0000FFF712FB05A8FFF72FFB01A8FFF750FBE8
:104E100002A8FFF772FB8348867A04A8FFF7CCFB51
:104E2000002241463846FFF760FD0725FF207D49F7
:104E30000872FF217B484172C1724FF6FF71C18138
:104E4000FF218172017401210173BDF80C00FFF78D
:104E50009CF89DF81400FFF759F8BDF80400FEF720
:104E600033FFBDF80800FEF7FAFF3046FEF768FB97
:104E70009DF81000FEF7F3FE14B10120FFF76BFF61
:104E8000284606B0BDE8F081F8B504460D46164642
:104E900016B94FF0FF30F8BD6248807A10B94FF074
:104EA000FF30F8E720128DF80000E0B28DF8010025
:104EB0009DF8010028445B4949684989884202DD20
:104EC0004FF0FF30E7E7574A1268D17E554A5268E3
:104ED00010786B460222FCF749FA10B14FF0FF3010
:104EE000D9E7504A1268117E4E4A5268107833460C
:104EF0002A46FCF73BFA10B14FF0FF30CBE7002019
:104F0000C9E7F8B504460D46164616B94FF0FF300E
:104F1000F8BD4448807A10B94FF0FF30F8E720120E
:104F20008DF80000E0B28DF801009DF801002844E2
:104F30003C4949684989884202DD4FF0FF30E7E784
:104F4000384A1268D17E374A526810786B4602227E
:104F5000FCF70CFA10B14FF0FF30D9E7314A126874
:104F6000117E304A5268107833462A46FCF7DBF847
:104F700010B14FF0FF30CBE70020C9E72DE9F04337
:104F800085B005460E4690469946264890F825007D
:104F900020B14FF0FF3005B0BDE8F08316B94FF0F7
:104FA000FF30F8E7002423E0281B102801DD102043
:104FB00000E0281B87B2321939462046FFF764FF0C
:104FC00010B14FF0FF30E6E701AA39462046FFF75F
:104FD00098FF10B14FF0FF30DDE730193A4601A9D4
:104FE00001F0F4F910B16FF00100D4E7E01984B2D8
:104FF000AC42D9DB4FEA28208DF8000008F0FF0012
:105000008DF80100074A1268517F064A52681078ED
:105010006B460222FCF7AAF930B14FF0FF30BAE735
:10502000608B0008740000200121D44880F825100E
:10503000A0F826900020AEE70146D04890F8240062
:105040000870002070473EB504460D46CB48807A74
:1050500000F0010010B94FF0FF303EBDC74A1268A2
:1050600092F82810C54A526810786B460822FCF75F
:105070005AF810B14FF0FF30EFE79DF8000000F054
:10508000010020B19DF8000000F0020010B16FF0A7
:105090000100E2E79DF8070000F0800010B16FF01A
:1050A0000200DAE79DF801009DF8021040EA0120B5
:1050B00000B220809DF803009DF8041040EA012012
:1050C00000B260809DF805009DF8061040EA0120BE
:1050D00000B2A0802188A948808D11FB00F0001249
:1050E00000B220806188A548C08D11FB00F000123D
:1050F00000B26080A188A148008E11FB00F0001270
:1051000000B2A08015B12846FEF75CF90020A4E7A4
:1051100001469A4840688089088000207047F8B5A9
:1051200005460F461446002C72D0B5F57F7F01DD91
:10513000FF2605E0042D01DA012601E0C5F387060C
:1051400007B90127B4F5207F02DD4FF0FF30F8BD2D
:105150008A48407D28BB894890F8240038B1002057
:10516000FFF7F9FD0121854880F8201003E00021B8
:10517000824880F8201081481630FFF755F97F48A3
:105180001830FFF771F97D481A30FFF791F97B4825
:105190001C30FFF7B2F97948817A81771F30FFF729
:1051A0000BFA0020FEF70FF900208DF800008DF8B3
:1051B000010007208DF80200704A126811796F4AC9
:1051C000526810786B460322FCF7D0F800B193E0E8
:1051D0008DF80060694A1268917A684A52681078BE
:1051E0006B460122FCF7C2F800B185E0012C03D127
:1051F00002208DF8000034E0022C03D103208DF84A
:1052000000002EE0052C04DC04208DF8000028E0CE
:1052100065E00A2C03DC05208DF8000021E0142C49
:1052200003DC06208DF800001BE0282C03DC07209F
:105230008DF8000015E0502C03DC08208DF80000EC
:105240000FE0A02C03DC09208DF8000009E0B4F584
:10525000A07F03DC0A208DF8000002E00B208DF80F
:105260000000464A1268517A444A526810786B46E8
:105270000122FCF77BF800B13EE0C0208DF8000071
:105280003E4A1268117D3D4A526810786B460122F1
:10529000FCF76CF800B12FE020208DF80000374AB1
:1052A0001268517D354A526810786B460122FCF72E
:1052B0005DF800B120E040208DF800002F4A126810
:1052C000517C2E4A526810786B460122FCF74EF84A
:1052D00000B111E0012129484175002037E7274A34
:1052E0001632002103E0505C00B105E0491C0C2996
:1052F000F9D34FF0FF302AE7FF2020490872FF2141
:105300001E484172C1724FF6FF71C181FF21817247
:105310000174012101730146887FFEF711F91749D5
:10532000C88AFEF732FE1549087EFEF7EFFD1349E5
:10533000488BFEF7C9FC1149888BFEF790FD0F4999
:10534000C87FFEF78CFC0D4890F8200010B10120BA
:10535000FFF701FD00208DF80000084A1268117D5A
:10536000064A526810786B460122FBF7FFFF00B136
:10537000C2E70021014841750020E8E674000020E2
:1053800010B5C8234FF48062F74940F6F630FFF7B6
:10539000F5FD10BD10B586B00446F4A0006803907A
:1053A000F3A000680290F3A000680190F2A00068EA
:1053B000009004F0030003A9085C8DF8140003A812
:1053C000C4F3C101405C8DF8150003A8C4F381113A
:1053D000405C8DF8160004F0030002A9085C8DF80B
:1053E000100002A8C4F3C101405C8DF8110002A8AE
:1053F000C4F38111405C8DF8120005AA032140F22C
:105400002640FFF741FD18B14FF0FF3006B010BD48
:1054100004AA032140F22A40FFF736FD10B14FF0F5
:10542000FF30F3E7019805900098049004F0040021
:1054300058B19DF8140040F001008DF814009DF85B
:10544000100040F001008DF8100004F0200058B169
:105450009DF8150040F001008DF815009DF8110031
:1054600040F001008DF8110004F4807058B19DF8EF
:10547000160040F001008DF816009DF8120040F073
:1054800001008DF8120005AA03214FF48860FFF790
:10549000FBFC10B14FF0FF30B8E704AA032140F243
:1054A0003140FFF7F1FC10B14FF0FF30AEE7B348E9
:1054B00004810020AAE71FB50446B048007A00F036
:1054C000030054F820000190AC48007A00F004007A
:1054D00010B1019840420190A848007AC0F3C10081
:1054E00054F820000290A548007A00F0200010B186
:1054F000029840420290A148007AC0F3811054F80B
:10550000200003909D48008900F4807010B103983A
:10551000404203909A49019880FB0101800F40EAC4
:10552000810001909649029880FB0110820042EAB6
:10553000917002909249039880FB0110820042EA28
:10554000917003900198000E8DF800000198000CF6
:105550008DF801000198000A8DF802000198C0B290
:105560008DF803006A4604214FF47470FFF78CFC39
:1055700018B14FF0FF3004B010BD0298000E8DF846
:1055800000000298000C8DF801000298000A8DF8C6
:1055900002000298C0B28DF803006A4604214FF45D
:1055A0007570FFF771FC10B14FF0FF30E3E703981F
:1055B000000E8DF800000398000C8DF80100039890
:1055C000000A8DF802000398C0B28DF803006A4605
:1055D00004214FF47670FFF757FCCCE770B588B024
:1055E000064601A8FEF7C1FFBDF804000021C9036B
:1055F00041EA5045C4036148007A00F0030056F8C0
:10560000200005905D48007A00F0040010B1059874
:10561000404205905948007AC0F3C10056F8200076
:1056200006905648007A00F0200010B106984042DB
:1056300006905248007AC0F3811056F82000079077
:105640004E48008900F4807010B1079840420790DE
:105650000598C117A0FB042301FB043100FB0510D2
:10566000810041EA927005900698C117A0FB0423BF
:1056700001FB043100FB0510810041EA92700690A5
:105680000798C117A0FB042301FB043100FB0510A0
:10569000810041EA927007900598000E8DF808008D
:1056A0000598000C8DF809000598000A8DF80A008D
:1056B0000598C0B28DF80B000698000E8DF80C000E
:1056C0000698000C8DF80D000698000A8DF80E0063
:1056D0000698C0B28DF80F000798000E8DF81000E4
:1056E0000798000C8DF811000798000A8DF8120039
:1056F0000798C0B28DF8130002AA0C214FF4257050
:10570000FFF7C2FB08B070BD30B585B004461DA2DE
:1057100007CA02AB07C3C82C03DD4FF0FF3005B04A
:1057200030BDC82090FBF4F0401E85B2280A8DF8E9
:105730000000E8B28DF801006A46022140F216200E
:10574000FFF7A2FB10B14FF0FF30E8E702AA0C21EF
:1057500040F6C120FFF798FB10B14FF0FF30DEE7B5
:10576000064884810020DAE7888B00084CCD6C0065
:105770000CC92C00365676002646660084010020AF
:1057800009E3CA02FEF2ABC4AAF1DFDFBBAFDFDF81
:105790000146F9488089088000207047F0B52DED5A
:1057A000028B83B006460F4606F0070010B1B7F52E
:1057B000C86F05DD4FF0FF3003B0BDEC028BF0BDCC
:1057C00000EE107AB8EE400ADFEDEC0A80EE208A97
:1057D00001A8FEF749FE9DF80400022806D004281F
:1057E00017D0082828D010284CD138E09FEDE40AC3
:1057F00028EE000ABCEEC00A10EE100A84B29FED3B
:10580000E10A28EE000ABCEEC00A10EE100A85B2CA
:105810003BE09FEDDD0A28EE000ABCEEC00A10EE68
:10582000100A84B29FEDD90A28EE000ABCEEC00A25
:1058300010EE100A85B228E09FEDD50A28EE000A86
:10584000BCEEC00A10EE100A84B29FEDD20A28EE18
:10585000000ABCEEC00A10EE100A85B215E09FEDFA
:10586000CE0A28EE000ABCEEC00A10EE100A84B27E
:105870009FEDCA0A28EE000ABCEEC00A10EE100A1C
:1058800085B202E04FF0FF3096E700BF20128DF89E
:105890000800E0B28DF8090028128DF80A00E8B27D
:1058A0008DF80B0006F00100A0B102AA02214FF40E
:1058B000EA70FFF7E9FA10B14FF0FF307CE70DF125
:1058C0000A0202214FF49270FFF7DEFA10B14FF096
:1058D000FF3071E706F00200A0B102AA02214FF4E6
:1058E000EC70FFF7D1FA10B14FF0FF3064E70DF123
:1058F0000A0202214FF49470FFF7C6FA10B14FF07C
:10590000FF3059E706F00400A0B102AA02214FF4CB
:10591000EE70FFF7B9FA10B14FF0FF304CE70DF120
:105920000A0202214FF49670FFF7AEFA10B14FF061
:10593000FF3041E700203FE738B5044600200090E3
:1059400004F0010020B19DF8000040F0300000900C
:1059500004F0020020B19DF8000040F00C0000901F
:1059600004F0040020B19DF8000040F00300009016
:105970006A4601214FF4A470FFF786FA38BD38B5A6
:105980000446012C01DA012402E0042C00DD042489
:10599000601EC0B200906A46012140F24F10FFF72E
:1059A00073FA38BD38B50446052094FBF0F085B293
:1059B00028128DF80000E8B28DF801006A46022135
:1059C0004FF4EF70FFF760FA38BD38B50446052094
:1059D00094FBF0F085B228128DF80000E8B28DF843
:1059E00001006A4602214FF4ED70FFF74DFA38BD11
:1059F000F8B505460E464FF47A7095FBF0F000FBC3
:105A000006F4200E8DF80000200C8DF80100200A0D
:105A10008DF80200E0B28DF803006A4604214FF4CD
:105A2000AE70FFF731FAF8BD38B50446052094FB97
:105A3000F0F084B220128DF80000E0B28DF8010081
:105A40006A4602214FF4AD70FFF71EFA38BD38B533
:105A50000446052094FBF0F084B220128DF800007B
:105A6000E0B28DF801006A4602214FF4AC70FFF7F6
:105A70000BFA38BD38B5044614B94FF0FF3038BDC5
:105A80006A4604214FF45870FFF73BFA10B14FF00B
:105A9000FF30F4E79DF8000000069DF8011040EA91
:105AA00001409DF8021040EA01209DF803100843D0
:105AB00020600020E3E738B50446200E8DF8000092
:105AC000200C8DF80100200A8DF80200E0B28DF85C
:105AD00003006A4604214FF45870FFF7D5F938BD2A
